:020000040800F2
:10000000E0290020010100083D18000881150008C2
:100010003918000835020008D51900080000000052
:10002000000000000000000000000000451800086B
:100030005D0200080000000041180008491800088F
:100040001B0100081B0100081B0100081B01000820
:100050001B0100081B0100081B0100081B01000810
:100060001B0100081B0100081B0100081B01000800
:10007000390200081B010008450200081B010008A6
:100080001B010008510200081B0100081B010008A9
:100090001B0100081B0100081B0100081B010008D0
:1000A0001B0100081B0100081B0100081B010008C0
:1000B0001B0100081B0100085D1800081B01000857
:1000C0001B0100081B0100081B0100081B010008A0
:1000D0001B0100081B0100081B010008C9190008CA
:1000E0001B0100081B0100081B010008DFF80CD0F1
:1000F00000F05CF800480047593C0008E029002067
:100100000648804706480047FEE7FEE7FEE7FEE7B1
:10011000FEE7FEE7FEE7FEE7FEE7FEE75918000808
:10012000ED0000082DE9F05F0546002092469B4651
:1001300088460646814640241BE0284641464746FD
:10014000224600F054F853465A46C01A914110D343
:1001500011461846224600F03BF82D1A67EB0108BD
:100160004F4622460120002100F032F817EB00092B
:100170004E41201EA4F10104DFDC484631462A46E8
:100180004346BDE8F09F40EA01039B0703D009E026
:1001900008C9121F08C0042AFAD203E011F8013B73
:1001A00000F8013B521EF9D270470000064C074D83
:1001B00006E0E06840F0010394E807009847103437
:1001C000AC42F6D3FFF796FFD88F0008F88F0008EF
:1001D000202A04DB203A00FA02F100207047914007
:1001E000C2F1200320FA03F3194390407047202AFC
:1001F00004DB203A21FA02F00021704721FA02F3D1
:10020000D040C2F120029140084319467047D2B253
:1002100001E000F8012B491EFBD270470022F6E7EF
:1002200010B513460A4604461946FFF7F0FF20466C
:1002300010BD0000FEE7000042F2E830C2F200000C
:1002400000F00EB842F20450C2F2000000F008B80C
:1002500042F24850C2F2000000F002B870470000BD
:1002600010B50168D0E90FCEDCF800200B685C0700
:1002700026D5042404FA0EF4144021D00A6892060C
:1002800003D40A6822F004020A602F22C4F2020298
:10029000914240F20402C4F202025ADD3023C4F259
:1002A000020399426DD04423C4F2020399426BD0F9
:1002B0005823C4F2020399426BD14FF4802370E0BB
:1002C0009C0729D5022404FA0EF4144024D00A68AD
:1002D000920606D40A6822F00A020A60012280F817
:1002E00021202F22C4F20202914240F20402C4F201
:1002F00002023ADD3023C4F20203994257D044236C
:10030000C4F20203994255D05823C4F20203994221
:1003100055D14FF400335AE01B0761D5082303FA87
:100320000EF31A4008BF10BD0A6822F00E020A60E0
:10033000012101FA0EF2CCF80420816380F821102B
:10034000016B0022002980F8202049D0BDE8104030
:1003500008470823C4F20203994218D01C23C4F2B0
:100360000203994215D140231BE00823C4F2020383
:10037000994222D01C23C4F2020399421FD12023A8
:1003800025E04FF480630CE04FF4804309E0042340
:1003900007E002F168044FF08063A14208BF4FF408
:1003A00080031360C16AD9B1BDE8104008474FF41B
:1003B00000730CE04FF4005309E0022307E002F160
:1003C00068044FF00073A14208BF4FF4001313609C
:1003D000816A002280F8202011B1BDE81040084752
:1003E00010BD00002DE9F04F82B00E68002E00F025
:1003F000F98041F20042C4F20102042340F2004EAF
:10040000904208BF03234FF6FF7CC4F2010E009315
:1004100000240123C1F2100C4FF0000A4FF0000934
:1004200046E0012504F00C030F279F402BEA070745
:1004300005FA03F33B4342F82630D1F804B040F20A
:100440000C455FEACB22DEF8082054BF22EA0802FE
:1004500042EA0802C4F20105CEF808202A685FEAE1
:100460008B2354BF22EA080242EA08022A605FEAAC
:100470008B33DEF8042054BF22EA080242EA080265
:100480005FEACB33CEF80420DEF800204FF0010302
:1004900054BF22EA080242EA0802CEF800200E68A1
:1004A0000AF1010A36FA0AF204F1040400F09A8013
:1004B00003FA0AF816EA080FF1D04A68624511DC1F
:1004C000122A51D8DFE802F0340A42465050505008
:1004D000505050505050505050494D00D1F80C9051
:1004E00042E000BF4FF6FF75C1F22105AA420FDCC2
:1004F0000025C1F21105AA421AD00025C1F2120549
:10050000AA4215D00025C1F22105AA4210D02BE045
:100510000025C1F22205AA420AD00025C1F2310508
:10052000AA4205D00025C1F23205AA421CD100BF63
:100530008A6842B1012A14BFC0F81480C0F8108044
:100540004FF0080910E04FF004090DE0CA6802F10D
:10055000080909E04FF0000906E0CA6802F1040941
:1005600002E0CA6802F10C0922460546BAF1080FFA
:1005700024BF203A04352E680F279740BE4309FA5E
:1005800002F232432A60CA79D2067FF588AF41F27F
:100590001803C4F202031A684FEA9A0642F00102F5
:1005A0001A601A6840F6000302F001020192019AF3
:1005B000AEF57E7252F826B0C4F2010398420FD015
:1005C00040F60043C4F2010398423FF42AAF41F2DF
:1005D0000003C4F20103009D984208BF022521E7F1
:1005E00000251FE702B0BDE8F08F00002DE9F041C3
:1005F00086B042F26428C2F2000898F83D0041F249
:100600001805C4F20205A0BBD8F8001045F200425C
:10061000C4F200020020914288F83C00049028D1E6
:10062000286802A940F008002860286800F0080047
:10063000019001984FF44070029012200390032023
:10064000059040F60040C4F20100FFF7CBFE042005
:10065000C4F20100016841F0E06141F00201016073
:10066000686840F400106860686800F40010019049
:100670000198242088F83D00D8E900010024026890
:1006800022F001020260026842F400420260026845
:1006900022F40042026040F20402C2F20002126838
:1006A00055F8143C48F6EC35C3F30223C0F60005B8
:1006B000EB5C002522FA03F348F28042C0F21E02EE
:1006C000934240F60012C0F23D0238BF012493422B
:1006D00048F2A162C0F2010238BF0125914238BF41
:1006E00025461DB1012006B0BDE8F0814DF68365B9
:1006F000C4F21B35A3FB05544568A60C25F03F0545
:100700004FF4967745EA9445774344F6D3564560CF
:10071000C1F26206056AA7FB0676B60925F03F0717
:10072000914238BFA60C721C3A430262C26948F279
:10073000A0664CF6FF77C0F20106B14222EA07023A
:100740000AD8013B4900B3FBF1F101316FF31F31CE
:10075000042998BF04211CE0D8F80870013B57B168
:1007600019277943B3FBF1F101316FF31F3169B1FF
:1007700001F5804107E001EB4101B3FBF1F10131EB
:100780006FF31F3121B101F5004102E0012100E0CA
:1007900001211143C1610168D8E9072321F0C0019B
:1007A000114319430160816848F2FF3208F10C07D8
:1007B00091438CCF19431143D8F818608160C16808
:1007C00021F0FF0139433143C160016841F001016B
:1007D000016000202021C8F8400088F83D10C8F8CA
:1007E000300088F83E0006B0BDE8F081002804BF64
:1007F0000120704770B583B090F83D1042F6004C70
:100800000029C4F2010C5ED0022180F83D1002687C
:1008100040F2FF711368C4F200018A4205DCB2F1B4
:10082000804F0AD040F2004603E0624505D040F612
:100830000006C4F20006B24203D1866823F07003BA
:1008400033438A4205DCB2F1804F0AD040F20041C6
:1008500003E0624505D040F60001C4F200018A427F
:1008600003D1016923F440730B43866923F08001AF
:100870004368C568314362451160D562936202D115
:100880004169CCF83010012151611369DB0703D0B5
:10089000136923F00103136180F8461080F83E10BD
:1008A00080F83F1080F8401080F8411080F8421026
:1008B00080F8431080F8441080F8451080F83D100F
:1008C000002003B070BD016840F20043C4F2000391
:1008D0000022994280F83C2045D040F60002C4F244
:1008E000000291424DD061457FF48EAF41F21C0170
:1008F000C4F2020151F8042C4FF0100E42F40062D1
:1009000041F8042C51F8041C1C2201F400610291EE
:10091000029942F2E831C2F20001C4F2020200235D
:100920004FF400754FF40066C1E9002E01F1080E86
:1009300080248EE8780004260CF55445C1E90F5652
:100940000226C1E9063381F821601668A92565F3FE
:100950000D16166001228B6381F8212081F820306A
:100960004162486250E741F21C01C4F202010A6888
:1009700042F002020A60096801F002010191019946
:1009800042E741F21C01C4F202010A6842F004028B
:100990000A600968002201F00401009100994EF6F6
:1009A0000C51CEF2000109684EF21E41CEF2000158
:1009B0000A704EF20011CEF200014FF080420A6040
:1009C00022E7000080B590F83C20012A4FF0020297
:1009D00000F0BF8080F83D20D0F800C04FF677725D
:1009E000DCF8083023EA0202CCF808200B684F2B11
:1009F00028DC1F2B43DD202B44D0302B42D0402B52
:100A000040F0A980D1F804E0C968DCF82030DCF8B7
:100A1000202022F00102CCF82020DCF8182022F05F
:100A2000F00242EA011123F00A0242EA0E02CCF877
:100A30001810CCF82020DCF8081041F0470121F014
:100A400030017DE06F2B25DDB3F5005F46D0B3F5B7
:100A5000805F77D0702B7ED1D1E901E3C968DCF8E3
:100A6000082043EA0E0322F47F4243EA01211143A6
:100A7000CCF80810DCF8081041F0770160E00BB109
:100A8000102B68D1DCF8081021F07001194341F0F7
:100A9000070155E0502B34D0602B5CD1D1F804E035
:100AA000C968DCF82030DCF8202022F01002CCF8F5
:100AB0002020DCF8182022F4704242EA013123F0B1
:100AC000A00242EA0E12CCF81810CCF82020DCF874
:100AD000081041F0670121F0100131E0D1E901E394
:100AE000C968DCF8082043EA0E0322F47F4243EA97
:100AF00001211143CCF80810DCF8081041F48041C2
:100B00001EE0D1F804E0C968DCF82030DCF82020D1
:100B100022F00102CCF82020DCF8182022F0F002AC
:100B200042EA011123F00A0242EA0E02CCF8181040
:100B3000CCF82020DCF8081041F0570121F020010A
:100B4000CCF808100022012180F83D10002180F827
:100B50003C10104680BD0122F5E700002DE9F04F62
:100B600081B004460068C168026902EA0105A9076C
:100B700008D469070ED4290714D4E9061AD4E90762
:100B800020D128E06FF00201016181690021217705
:100B90006907F0D56FF004010161816900212177B7
:100BA0002907EAD56FF008010161C16900212177A9
:100BB000E906E4D56FF010010161C16900212177D8
:100BC000E90708D042F2A032C2F200026FF0010140
:100BD000944201611BD0280606D468060AD4A806F0
:100BE0000ED401B0BDE8F08F20686FF08001016184
:100BF0006806F4D520686FF040010161A806F0D5C1
:100C000020686FF02001016101B0BDE8F08F42F271
:100C1000A45742F2D4594FF0000BC2F20007C2F2BF
:100C2000000900264FF0000A0BE0022088F80400BB
:100C3000A8F806B088F80CB01036302E0AF1010A78
:100C4000C9D0B85907EB0608804798F8041018B1C6
:100C5000012909D802200AE00329E6D2C1B3481EBF
:100C600088F80400E4E700BF032903D8481C88F88B
:100C70000400E1E798F80A0090B999F80B000AEB34
:100C80004A01013109F8001099F80B0001210130E7
:100C900088F80A10C1B2092988BF002089F80B0022
:100CA000B8F808000028C7D0B8F80610814226D24C
:100CB00001318AB28242A8F80610BDD199F80B0022
:100CC0000AEB4A01033109F8001099F80B002EE0F5
:100CD00098F80A000128ABD199F80B000AEB4A01F9
:100CE000023109F8001099F80B0088F80AB00130B9
:100CF000C1B2092988BF002089F80B0098E798F84D
:100D00000B00002898D098F80C100131CAB282422A
:100D100088F80C10FFF490AF99F80B000AEB4A0129
:100D2000013109F8001099F80B0088F80CB0013077
:100D3000C1B2092988BF002089F80B007CE70000B8
:100D4000002804BF0120704710B590F83D1040F214
:100D5000FF7E002904BF002180F83C10022180F8AA
:100D60003D100168C4F2000E0B6842F6004C71455C
:100D7000C4F2010C05DCB1F1804F0AD040F2004210
:100D800003E0614505D040F60002C4F20002914242
:100D900003D1826823F070031343714505DCB1F180
:100DA000804F0AD040F2004203E0614505D040F692
:100DB0000002C4F20002914203D1026923F440739D
:100DC000134323F080028369D0F804E0C4681A4317
:100DD00061450A60CC62C1F828E002D14269CCF8D2
:100DE000302001224A610B69DB0703D00B6923F035
:100DF00001030B6180F8462080F83E2080F83F20F8
:100E000080F8402080F8412080F8422080F843207C
:100E100080F8442080F8452080F83D20002010BD57
:100E2000B0B582B0044600680168C268436901F049
:100E30002F05202D02F0200506D12DB1204602B04D
:100E4000BDE8B04000F016BD5FEA017C1EBF03F0B4
:100E5000010E02F4907313EB0E036BD1236B114060
:100E6000CA0659D5012B57D1002101910168019182
:100E70004168019101994169490665D4A18DE28DCE
:100E8000E38D002B18BF914203D102B0B0BD00BF6B
:100E9000206850E8030F216820F4907041E80302B5
:100EA000E2B1206850E8030F216820F4907041E817
:100EB00003029AB1206850E8030F216820F4907073
:100EC00041E8030252B1206850E8030F216820F482
:100ED000907041E80302002ADAD100BF206850E890
:100EE000050F216820F0010041E80502002AF5D134
:100EF000202084F842000020206300BF206850E8D2
:100F0000030F216820F0100041E80302002AF5D108
:100F10000220606302B0B0BD0A0600F18580490678
:100F2000B3D5C16821F04001C160202084F84100A0
:100F300002B0B0BDCB0718BF12F4807340F09680AA
:100F40004B0700F199809EE0E16B0A68526893B20A
:100F5000002B9AD0A58DAB4297D2E28589692029D2
:100F600000F06A8150E8030F216820F4807041E8A6
:100F70000302EAB1206850E8030F216820F4807072
:100F800041E80302A2B1206850E8030F216820F471
:100F9000807041E803025AB1206850E8030F2168CD
:100FA00020F4807041E8030212B12068DAE700BF44
:100FB000206850E8050F216820F0010041E8050293
:100FC000002AF5D1206850E8050F216820F0400084
:100FD00041E80502002AF5D1202084F842000020D3
:100FE000206300BF206850E8030F216820F0100044
:100FF00041E80302002AF5D1E06B90F821100229A4
:1010000040F015810168D0E90F230D6825F00E0529
:101010000D600D6825F001050D60012101FA03F353
:10102000536080F8211004E194F8411021297FF4E5
:101030002CAFA168B1F5805F03D12169002900F0D0
:10104000EE80216A4A1C226209784160E18C0139F4
:101050000A04E1847FF419AFC16821F08001C16006
:10106000C16841F04001C16002B0B0BD636C43F0A3
:10107000010363644B0706D5BEF1000F03D0636C18
:1010800043F0020363648B0706D5BEF1000F03D063
:10109000636C43F004036364BCF1000F06D55EEAA1
:1010A000050303D0636C43F008036364636C002B97
:1010B0003FF4EBAE1140890603D5204600F0DAFB81
:1010C00020684169626C01F0400102F00802891851
:1010D0006DD000BF50E8030F216820F4907041E804
:1010E0000302EAB1206850E8030F216820F49070F1
:1010F00041E80302A2B1206850E8030F216820F400
:10110000907041E803025AB1206850E8030F21684B
:1011100020F4907041E8030212B12068DAE700BFC2
:10112000206850E8050F216820F0010041E8050221
:10113000002AF5D1206B01280AD100BF206850E8B1
:10114000030F216820F0100041E80302002AF5D1C6
:10115000202084F84200002020632068416949066D
:101160007FF593AE50E8050F216820F0400041E87C
:10117000050202B3206850E8050F216820F0400006
:1011800041E80502BAB1206850E8050F216820F057
:10119000400041E8050272B1206850E8050F21685F
:1011A00020F0400041E805022AB12068DAE700207B
:1011B000606402B0B0BDE06B00283FF466AE41F65B
:1011C0006901C0F60001416390F82110022923D182
:1011D0000268116821F00E0111602F211368C4F21A
:1011E00002018A4240F20401C4F2020123F0010329
:1011F000136026DD3023C4F202039A422DD044232B
:10120000C4F202039A422BD05823C4F202039A423A
:101210002BD14FF4803330E00421816334E0216A24
:1012200031F8022B6FF35F22426021620EE7042146
:101230008163002180F8201002206063E08D02B0FD
:10124000B0BD0823C4F202039A420CD01C23C4F29E
:1012500002039A4209D110230FE04FF480730CE08F
:101260004FF4805309E0012307E001F168054FF0D6
:101270008073AA4208BF4FF480130B60012180F8ED
:101280002110002180F8201002B0BDE8B04000F02D
:10129000EBBA0000002804BF012070472DE9F04799
:1012A00086B0044690F8410040F2440A40F600053A
:1012B000C4F2020A0028C4F2010540F0F980206857
:1012C00044F20041C4F200010026884284F84060E4
:1012D0000596CDE90366029659D044F60001C4F2A2
:1012E0000001884200F0A58043F60001C4F201012C
:1012F000884240F0DD8041F21800C4F2020001682B
:101300000DF1080941F48041016001684FF00208C5
:1013100001F4804101910199016841F004010160EB
:101320000068494600F00400019001984FF40070F5
:101330000290032005902846CDF80C80FFF752F864
:101340004FF480600290002628464946CDE90366A6
:10135000FFF748F842F20450C2F200001021802248
:10136000C0E900A1C0E902620C2105F57842C0E99C
:101370000466C0E90666C0E90F2180F82180DAF82A
:101380000010092262F30D11CAF8001048E041F282
:101390001800C4F2020041680DF1080841F4003160
:1013A000416041684FF0020901F400310191019957
:1013B000016841F0040101600068414600F004004A
:1013C0000190019804200290032005902846CDF852
:1013D0000C90FFF707F80820CDE9020628464146A1
:1013E0000496FEF7FFFF42F24850C2F20000C0E947
:1013F0000666C0E9046680F821905146102351F832
:101400003C2FC0E901368023C3604FF0180C05F56E
:101410007843C0E90F3C092363F30D1201600A60B1
:101420000121866380F8211080F82060A063446267
:101430003EE041F21800C4F20200416805F5806602
:1014400041F48021416041680DF1080801F48021D8
:1014500001910199016841F008010160006841466D
:1014600000F00800019001984FF480600290022083
:101470000390032005903046FEF7B4FF4FF4006060
:101480000290002730464146CDE90377FEF7AAFFD8
:101490004EF60C50CEF2000000684EF22740CEF21D
:1014A000000007704EF20410CEF2000080210160AF
:1014B000242084F8410094E80F008900C76827F4CD
:1014C0000057C760076927F440573B430361D4E9DD
:1014D00004371A43C3683A4341F20C67BB431A43CB
:1014E000C2604269A36922F440721A43426140F229
:1014F0000402C2F200021268DAF8C03F05F5405754
:101500001E0AB84248F6EC3708BFDE0A06F00703A9
:10151000C0F60007FB5CDA4019235A43B2FBF1F135
:1015200048F21F52C5F2EB12A1FB02377B096FF0A4
:10153000630703FB0711322707EB0111A1FB02121E
:10154000F02101EA521101EB0311C2F343121144DD
:101550008160016921F490410161416921F02A0112
:101560004161C16841F40051C160002020216064E4
:1015700084F8411084F84210606306B0BDE8F0873B
:10158000FEE7000040F60840C4F2010000680121B7
:1015900021EA0000704700000020704700207047DB
:1015A000F0B582B08DF8031042F2905142F2642CF3
:1015B000C2F20001C2F2000C0A689CF83D30202BF8
:1015C00040F02081DCF80040A3699B0717D50B6829
:1015D0009B1A1A2BF8D3A3699B07F5D5002020226C
:1015E000CCF830008CF83D208CF83E00DCF8402030
:1015F00042F02002CCF840208CF83C0002E19CF83C
:101600003C30012B00F0FE8001238CF83C30266832
:10161000F60703D1266846F001062660266826F400
:101620000066266021268CF83D6040268CF83E60DE
:101630000026CCF840600DF10306CCF82460ACF82D
:101640002A30BCF82AE00023CFF6FF73ACF828E07C
:10165000CCF82C30236843F480732360DCF800302E
:101660006569ED071FD10D68AD1AB5F5805FF7D339
:101670005D69ED07F4D100202022CCF830008CF811
:101680003D208CF83E00DCF8402042F02002CCF8EF
:1016900040208CF83C001868C00544BF4FF400702F
:1016A000CCF84000AEE0D0241C615C69A4070BD4E8
:1016B0005C69640577D40C68A41AB4F5805FF4D330
:1016C0005C69A407F1D489E7002401945C69019462
:1016D0009C690194019C00BF5C6924060CD45C6980
:1016E000640574D40C68A41AB4F5805FF4D35C6903
:1016F0002406F1D420206EE0BEF1000F186144D022
:101700000DF103005C6924060BD45C6964055ED4AA
:101710000C68A41AB4F5805FF4D35C692406F1D494
:10172000E8E7044614F8015B1D61AEF10105CCF851
:101730002440ACF82850BCF82A602F04A6F101061A
:10174000ACF82A605E6918BF16F004060DD0447824
:10175000AEF102051C61841CCCF82440ACF8285082
:10176000BCF82A000138ACF82A002804AE4620460E
:10177000C8D10AE0586940054CD40868801AB0F511
:10178000805F02D35869400749D558694007F1D5B1
:10179000186840F40070186020208CF83D0000208C
:1017A0008CF83E0028E71868202240F4007018608A
:1017B0006FF4806058610020CCF830008CF83D2038
:1017C0008CF83E00DCF8402042F0040212E76FF48F
:1017D00080605861042000222026CCF830208CF84C
:1017E0003D608CF83E20DCF840603043CCF840008F
:1017F0008CF83C20DCF84000042803D1186840F441
:1018000000701860086800BF0A68121A652AFBD3C6
:1018100002B0F0BD6FF480605861042000E0202029
:1018200000222027CCF830208CF83D708CF83E2028
:10183000DCF840703843D9E7FEE70000FEE700001F
:10184000704700007047000042F29050C2F2000062
:1018500001680131016070477047000042F2A0301A
:10186000C2F20000FFF77AB9406A0021C185C18445
:101870007047000081B090F84210222921D183687E
:10188000B3F5805F08D10169002959D000F1280122
:101890000A6803685B680AE0014651F8282F13B90B
:1018A0000369002BF5D003685B6803F07F031370B6
:1018B0000968012211448162C18D01390A04C18580
:1018C00001D001B070470168CA6822F02002CA60E6
:1018D000CA6822F48072CA604A6922F001024A6131
:1018E000202280F8422000224263036B012B2FD17B
:1018F000026300BF51E8031F026821F0100142E8B3
:101900000313002B41D0016851E8031F026821F046
:10191000100142E80313C3B3016851E8031F0268D2
:1019200021F0100142E803137BB3016851E8031F63
:10193000026821F0100142E8031333B30168D9E7CC
:101940000268816A52686FF35F220A800222B1E75F
:1019500040F2D811C2F200010978012940F2D711F2
:10196000C2F200012CD142F2BC42C2F2000290420B
:1019700026D10878022815D0012821D142F2D4506E
:10198000C2F20000C27A042312E000680168C906AE
:1019900097D500210091016800914068009000985F
:1019A00001B0704742F2D450C2F20000C27A07235D
:1019B0008354C27A0132D3B2092B88BF0022C2728B
:1019C0000020087001B0704742F2BC40C2F2000033
:1019D000FFF726BAFEE700002DE9F04F83B00DF1C6
:1019E0000809002A01904FF0010818BF914600290C
:1019F000CDF8088000F0648348F2006042F2DC1BFE
:101A0000C0F600008A46C2F2000B02268430009025
:101A1000DAF8207039683846D1B100BF82680969A8
:101A2000002A016154D01168906809690028116189
:101A30004ED00268816812690029026148D00A68A4
:101A40008868126900280A6142D00168E6E700BF91
:101A5000386900283DD100200BEB000191F82820C7
:101A60001AB10C306028F7D101E0602808D148F69F
:101A70005E50C0F6000004F057FC0226002001E092
:101A800001F12000027AF9680132027281B14B68DB
:101A90004A7C1988022A0CD398BF32465242023B34
:101AA0009D8801326943551C03F10203F8D100E01F
:101AB00000218A07436821F0030218BF111D9942D3
:101AC00098BF19463861DAF82070416080F80980C3
:101AD0006FB1B86858B100BF3869002800F0F082D3
:101AE000407A012840F0EC82BF68002FF4D1DAF888
:101AF0000810504688470198824507D0016819B1FF
:101B000050450846FAD101E0C0F800A0DAF810C04C
:101B1000BCF1000F0AD000210BEB010292F8283033
:101B200043B10C316029F7D106E000BF4FF0000C43
:101B3000022621E0602909D148F65E50C0F6000077
:101B400004F0F2FBDAF810C0002101E002F12001FC
:101B50000A7ADCF8043001320A729A0723F0030291
:101B6000CCF8001018BF131D4A68022681F80980BE
:101B7000934298BF13464B60D9F80010DAF8202042
:101B80004B1C4FF00007C9F8003062BBDAF8242084
:101B90004FF00008002A40D1DAF828B0BCF1000F5D
:101BA00014BFDCF8045000259AF81C000FF26C56A4
:101BB0000B2847D1009A0FF2345004F05DF9DAF89F
:101BC000300048F2CC71007DC0F6000101EBC0018D
:101BD0000FF2245004F050F940E000BF0023926857
:101BE0001F44002AD2D0D368002BF7D05D685C7CFC
:101BF0002B88022CF3D398BF34466442023D00BFC9
:101C0000A88801344343601C05F10205F8D1E6E7DA
:101C1000002392689844002ABED0D368002BF7D0E6
:101C20005D685C7C2B88022CF3D398BF34466442F9
:101C3000023D00BFA88801344343601C05F1020542
:101C4000F8D1E6E748F2006200EB4000C0F600027F
:101C500002EB80020FF2844004F00EF9DAF814006F
:101C600060B1007A48F28C71C0F6000101EBC0014E
:101C70000FF28C4004F000F904E000BF0FF288403E
:101C800004F0FAF8282004F049FB002407E000BF24
:101C90000FF2804004F0F0F80134032C0CD0DAF895
:101CA0002400C068417C8C42F2D2406830F81410A5
:101CB000304604F0E1F8EFE70FF2684004F0DCF89A
:101CC000BBF1000F0AD042F20F7083450CD80FF21F
:101CD0007840594604F0D0F850E000BF0FF2704051
:101CE00004F0CAF84AE000BF44F23F20C0F20F00FF
:101CF00083450BD844F6D350C1F26200ABFB000120
:101D000089090FF23C4004F0B7F837E04CF6FF10B9
:101D1000C3F69A30834516D84DF68360C4F21B3063
:101D2000ABFB00014BF6C050890CCFF6F07001FB05
:101D300000B041F25972CDF2B712A0FB0202520B71
:101D40000FF2F03017E044F683314FEA5B20C0F227
:101D50000401A0FB010143F20060C909CCF2654017
:101D600001FB00B04CF66B22C6F65F32A0FB02020C
:101D7000920D0FF2B43004F07FF800BF42F2DC1B8A
:101D80002B460FF2D83039464246C2F2000B04F01F
:101D900073F8DAF824704FF00108002F4FF00206B4
:101DA00000F08E81B868002840F0D680786800285E
:101DB00040F0D280DAF82000017E69B1397E59B155
:101DC000002100BF0BEB010090F82820002A3CD036
:101DD0000C316029F6D1B6E00069386148F604504C
:101DE000C0F6000004F048F848F6085548F60B56CF
:101DF0000BF128070024C0F60005C0F6000607E036
:101E0000304604F039F80134082C07F10C070BD0E8
:101E1000A00702D1202004F081FA39780029EFD1FF
:101E2000284604F029F8EEE70A2004F077FA0226A3
:101E30000027DAF8100050B30068017A31B3013995
:101E40000A06017208BF477221E060297BD040F288
:101E500001110185F96839B34B684A7C1988022A57
:101E600023D398BF324648F6085548F60B565242DF
:101E7000023BC0F60005C0F6000600BF9F88013295
:101E80007943571C03F10203F8D116E04772DAF8E0
:101E900024000068002800F01381D0F814A0BAF1E3
:101EA000000F7FF4B5AD0BE1002148F6085548F668
:101EB0000B56C0F60005C0F600068A0721F00302A3
:101EC00018BF111D426A00F12003914298BF1146CC
:101ED000DAF82420416248F60450C0F6000013618D
:101EE00003F0CAFF0BF12807002407E0304603F097
:101EF000C3FF0134082C07F10C070BD0A00702D157
:101F0000202004F00BFA39780029EFD1284603F09D
:101F1000B3FFEEE70A2004F001FADAF82000022607
:101F20004FF0000728B984E74F72806800283FF41B
:101F300080AF01690A7A002AF6D0013A13060A72C4
:101F400008BF4F72F1E748F65E50C0F6000004F09B
:101F5000EBF903B0BDE8F08FDAF82000017E00292C
:101F600044D0397E002941D00120396800294AD067
:101F7000002200BF0BEB020191F828301BB10C329C
:101F8000602AF7D19FE0602A00F09D80FA6801F195
:101F900020033B6182B15568537C2A88022B0CD305
:101FA00098BF02235B42023DAC88013362435C1C54
:101FB00005F10205F8D100E0002293074D6A22F0F6
:101FC000030318BF1A1DAA4298BF2A464A6200227C
:101FD0003B4600BF5B680132002BFBD1BF6881F834
:101FE0002820002F81F82900BFD10CE000690021D2
:101FF000386100BF7F680131002FFBD1027A1144A4
:1020000001720121417248F60450C0F6000003F04D
:1020100033FF48F6085848F60B550BF12807002403
:10202000C0F60008C0F6000508E000BF404603F017
:1020300023FF0134082C07F10C070BD0A00702D1B5
:10204000202004F06BF939780029EFD0284603F0FE
:1020500013FFEEE70A2004F061F9DAF8200070B10E
:10206000002102E05172806848B10269137A002BA6
:10207000F8D0013B1F06137208BF5172F3E7DAF87C
:10208000100040B10068017A19B101390A060172E5
:1020900001D100214172DAF824408CB1019E01E0A7
:1020A000A4686CB1254600BF28680028F8D04169B3
:1020B00030464A46FFF790FC6D68002DF4D1EFE7FB
:1020C00003B0BDE8F08F48F65E50C0F6000004F0A3
:1020D0002BF90020386103B0BDE8F08F23252D33A4
:1020E0006420252D313073202D20000023252D3331
:1020F0006420252D33732F00252D3673202D2000CD
:10210000252D3873202D2000202020202020202065
:10211000202D200020202020200000002534642CC9
:1021200000000000292020002533642E2530326471
:10213000472000002533642E253032644D200000F6
:102140002536646B20000000253764200000000065
:102150002020202020202020000000002825366498
:102160002C2536642C253664290000002DE9F04327
:1021700081B08146006A6FF00202016842F2A05C01
:10218000CC68C2F2000C677C790002EA4702161D97
:10219000890758BF7E00B10726F00201324648BFCA
:1021A0000A1D02F11C018A0721F002020D4648BFF8
:1021B000151D42F29C52C2F20002DCF800E01378D6
:1021C0007544002B1A4618BF4FF400529542C46064
:1021D00020D242F29850C2F2000002684FF000088C
:1021E000CCF800503AB342F29450C2F200000368B7
:1021F00002EB0E055A1802602846FEF70FF805F1AB
:10220000140081192B1D85F81080A8460A1D07C3EC
:102210006F7410E03BB148F60F50C0F60000114655
:1022200003F02AFE05E048F69460C0F6000003F0D3
:1022300023FE4FF00008D9E90810C0F80C80CF68E1
:1022400098F81010387C88422CD1797C98F81120AD
:10225000914227D1012806D1786800EB410030F87F
:10226000020C850000E00425BA7CD8F80800B968A3
:1022700088F812202A46FDF786FFD8F80C00F96886
:102280002A46FDF780FF787C796888F811007A7C0F
:10229000D8F804005200FDF776FFD9E90801C768B5
:1022A000D1F80C80D9F85000B968806809680068D6
:1022B000D9F8582008441168D9F81420401AD8F8E1
:1022C0000810086032B1127A02F0FC02042A08BF3A
:1022D00007200860786899F84820018881B1B9F82A
:1022E0003630B9F830701944C7F101070139B9F82F
:1022F0004260012A18BF07FB0611B1FBF3F700E0AB
:102300000027D8F804100F80438883B1B9F83860EB
:10231000B9F832503344013BB9F84440C5F10105E6
:10232000012A18BF05FB0433B3FBF6F300E00023DA
:102330004B80D9F84C30012A8B801AD1B9F8322061
:10234000B9F84430571E7B4303EBD3735B08A9F8FD
:102350003E30B9F83030B9F842705E1E774307EB73
:10236000D7777F08A9F83C700027A9F840700F883C
:1023700003E0B9F83220B9F8303098F8116080885D
:10238000022EBFB20BD398BF02267642023900BF9D
:102390008D8801366F43751C01F10201F8D103FBF2
:1023A00002F1484300FB07F10020C9F8281001B0F2
:1023B000BDE8F083002070472DE9F04FAAB08646B3
:1023C000006AC068817C102940F04981DEF8241041
:1023D000CA6851688F88002F3B461A9700F07582B3
:1023E000DEE9147612683D6819923A7C4F880988B4
:1023F00009C80B91511EB1FA81F14909BEF842207A
:1024000001911988541E21440591691E1191DEF82D
:102410005810B3F804900491DEF85C105B88023821
:102420001391BEF836101090089202FB03F0BEF82C
:102430003E200C91BEF83C101F97BEF844700694E5
:1024400000FB09F0BEF83040169252424000CDE940
:1024500002214942259007FB09F00994BEF8324059
:102460002097013F00910021D6F80080BEF8385037
:1024700007933B440A9100214000159304FB09F3A4
:10248000219100210F971E9424931491CDE91758A0
:102490000FE000BF0199149B219A0B441A99013255
:1024A00021928A42DDE9091214930A440A9200F04B
:1024B0000C820B990029EDD000210E9100990D910D
:1024C0000AE000BF0E9A0B9901320E928A42DDE9B2
:1024D0000C120A440D92DDD01F990029F2D00C99FC
:1024E000DDF838C0039A0CFB01F1891A069A059FA2
:1024F000DDF820E0521A791A92FBFEF291FBFEF70A
:10250000099922EAE2738F42C8BF0F460499149AD0
:102510001D9351F822401F990D9A0CFB01F11B915C
:102520000A990EFB032219441E9B0026594312915F
:102530000799029B279701FB02311C94239122E00B
:102540001C9CC4F120022BFA04F107FA02F2114399
:10255000B4F1200258BF47FA02F11B9A229E1A9B3F
:10256000219F324402FB0372199B01F30F0123F8F0
:1025700012101F9901368E42179D2399DDF8608055
:10258000294423919ED0169A06FB05F18B1A1599C2
:10259000209AC91A91FBF2F11E9A9142C8BF1146C6
:1025A000B8F1000F22960DD0219ADDE9137618F9C3
:1025B000022057F82670BA400127A74002EB670BAC
:1025C00004E000BF0122A2404FEA620B279A1D9D42
:1025D0004FEAEB779542B3DA0F9A239ED21A209BEB
:1025E00092FBF3F222EAE274129A03FB0463119E57
:1025F000224409FB026A09FB03F2109B269403EBB9
:1026000042082B460DE000BF249ADDF8A4A0013358
:102610009244279ADDF8A0809342259A269C904404
:102620008ED08C42CDE9288A05DBEDE70134CA441F
:102630008C428044E8D0B9F1000FF7D04646D64628
:102640004A4600BF36F902CF1EF9015F05FB0CF5C3
:102650001BEB050B47EBE577013AF3D1E6E7DEF834
:102660002410CB685A689788002F39461A9700F0D3
:102670002C81DEE91465DEF858401B681494346838
:102680001993337C56881288D0E900170B925A1E92
:10269000B2FA82F2BEF84230B7F802C0B8885209E6
:1026A000013902923A88109103FB0CF11F965E1ECD
:1026B000414332442691DEF85C100592621E11926D
:1026C0001391BEF84410BEF83620BEF8304008938F
:1026D000BEF83E3006960C92BEF83860BEF83C203C
:1026E0000994BEF832404F1E209101FB00FE0021EC
:1026F000D5F800900F97674416935B420A9100212A
:10270000159704FB00F7CDE90332524221910021D5
:10271000CDF81CC01E94259701921B91CDE9176935
:102720000FE000BF02991B9B219A0B441A990132BA
:1027300021928A42DDE909121B930A440A9200F0B1
:10274000C4800B990029EDD000210E9101990D91C3
:102750000AE000BF0E9A0B9901320E928A42DDE91F
:102760000C120A440D92DDD01F990029F2D00C9969
:10277000DDF838C0049A0CFB01F1891A069A059F0E
:10278000089B521A791A91FBF3F7099992FBF3F21D
:102790008F42C8BF0F461F9922EAE2780CFB01F175
:1027A0000D9A1C910A9903FB08221E9B4144594330
:1027B00012910799039B002501FB02342897CDF85D
:1027C000748018E022991C9A239D43FA01F11A9B08
:1027D000219F2A4402FB0372199B01F307019954BC
:1027E0001F99179E249C0135DDF86090DDF87480F8
:1027F0008D423444AED0169A05FB06F1A1EB020CD3
:10280000159A209BA2EB0C0292FBF3F71E9A9742BB
:10281000C8BF1746B9F1000F10D0219A139B1B991E
:10282000149E19F9022053F8213056F821109A40CD
:1028300001238B40229102EB630307E0149A1B9B58
:1028400052F8231001228A4053102291289ACDE990
:1028500023549045B6DA0F9AA2EB0C01209A91FB13
:10286000F2F121EAE17612992796314402FB064201
:10287000119E00FB01641099464600FB021C08E013
:102880002599299C01360C4428998E4226998C441E
:1028900098D0DDF89C802994B845F1DA614605E0CE
:1028A00008F101080444B8457144E9D00028F7D084
:1028B0008B46A246024600BF1BF9019F1AF9015F31
:1028C000013A05FB0933F7D1EAE700202AB0BDE859
:1028D000F08F00002DE9F041036A804618686FF020
:1028E0000202C06842F2A05C477CC2F2000C790090
:1028F00002EA4702141D890758BF7C00A10724F093
:102900000201224648BF0A1D02F11C018A0721F07C
:1029100002020E4648BF161D42F29C52C2F200024D
:10292000DCF800E015787644002D2A4618BF4FF4F5
:1029300000529642D8601FD242F29850C2F2000074
:102940000268CCF800604FF000062AB342F29450BF
:10295000C2F20000036802EB0E055A180260284616
:10296000FDF75CFC05F1140001192B1D2E742E4699
:102970000A1D07C36F740FE03DB148F60F50C0F653
:102980000000114603F078FA05E048F69460C0F6BE
:10299000000003F071FA0026D8E90810C660CF687D
:1029A000317C387C884221D1797C727C91421DD166
:1029B000012806D1786800EB410030F8020C850050
:1029C00000E00425BA7CB068B968B2742A46FDF705
:1029D000DAFBF068F9682A46FDF7D5FB787C796860
:1029E00070747A7C70685200FDF7CDFBD8F8140043
:1029F00058B1D8F82410007AC96800F0FC00896842
:102A000004280A6808BF07220A600020BDE8F08198
:102A1000F0B581B00446006A42F2A0520168C2F2E9
:102A20000002C968C16042F29C50C2F20000037803
:102A30004F7C1068002B194618BF4FF40051032F2C
:102A400000F1200727D18F424DD242F29851C2F2B5
:102A500000010968176000294FF000075AD042F2C0
:102A60009452C2F200021368084403F1200111607D
:102A7000014641F81C7F024603460761076042F8A1
:102A8000187F43F8147FC1604FF480710746C0E996
:102A9000013201823EE08F422DD242F29851C2F2C1
:102AA00000010968176000294FF0000746D042F284
:102AB0009452C2F200021368084403F1200111602D
:102AC000014641F81C7F024603460761076042F851
:102AD000187F43F8147FC1604FF480710746C0E946
:102AE000013201822AE073B148F60F50C0F60000AF
:102AF00003F0C2F90DE0D3B148F60F50C0F6000064
:102B000003F0BAF919E048F69460C0F6000003F04B
:102B1000B3F90027606AD4E90C23C76002207874F7
:102B2000786812040132D3E90215026010E048F619
:102B30009460C0F6000003F09FF90027606AD4E9B2
:102B40000C23C7600120787478689968DD6802807A
:102B5000387C012807D178687A7C00EB420030F895
:102B6000020C860000E004260822B868BA743246D7
:102B7000FDF709FBF86829463246FDF704FB206A99
:102B8000636BC1689B688A68E76B606A12681B6840
:102B90003F681A44C068D21B676983681A6037B1FE
:102BA0003F7A07F0FC07042F08BF07221A604F681E
:102BB0004B7C3A88022B0AD398BF02235B42023F28
:102BC000BE88013372435E1C07F10207F8D14B68DF
:102BD00057004A7C26691988022A77600BD398BF70
:102BE00002225242023B00BF9F8801327943571CA8
:102BF00003F10203F8D188B14368427C1888022AA5
:102C00000DD398BF02225242023B00BF9F8801327F
:102C10007843571C03F10203F8D100E00020414340
:102C20000020A16201B0F0BD002070472DE9F04FF7
:102C30008CB0016AD0E90F72C968B2F800B00A68B6
:102C4000436B07924A68497CB7F800A01B68168856
:102C500002290AD398BF02214942023A97880131DA
:102C60007E434F1C02F10202F8D1416A0096C96806
:102C7000826B4F684E7CD1F800C007EB460131F8FB
:102C8000029C14680021B1EB990F00F0D6800098E7
:102C90004FEA990281B28D08012101FA0AF1491027
:102CA00000F0030004910390CDE90944CDE9055AF1
:102CB000CDE9019B20E000BFDDF818A04EFA0AF034
:102CC00000F307000CF8040B48FA0AF000F30700C1
:102CD0000CF8030C47FA0AF00B9A00F30700059D65
:102CE0000CF8020C41FA0AF0013A00F30700110453
:102CF0000CF8010C00F0A180002C0B9274D0099804
:102D0000049990F9002090F9017002FA0BF202EB9D
:102D1000010E07FA0BF290F9027002EB010807FAB4
:102D20000BF2571890F90320043002FA0BF2114409
:102D30000990002D5FD0DDF81CA0CDF820C0AC4676
:102D400013F9109B1AF9044B13F90F6C13F90C0CBF
:102D500006FB048813F90B6C1AF9022C09FB04EE2C
:102D600000FB047006FB041113F90E4C1AF903BCA6
:102D700013F9086C04FB02E71AF9015C13F9064C1D
:102D800006FB0B7713F90D6C04FB057E13F9074C5A
:102D900006FB028613F9057C04FB0B6413F90A6C2D
:102DA00007FB054813F9094C06FB020004FB02115E
:102DB00013F9042C13F9034C02FB0B0004FB0B1159
:102DC00013F9022C13F9014C02FB050704FB051152
:102DD000ACF1010C5FEA0C40B2D1DDF820C00A9CD6
:102DE000DDE9019B09E000BFDDF810E071467746A0
:102DF000F046002D9FD1DDF81CA0039800283FF479
:102E00005BAFAAF10102044613F9040B12F9016F3A
:102E100013F9035C00FB06EE05FB068813F9020CB0
:102E200013F9015C00FB067705FB0611013C200449
:102E3000EAD1DDF818A00A9C40E719F0030136D06A
:102E4000012000FA0AF040100B90009A07981FFA30
:102E500082F901384FEA02480A9008E047FA0AF07E
:102E600000F3070001390A040CF8010B1FD04CB124
:102E700014F9010B0B9A00FA0BF08718B8F1000F48
:102E800005D1EBE70B9F0024B8F1000FE6D00A9DB7
:102E9000A6465A1E4E4600BF15F9010F12F9014F02
:102EA000013E04FB0077F7D14B447446D6E700207F
:102EB0000CB0BDE8F08F00002DE9F041036A8046B8
:102EC00018686FF00202C06842F2A05C477CC2F250
:102ED000000C790002EA4702141D890758BF7C00E4
:102EE000A10724F00201224648BF0A1D02F11C017D
:102EF0008A0721F002020E4648BF161D42F29C527C
:102F0000C2F20002DCF800E015787644002D2A4673
:102F100018BF4FF400529642D8601FD242F2985028
:102F2000C2F200000268CCF800604FF000062AB33D
:102F300042F29450C2F20000036802EB0E055A18E8
:102F400002602846FDF76AF905F1140001192B1DEE
:102F50002E742E460A1D07C36F740FE03DB148F66C
:102F60000F50C0F60000114602F086FF05E048F65B
:102F70009460C0F6000002F07FFF0026D8E9081038
:102F8000C660C86880B14368417C1A8802290CD3A6
:102F900098BF02214942023B9F8801317A434F1C6E
:102FA00003F10203F8D100E000227368012171747B
:102FB0008168C4681A80307C012807D17068727CEF
:102FC00000EB420030F8020C850000E004250822E6
:102FD000B068B2742A46FDF7D6F8F06821462A4652
:102FE000FDF7D1F80020BDE8F08100000020704717
:102FF00070B581B042F22C4C0090C2F2000C9CF8EB
:103000004110202950D14FF0000E212142F2905260
:10301000CCF844E08CF84110C2F2000201211368A0
:10302000ACF82410ACF82610DCF80010DCF80840EE
:10303000DCF81050BCF8266036B384F48054254385
:103040004FF000046E460CBF344635460E68360617
:1030500006D41668F61ABEEB164F22D1CE68F5E7F5
:103060001DB115F8016B4E6005E034F8025B6FF39B
:103070005F254D600025BCF82660013EACF8266057
:10308000BCF82660002EE1D10E68760609D4002532
:103090001668F61AB5EB164F03D1CE680E687606A1
:1030A000F6D520218CF8411001B070BD2DE9F0411A
:1030B0008046006A6FF00201C06842F2A053477C6C
:1030C00042F29C56780001EA47010C1D800758BF68
:1030D0007C00A007214624F0020048BF011D1C31DE
:1030E000880721F002000A46C2F20003C2F200067D
:1030F00048BF021D186835788618002D2A4618BF6B
:103100004FF4005296421FD242F29852C2F200028D
:1031100012681E604FF0000632B342F2945CC2F2B5
:10312000000CDCF8003015185818CCF800002846C0
:10313000FDF774F805F1140001192B1D2E742E46AD
:103140000A1D07C36F740FE03DB148F60F50C0F67B
:103150000000114602F090FE05E048F69460C0F6CB
:10316000000002F089FE0026D8E90810C660CD688C
:10317000317C287C884221D1697C727C91421DD1AE
:10318000012806D1686800EB410030F8020C840089
:1031900000E00424AA7CB068A968B2742246FCF757
:1031A000F2FFF068E9682246FCF7EDFF687C696889
:1031B00070746A7C70685200FCF7E5FF0020BDE87F
:1031C000F081000080B5016ACA68C16BD2E9000EC7
:1031D000537CBEF80020022B10D398BF0223C3F10A
:1031E000000CAEF1020E00BFBEF804300CF1010C71
:1031F0005A431CF101030EF1020EF5D1FCF7C3FF97
:10320000002080BD2DE9F04F83B042F2A05842F279
:103210009C51C2F20008C2F20001D8F800600F7899
:1032200006F1780A002F3D4618BF4FF40055AA4515
:103230003FD2814642F29850C2F20000D0F800B06E
:10324000C8F800A0BBF1000F45D042F29451C2F281
:10325000000108680BEB06040190783008602046F6
:103260007821FCF7DBFF0220207743F2C51043F200
:10327000AD01C0F60000C0F60001C4E90101012063
:1032800084F85800002084F87400D9F8040004F190
:103290004002417C04F15C030229646524672262D8
:1032A00063621AD001291ED140684FF0010C01233E
:1032B0001EE047B148F60F50C0F60000294602F064
:1032C000DBFD002464E048F69460C0F6000002F0E4
:1032D000D3FD00245CE000245AE040684FF0010C6C
:1032E00030F8023B04E0406830F804CB30F8023C90
:1032F0000288A4F830C06386A286D9F804009946F3
:1033000001688068E163016806F19C00A842664696
:10331000A16302921AD2C8F80000019842F29451B7
:103320000BEB0A059C30C2F20001086028462421FC
:10333000FCF774FF05F114002B1D05F11C0105F1CC
:10334000200207C34FF4407028820FE03FB148F6D7
:103350000F50C0F60000294602F08EFD05E048F649
:103360009460C0F6000002F087FD0025206A029AF2
:10337000C560032068746868A16B0680A0F802909D
:1033800082800820A874D5E9020201600020106044
:10339000204603B0BDE8F08F10B54268917C10293B
:1033A00028D1D2E9004E90F90CC0507CBEF8002024
:1033B00002280CD398BF02204342AEF1020000BFA6
:1033C000818801334A43591C00F10200F8D12AB91F
:1033D00026E000BF013A04F1020421D0B4F9000054
:1033E000B0F1FF3FF6DC00FB0CF000EB5060C009D1
:1033F0002080EFE7D2E9001E90F90CC0507CBEF8A7
:10340000002002280BD398BF02204342AEF10200F5
:103410008488013362435C1C00F10200F8D12AB9B0
:10342000002010BD013A01F10101F9D091F900002D
:10343000B0F1FF3FF6DC00FB0CF000EB5060C00980
:103440000870EFE72DE9F04F8FB01746DDF86C906C
:10345000DDE9194B0022B2EB930F069000930D911A
:1034600000F00A810120A040401007F001024FEA5D
:10347000930A7E08CDE90202C0175D4601900496CA
:10348000394605976CE000BF0D99B2F9000091F93B
:103490000020DDF8309042439B181E4691F9013020
:1034A00049EBE27903FB00F291F90230089D1CEB35
:1034B000020C45EBE27503FB00F2BF1848EBE27823
:1034C00091F903203346504304312418049E4EEBF7
:1034D000E07E0D91A3463946199CAAF1010AC4F178
:1034E000200223FA04F009FA02F31843B4F120038E
:1034F00058BF49FA03F0DDF8289000F30F0029F8CF
:10350000080B2CFA04F005FA02F73843002B58BFD9
:1035100045FA03F000F30F0029F8060C21FA04F035
:1035200008FA02F73843002B58BF48FA03F000F3BB
:103530000F0029F8040C2BFA04F00EFA02F21043E3
:10354000002B58BF4EFA03F00599099DDDF868B0CD
:1035500000F30F005FEA0A4229F8020C00F08E80A7
:10356000BBF1000FCDF828901CD095F90000189BF6
:103570000299984042180E924FEAE27B95F9022098
:1035800095F901009A40571895F9032098409A4000
:1035900000EB010C54184FEAEC79F81704354FEAA8
:1035A000E47E0CE0DDF80880DDF804B04446DE4639
:1035B00042465846C446D946CDF838804746002E84
:1035C000099549D0069A0D99CDF81CA0E24680468F
:1035D000CDE90C4732F9044B11F9087B0B9232F913
:1035E00002CC11F9072C704611F906EC11F9055CB3
:1035F00067430EFB0C77864602FB04F005FB0C00CC
:1036000011F9045C11F9022C11F9033C654302FB2A
:103610000C5211F9015C634305FB0C330E9D013E16
:10362000ED194BEBE77BDDE90C471AEB000A49EBA0
:10363000E079BF1848EBE2780B9AE4184EEBE37E92
:1036400030040E95C4D1D446DDF81CA0CDF830B0BE
:10365000CDF820900D9105E0069ACDF830B0CDF868
:103660002090804603980E9B00287FF40DAF049EA7
:10367000089DDDF830902DE75D463946009810F042
:10368000030841D001220698A2404FEA620CA0F143
:10369000020A14E0C4F1200223FA04F006FA02F24E
:1036A0001043B4F1200258BF46FA02F000F30F00B5
:1036B000A8F101085FEA084229F8020B24D0BBF107
:1036C000000F07D015F9012B1898824002EB0C036C
:1036D00001E000BF634600294FEAE376DAD00D9897
:1036E000AE46451E52460C4632F9027F15F9010FCF
:1036F00078431B1846EBE076013CF5D10D98199CF8
:10370000084475460D90C5E70FB0BDE8F08F000086
:103710000020704710B5D0E90EE201469268D0E96A
:1037200010C3806C1268CC681044226AC01AD26838
:1037300048659068DEF808200468D2F800E0E31AD3
:1037400073440B65DCF80830006812681B6810448D
:10375000C01A0A8E4B8EC86502EB420458004FEA2D
:10376000820C00EBC400C1E90A0C98180A2303EB91
:103770008000424300204A6310BD00002DE9F04F55
:1037800091B08146406CB9F830E00A90D9F80C004D
:10379000B9F832200069D9F818100068D9F820B0BB
:1037A0000768D9F824600EEB4E00002307EBCE0C1F
:1037B00007EB0E18B3EBD20F07EBC000109737D012
:1037C000D708034611F8085B013F4FEA052523F8A7
:1037D000105B11F8075C4FEA052523F80E5C11F821
:1037E000065C4FEA052523F80C5C11F8055C4FEAEE
:1037F000052523F80A5C11F8045C4FEA052523F837
:10380000085C11F8035C4FEA052523F8065C11F803
:10381000025C4FEA052523F8045C11F8015C4FEACD
:10382000052523F8025CCDD112F0070204D10DE08A
:10383000034612F0070209D00139023B11F8017F5B
:10384000013A4FEA072723F8027FF7D106EB4E0132
:10385000D9F840300E91D9F83810B9F83070B9F86D
:103860005C501B6809960968B9F83220BF00B9F8A6
:1038700050600835ADB20293BBB24FEACE04CDE939
:103880000056CDF80CC07546FFF7DCFDD9F83C00BA
:10389000B9F830200168B9F8540093004FF0000ADD
:1038A000CDE900A09BB25846CDF808A0CDF80C8019
:1038B000FFF7C8FDB9F83000CDF83C90CDF81CB04A
:1038C000CDE90C54F0B1109948F20007800002399C
:1038D0002A0147F6FF73CFF6FF7700BF0E198D1848
:1038E000B6F90260B5F902502E449E42A8BF1E46AA
:1038F00016F5004FD8BF3E46013821F8026FEDD1D2
:10390000B9F830A010990AEB4A00BAF1000F01EBA8
:1039100040000B9000F0AF800C98109F8000059045
:1039200007EB4A000A9A08904FEA4A000690C2F153
:10393000070080B240F2FF7121FA00F9101D48F231
:10394000EC7B07EB8A0E09F1010C80B2C0F6000B8C
:103950003C4612E091B25A1C01EA0901D2B23BF98D
:103960001220ACEB01036B4302FB013141FA00F37F
:103970003B80BAF1010A27460AD034F9022B42FAF9
:1039800000F3D9B23BF911507F2BE3D1ABB2EFE793
:103990000F990C8E002C6ED0089F3D4612E000BFA0
:1039A00089B2013201EA0901D2B23BF91220ACEB33
:1039B0000106734302FB013141FA00F33B80013CF5
:1039C0002F460AD035F9021B41FA00F2D3B23BF977
:1039D00013307F2AE4D19BB2F0E70F990C8E002CB4
:1039E00049D00B9D2F4611E089B2013201EA09014D
:1039F000D2B23BF91220ACEB0106734302FB01315A
:103A000041FA00F32B80013C3D460AD037F9021BF6
:103A100041FA00F2D3B23BF913307F2AE4D19BB2D2
:103A2000F0E70F990E8E36B348F6EC14DDF83CA0A3
:103A3000C0F60004774613E089B2013201EA0901B9
:103A4000D2B234F91220ACEB01056B4302FB013119
:103A500041FA00F3AEF80030013EBE4600F084802B
:103A600037F9021B41FA00F2D3B234F913307F2A3E
:103A7000E2D19BB2EEE7DDF83CA0DDF834B00022E5
:103A80000E994046FCF77FFBBAF83000002867D05B
:103A9000DAF84C2040F2FF73C2F1070189B223FA31
:103AA00001FE043248F6EC160EF1010C93B2C0F69A
:103AB0000006454613E000BF92B2013402EA0E024E
:103AC000E4B236F91440ACEB0201794304FB021175
:103AD00041FA03F7A8F800700138A8460AD035F972
:103AE000022B42FA03F4E7B236F917707F2CE3D1C8
:103AF000BFB2EFE7BAF8301091B309984CF2000C5E
:103B0000851E1098CBF6FF7C00EB4B00831E0B98B4
:103B100047F6FF7E871E284637F9024F33F9022FFA
:103B2000624302F58044E613764547F6FF76B8BF58
:103B3000E6136245BCBF48F20006CFF6FF760139B6
:103B400020F8026FE8D1BAF8300048B1DAF81C105A
:103B5000013900BFEA780235013801F8012FF9D1A7
:103B6000002011B0BDE8F08FBAF83010DDF834B0A5
:103B700000293FF484AFDAF84C00109EC0F1160023
:103B800082B2012090404310059806EB4000A0F15E
:103B9000020C069806EB4000871E023E604600BFFE
:103BA00036F9024F37F9025F013905FB043545FA52
:103BB00002F505F30F0520F8025FF1D1BAF83020C5
:103BC000002A3FF45CAF09980C99841E07984CF2C8
:103BD000000E00EB4100861E0898CBF6FF7E871E84
:103BE00047F6FF79214600BF37F9025F36F9023FF9
:103BF0006B4303F58045E813484547F6FF70B8BFAF
:103C0000E8137345BCBF48F20000CFF6FF70013ADD
:103C100021F8020FE8D1BAF83020002A3FF42FAF84
:103C20000E9848F20006831E47F6FF77CFF6FF7620
:103C30003CF9020F34F9021F0844B842A8BF3846C5
:103C400010F5004FD8BF3046013A23F8020FEFD1EC
:103C5000BAF83000420013E78CB042F20001C4F21F
:103C6000020108684EF60C5540F01000CEF2000537
:103C7000086028684FF6FF02104040F20032C0F2A0
:103C8000FA52104340F204042860C2F20004226891
:103C900044F6D350C1F26200A2FB00234FF0FF3282
:103CA00002EB93170023B3EB176F24D14EF20016EB
:103CB000CEF2000646F8EC7CF027EF75072746F8B1
:103CC000E83C46F8F07C2F68C7F3022787F0070628
:103CD000042E28BF0426033F38BF1F46B2400F23DF
:103CE00023EA0202BA401201EA7542F28C52C2F291
:103CF00000020123137041F21808C4F20208D8F838
:103D00000020042742F00102C8F80020D8F8002063
:103D1000C4F2010702F001020892089AD8F80420C0
:103D2000022342F08052C8F80420D8F8042002F0A0
:103D300080520892089A3A6863F31A623A6058F817
:103D4000142C02F00C02042A4FD158F8182C58F801
:103D5000142C02F00C02082A65D158F8142C02F435
:103D60007412B2F5E81F40F08C800A6812F0060F5A
:103D70000AD10A68022363F302020A600A6802F0A9
:103D80000702022A40F0B48058F8142C42F4E06292
:103D900048F8142C58F8142C42F4605248F8142CAB
:103DA00058F8142C22F0F00248F8142C58F8182C6B
:103DB000920140F19D8058F8142C022363F3010214
:103DC00042F2905648F8142CC2F20006326841F2D2
:103DD000883300BF58F8147C07F00C07082F54D024
:103DE0003768BF1A9F42F5D982E058F8142C02F0C8
:103DF0000C02082A03D158F8142CD203A5D458F881
:103E0000182C42F4803248F8182C42F29052C2F238
:103E10000002136858F8187CBF0398D41768FF1A7B
:103E2000642FF7D92DE06023C4F2422300221A60E8
:103E300042F29052C2F20002176800BF58F8186CA4
:103E4000B60104D51668F61B022EF7D919E058F80A
:103E5000147C27F4003748F8147C58F8147C27F4B5
:103E6000741707F5E81748F8147C01271F601368DA
:103E700058F8187CBF013FF578AF1768FF1A022F7A
:103E8000F6D9EFF3108072B6FEE70A6802F0070277
:103E9000032A09D30A68022363F302020A6009684D
:103EA00001F00701022923D158F8141C042262F3FF
:103EB0000A2148F8141C58F8141C21F4605148F8E1
:103EC000141C58F8143C03F00C01082941F200219D
:103ED000C0F27A011BD1C3F383420FF65C67BA5C70
:103EE000DB030AD440F60011C0F23D0151430EE05D
:103EF000EFF3108072B600BFFEE758F8143C0FF6DF
:103F00004867C3F34043FB5C5143B1FBF3F158F8FE
:103F1000142C0FF63863C2F303129A5C4EF20013AE
:103F200021FA02F2A2FB00014FF0FF3000EB9111E9
:103F30000027CEF20003B7EB116F226028D142F2C6
:103F40008C50C2F20000027843F8EC1CF021E975B5
:103F50000721012A43F8E87C43F8F01C18D12968AE
:103F60004FF0FF33C1F3022181F00702042A28BF7A
:103F70000422033903FA02F24FF00F0338BF002185
:103F800023EA020202FA01F10901E9750121017037
:103F90000B97D8F8000040F6004B40F02000C8F81E
:103FA0000000D8F80000C4F2010B00F020000390DC
:103FB0000398D8F800004FF4003240F00400C8F82D
:103FC0000000D8F80000ABF5806900F00400039011
:103FD0000398D8F8000008AC40F00800C8F80000CA
:103FE000D8F800004FF0010A00F008000390039891
:103FF0004FF61040CFF6FF704BF800204FF4805082
:10400000CBF810000020C1F21100CDE909074846A5
:104010002146CDF820A0FCF7E5F9022648462146C6
:10402000CDE9086ACDE90A76CDF80890FCF7DAF90F
:104030000320CDE90807584621460A97FCF7D2F934
:104040004FF4805958462146CDE9089ACDE90A76C1
:10405000FCF7C8F958F8040C4EF2001240F00100C9
:1040600048F8040C58F8040CCEF2000200F00100ED
:1040700008900898286882F80C73C2F800902868A5
:104080004EF20E40CEF200004FF4804107701160F6
:104090002968C7704FF40030106042F22C400BF5D5
:1040A0003051C2F200000C254FF4E13680E8C20026
:1040B000C0E90377C0E90557C761FDF7EBF820B108
:1040C000EFF3108072B600BFFEE743F6000AC4F2B9
:1040D000000A42F274400AF54061C2F20000002476
:1040E000C0E90016C0E90244C0E90445C0E906443D
:1040F000FDF7D0F818B1EFF3108072B6FEE742F288
:10410000BC400AF58051C2F200000C234FF4E132AA
:1041100080E81600C0E90344C0E90534C461FDF736
:10412000B9F820B1EFF3108072B600BFFEE742F29B
:10413000B824C2F200044FF4827100254FF40070DD
:104140000A22C4E900A1C4E90255C4E90455C4E93E
:104150000605C4E90855C4E90A5294F851206AB129
:10416000002201920022002600924FF0000B4FF037
:10417000000E4FF000090023524641E084F85050F1
:104180000A95D8F8040040F6004640F48040C8F88C
:104190000400D8F804000DF1200900F480400390D9
:1041A0000398D8F80000C4F2010640F00800C8F8EF
:1041B0000000D8F80000494600F00800039003987A
:1041C0004FF4204008900220099003200B903046C5
:1041D000FCF708F94FF48040CDE908053046494620
:1041E0000A95FCF7FFF8E66904F1080E0096266AC6
:1041F000D4E900219EE80842D4E905B00196A66AF8
:104200004FF0020C84F851C001F4827103F40443AE
:104210001768194409F4006319440EF0020327F0EB
:10422000400719440BF001031760194400F40073B0
:104230001944009B03F038031944019B03F08003E9
:10424000194306F4005319431160042101EA104098
:104250005060D06941F6802120F40060D0610120D7
:10426000656584F8510042F264240AF5E050C2F218
:1042700000044FF48042C0F2060184E82300C4E940
:104280000352C4E90555C4E90755FCF7AFF920B15D
:10429000EFF3108072B600BFFEE740F60040C4F2B4
:1042A000010000F5005B42F210300021C2F2000074
:1042B000592280230691CDE90411C0E900B1C0E97B
:1042C0000212C0E904118361FCF790FA18B1EFF310
:1042D000108072B6FEE74FF48050039042F2103027
:1042E000C2F2000003A9FCF76DFB20B1EFF31080D0
:1042F00072B600BFFEE742F21036C2F20006304648
:10430000FCF71EFD18B1EFF3108072B6FEE796F8C9
:104310003C00012803D1EFF3108072B6FEE70220C3
:1043200086F83D00306855464268816822F0700288
:10433000426040F2FF72C4F2000240F2004A904232
:10434000C4F2000A05DCB0F1804F0ED050450CD00D
:104350000EE042F60042C4F20102904205D040F65F
:104360000002C4F20002904202D121F0800181607B
:10437000012186F83D10016A026A6FF0020722F0FF
:104380000102026242688369584508BF6FF00E0758
:1043900008BF22F4407243F06003394023F0130356
:1043A000426000228361426301628169504541F0AD
:1043B00008018161816921F0040181618169816164
:1043C0004FF4005186F83C2041640B92CDE909225C
:1043D00008921CD042F60041C4F2010188423CD14F
:1043E000D8F8000008A940F00400C8F80000D8F888
:1043F000000000F00400079007984FF480700890C8
:10440000022009900B900298FBF7ECFF25E0D8F80A
:10441000000008A940F00800C8F80000D8F8000023
:1044200000F00800079007981020089002200990DB
:104430000B9040F60040C4F20100FBF7D3FF0422CA
:10444000C4F2010210684FF2FF31CFF6FF010840BD
:1044500040F0E06040F40060106042F2583000210B
:10446000A5F55052C2F200004FF6FF730691CDE958
:104470000411C0E90021C0E9021301618161FCF768
:10448000B5F918B1EFF3108072B6FEE74FF4805023
:10449000039042F25830C2F2000003A9FCF792FAEE
:1044A00018B1EFF3108072B6FEE742F25830C2F254
:1044B0000000FCF745FC18B1EFF3108072B6FEE780
:1044C00042F25830C2F2000090F83C00012803D1BB
:1044D000EFF3108072B6FEE742F258310220C2F2CA
:1044E000000181F83D00086840F2FF73426881686E
:1044F000C4F2000322F070029842426005DCB0F181
:10450000804F0ED050450CD00EE042F60042C4F26F
:104510000102904205D040F60002C4F2000290422F
:1045200002D121F08001816042F258320121C2F2B1
:10453000000282F83D10002182F83C10026A036AF2
:104540006FF0020623F00103036243688769584550
:1045500047F0600708BF6FF00E0602EA060227F078
:10456000130708BF23F4407343608761416302620D
:104570008269504542F008028261826922F0040299
:104580008261826982610B91CDE9091108911CD089
:1045900042F60041C4F2010188423CD1D8F8000043
:1045A00008A940F00400C8F80000D8F8000000F0A6
:1045B0000400079007984FF480700890022009903B
:1045C0000B900298FBF70EFF25E0D8F8000008A931
:1045D00040F00800C8F80000D8F8000000F008001B
:1045E0000790079810200890022009900B9040F641
:1045F0000040C4F20100FBF7F5FE0422C4F2010200
:1046000010684FF2FF31CFF6FF01084040F0E06044
:1046100040F40060106042F2A0300021C2F20000BD
:1046200040F2E7370B91CDE90911A5F5405240F270
:10463000CF23C0E9021701618021C0E90023816115
:10464000FCF7D4F818B1EFF3108072B6FEE742F22F
:10465000A0364FF48050C2F20006089008A93046F8
:10466000FCF7B0F918B1EFF3108072B6FEE796F8D8
:104670003C00012803D1EFF3108072B6FEE7022060
:1046800086F83D00306840F2FF7342688168C4F2EA
:10469000000322F070029842426005DCB0F1804FC6
:1046A0000ED050450CD00EE042F60042C4F201029A
:1046B000904205D040F60002C4F20002904202D1BE
:1046C00021F08001816042F2985240F2DA1101201B
:1046D000C2F20002C2F2000186F83D00116042F20F
:1046E0009C51C2F20001087042F2A0500025C2F2B3
:1046F000000086F83C500560FBF778FF6B208021B6
:10470000FCF74EFF6B200021FCF74AFF1B2008211D
:10471000FCF746FF1C200021FCF742FF192009216D
:10472000FCF73EFF1A200321FCF73AFF3820002156
:10473000FCF736FF6A200021FCF732FF232000211E
:10474000FCF72EFF37208021FCF72AFF42F2905021
:104750008DF81C500395C2F20000006894F83D10DB
:10476000202940F0428123689969890718D542F2CF
:104770009051C2F200010968091A1A29F4D3996903
:104780008907F1D500202021206384F83D1084F8AA
:104790003E00216C41F02001216484F83C0024E1BA
:1047A00094F83C10012900F02081012184F83C108C
:1047B0001A68D20703D11A6842F001021A601A6817
:1047C000274622F400621A60222284F83D2040220B
:1047D00084F83E200022226407AA62626185628D0D
:1047E0000021CFF6FF712285E162196841F48061F2
:1047F0001960196841F48071196021685F69FF07C9
:1048000020D142F29057C2F200073F683F1AB7F535
:10481000805FF3D34F69FF07F0D10020202220638F
:1048200084F83D2084F83E00226C234642F02002AA
:10483000226484F83C000868C00544BF4FF400704F
:104840002064D2E0D0230B614B699B070FD44B69E6
:104850005B053CD442F29053C2F200031B681B1A62
:10486000B3F5805FF0D34B699B07EDD48AE7002353
:1048700008934B6908938B690893089B4B691B0647
:104880000FD44B695B0558D442F29053C2F2000337
:104890001B681B1AB3F5805FF0D34B691B06EDD480
:1048A00013E075230B614B691B0622D44B695B0532
:1048B00043D442F29053C2F200031B681B1AB3F5B3
:1048C000805FF0D34B691B06EDD4202039E00868E7
:1048D00040F4007008606FF480604861002020217F
:1048E000206384F83D1084F83E00216C41F00401FF
:1048F00052E70B6843F480730B6023684F69FF072E
:1049000033D142F29057C2F200073F683F1AB7F521
:10491000805FF3D35F69FF07F0D10020202120637F
:1049200084F83D1084F83E00216C224641F02001BD
:10493000216484F83C0018687EE76FF48060486169
:10494000042000222023226384F83D3084F83E2096
:10495000236C1843206484F83C20206C042844D144
:10496000086840F4007008603FE0D121196159697E
:10497000890710D45969490523D442F29051C2F2F3
:1049800000010968091AB1F5805FF0D359698907F8
:10499000EDD420201DE0022A00F08A85012A00F0D3
:1049A0009C85002A40F0AE85002108915969089144
:1049B000996908910899196841F40071196000F02B
:1049C000ACBD186840F4007018606FF480605861E6
:1049D000042000212022216384F83D2084F83E1029
:1049E000226C1043206484F83C1042F29050C2F2D2
:1049F0000000006842F29051C2F200010968091AF1
:104A00006529F7D39DF81C500FF61450294601F084
:104A100033FA682D17D16B200121FCF7C1FD6C2002
:104A20000021FCF7BDFD19200921FCF7B9FD1A2072
:104A30000321FCF7B5FD23200121FCF7B1FD38204F
:104A40000121FCF7ADFD0FF6EC4000210422032309
:104A500001F012FA42F2DC14C2F20004204688216E
:104A6000FBF7DCFB45F2A170C0F6000045F2D971FE
:104A700045F6211245F62D1345F2997704F1080CFD
:104A8000C0F60001C0F60002C0F60003C0F6000741
:104A90008CE88F0046F26C30C0F60000FEF7B2FBE7
:104AA00042F2A051C2F200010A6842F29C51C2F2E5
:104AB00000010F78E46802F1A403002F394618BF03
:104AC0004FF400518B4280466ED242F29850C2F2AF
:104AD0000000006842F2A051C2F2000100284FF02D
:104AE00000050B606FD042F29451C2F200010B68D6
:104AF000861803F1A40008603046A421FBF78EFB62
:104B000006F1600006F17C01C6E9080142F2B93005
:104B1000C0F6000042F26D1142F2B53306F1040C0A
:104B2000C0F60001C0F600038CE80B0046F2E84036
:104B3000C0F60000B0610120C0F203004FF0011187
:104B40000422C6E90C01032032770122C0F20100E1
:104B500086F8782086F8942086F8A020B063C6F8FE
:104B60004210A6F846201E2086F8482046F29041C2
:104B700046F2CC4246F2E04346F2E44706F14C0CE2
:104B8000C0F60001C0F60002C0F60003C0F6000740
:104B90008CE88F004FF48030A6F840503546766799
:104BA000C6F89060F0630EE037B148F60F50C0F6DB
:104BB000000001F061F905E048F69460C0F60000DD
:104BC00001F05AF9002528464146A04742F2DC117F
:104BD000C2F200018C6942F2A051C2F200010A68DF
:104BE00042F29C51C2F200010F7802F11003002F33
:104BF000394618BF4FF400518B42064623D242F289
:104C00009850C2F20000016842F2A050C2F20000C7
:104C100003604FF0000029B342F29453C2F2000344
:104C20001F68114407F110021A608860C86048606C
:104C300043F29930C0F60000086002200872262076
:104C4000087308460EE037B148F60F50C0F6000072
:104C500001F012F905E048F69460C0F6000001F09A
:104C60000BF900203146A04742F2DC11C2F20001EC
:104C7000D1F80CB042F2A051C2F200010A6842F22F
:104C80009C51C2F200010F7802F16003002F3946F7
:104C900018BF4FF400518B42814644D242F29850E3
:104CA000C2F20000006842F2A0510028C2F20001E6
:104CB0000B6059D042F29451C2F200010B68841883
:104CC00003F16000086004F10C005421FBF7A6FA20
:104CD00043F27D70C0F6000043F2157143F2117289
:104CE000C0F60001C0F6000284E8070046F6D8309E
:104CF000C0F6000020610A2046F6C43146F6CC1208
:104D000046F67C3320860320C0F60001C0F6000280
:104D1000C0F6000307272075C4E90E23C4E910106C
:104D2000C4E9127021E0CFB148F60F50C0F6000080
:104D300001F0A2F818E000BF020304050607080905
:104D40000A0B0C0D0E0F10100102000000000000F5
:104D500000000000010203040607080948F69460F9
:104D6000C0F6000001F088F8002442F2A05042F2A0
:104D70009C51C2F20000C2F2000100680B7800F101
:104D80008402002B194618BF4FF400518A424AD2C0
:104D900042F29851C2F20001096842F2A053C2F2F5
:104DA000000300294FF000071A604BD042F29452E2
:104DB000C2F2000213680E1803F18400106030463E
:104DC0008421FBF72BFA06F1400006F15C01C6E9ED
:104DD000080145F6E530C0F6000045F6B51145F688
:104DE000D53506F1040C0B23C0F60001C0F6000512
:104DF0008CE8230046F6F83006F178023377012379
:104E000086F83C70C0F60000374686F8583086F8C1
:104E1000743086F880307665366732617387B061AA
:104E20003463E6600EE033B148F60F50C0F6000080
:104E300001F022F805E048F69460C0F6000001F0A9
:104E40001BF8002738464946D84742F2DC11C2F227
:104E50000001CC6842F2A051C2F200010A6842F29D
:104E60009C51C2F200010E7802F16803002E314617
:104E700018BF4FF400518B42074639D242F2985086
:104E8000C2F20000006842F2A051C2F200014FF0ED
:104E900000060B60D8B342F29451C2F200010B68D5
:104EA000851803F16800086028466821FBF7B6F909
:104EB0001A2205F1300005F14C012A7742F6ED7215
:104EC00042F6B963C0F60002C0F60003C5E9080166
:104ED00046F60040C5E90123012285F86460C0F66A
:104EE00000002E4685F848206D642D66A8610EE00E
:104EF00036B148F60F50C0F6000000F0BDFF05E0E7
:104F000048F69460C0F6000000F0B6FF0026304678
:104F10003946A04742F2DC11C2F20001CC6842F2ED
:104F2000A051C2F200010A6842F29C51C2F2000193
:104F30000F7802F18803002F394618BF4FF4005153
:104F40008B42054658D242F29850C2F200000068E7
:104F500042F2A0510028C2F200010B605AD042F286
:104F60009451C2F200010B68861803F188000860B2
:104F700030468821FBF752F906F1440006F1600142
:104F8000082306F17C0233770123C6E9080142F6C3
:104F90002D4042F6112186F85C3086F8783086F88C
:104FA0008430C0F60000C0F6000142F6294306F145
:104FB000040C326148F27452C0F600038CE80B0016
:104FC0000D2048F2A051C0F60002C0F6000148F2E0
:104FD000B45348F2B857C6E90C0206F13800C0F6DF
:104FE0000003C0F600078AC048F2BC50C0F60000BB
:104FF000B6657667B0610EE037B148F60F50C0F67F
:10500000000000F039FF05E048F69460C0F60000AB
:1050100000F032FF002630462946A04742F2DC115C
:10502000C2F20001CC6842F2A051C2F200010A684B
:1050300042F29C51C2F200010F7802F16803002F86
:10504000394618BF4FF400518B42054636D242F222
:105050009850C2F20000006842F2A051C2F2000172
:105060000B60C8B342F29451C2F200010B6886187B
:1050700003F16800086030466821FBF7CFF8122280
:1050800006F1300006F14C01327745F6B55245F68F
:105090008943C0F60002C0F60003C6E9080148F2E1
:1050A000D450C6E901230122C0F6000086F848204A
:1050B00086F8642076643666B0610EE037B148F653
:1050C0000F50C0F6000000F0D7FE05E048F69460EF
:1050D000C0F6000000F0D0FE002630462946A0476A
:1050E00042F2DC1148F2F856C2F20001C0F60006A6
:1050F000CC6805463046FEF785F860B1032101779C
:1051000045F6691142F6D502C0F60001C0F600026C
:105110008661C0E901122946A04706460120B8F180
:10512000000F08900FD042F2DC10C2F20000C0F86D
:1051300000804660A6B9D8F82400006850B14069E4
:105140008046406AF9E748F62D70C0F6000001F08D
:10515000EBF81FE142F2DC10C2F20000C0F804805C
:1051600048F64340C0F6000000210422032300F06B
:1051700083FE48F64B60C0F6000001F0D5F848F613
:10518000C950C0F6000001F0CFF842F29C50C2F2C4
:10519000000001780FF2B850002918BF4FF40051F9
:1051A00000F06AFE0FF2C85001F0BEF848F65870E1
:1051B000C0F6000001F0B8F848F6E955C0F6000561
:1051C000284601F0B1F842F2DC10C2F2000000689B
:1051D00008AA0146FCF700FC284601F0A5F8307F3C
:1051E00003280DD048F2006100EB4000C0F600013A
:1051F00001EB800148F6F430C0F6000000F03CFE00
:1052000048F6E740C0F6000000F036FE42F2DC103F
:10521000C2F2000000F1180400260FF270570025BA
:1052200054F80C2F38462946164400F025FE013567
:10523000082DF5D148F67C40C0F60000314600F05C
:105240001BFEB00726F00300314618BF011D88077A
:1052500021F003000A4618BF021D42F2A05042F29C
:105260009C53C2F20000C2F2000300681F7883184A
:10527000002F3A4618BF4FF40052934258D242F2E0
:105280009852C2F20002126842F2A057002AC2F2FB
:1052900000073B605BD042F29453C2F200031F68E8
:1052A00016187D1830461D60FAF7B8FF48F65A40C8
:1052B000C0F60000294600F0DFFD0020002142F288
:1052C000DC12C2F2000213185A6A2AB10C307718A5
:1052D000602811441F62F2D142F2DC10C2F20000D9
:1052E0000068E0B3016A31B1D1E9033212681A6093
:1052F00089680029F8D1416A31B1D1E903321268D5
:105300001A6089680029F8D100680028EAD142F2C1
:10531000DC10C2F20000006808B3014601E0096831
:1053200041B34A69002AFAD04B6ADB685360F6E75A
:105330003FB148F60F50C0F60000114600F09CFD4A
:1053400005E048F69460C0F6000000F095FD48F6D0
:10535000A840C0F60000314600F08EFD1AE048F685
:105360002D70C0F6000000F0DFFF42F2DC10C2F248
:10537000000000680021002230B1836A0068C9186B
:1053800042F100020028F7D142F2DC10C2F2000024
:10539000C0F8801042F2D450C2F2000000214181D6
:1053A00042F2A450C2F20000642201230027C61971
:1053B0001037302FB26033713173F8D141F285511B
:1053C000C0F60001016041F29951C0F6000101618F
:1053D00041F29D51C0F6000101623221018100219C
:1053E0001E22A0F80B100283A0F81B100285A0F863
:1053F0002B1042F25830C2F2000090F83D00012814
:105400002CD142F258310220C2F2000181F83D0055
:10541000086840F2FF72C168C4F2000241F0010165
:105420009042C16005DCB0F1804F0ED050450CD0E9
:1054300010E042F60041C4F20101884205D040F676
:105440000001C4F20001884204D1816801F0070123
:10545000062903D0016841F00101016042F2744065
:10546000C2F2000090F84200202820D142F274429B
:1054700040F2D7110020C2F20002C2F20001106314
:10548000916201219185D1855064222082F84200E9
:105490001169106819B1C16841F48071C160416936
:1054A00041F001014161C16841F02001C160FEE7A6
:1054B000196841F400611960EFF3108172B60021A0
:1054C000089121684A6908928A690892089A0A68CC
:1054D00022F480620A6062B61FE0196821F48061DC
:1054E0001960EFF3108172B60021089121684A69B2
:1054F00008928A690892089A0A6842F400720A605F
:1055000062B60AE0196841F48061196000210891CF
:1055100059690891996908910899238D002B00F029
:10552000DC804BF2895CC1F2F84C23229BB2032B46
:1055300019D8022B48D0012B58D123685F697F0608
:1055400066D45F69FF0600F1D08042F29057C2F244
:1055500000073F683F1AB7F5805FEFD35F697F06AA
:10556000ECD4FFF70FB923685F697F0611D45F6938
:10557000FF0600F1BA8042F29057C2F200073F687E
:105580003F1AB7F5805FEFD35F697F06ECD4FFF772
:10559000F9B81B69676A21463B70636A26685F1C1D
:1055A000238D6762013B2385658D013D65857569A6
:1055B0006D0740F18F809BB2032B03D1336823F436
:1055C0008063336033697AE023685F697F0722D4A0
:1055D00042F29057C2F200073F683F1AB7F5805F6A
:1055E000F3D35F697F07F0D4FFF7CCB823685F6916
:1055F0007F0727D442F29057C2F200073F683F1A54
:10560000B7F5805FF3D35F697F07F0D4FFF7BAB8CF
:105610001B69676A53E0EFF3108372B62368676A09
:105620001E68254646F400761E601B693B70636A5F
:10563000278D013363627B1E2385638D013B638568
:1056400062B639E01F68254627F480671F60EFF3D4
:10565000108372B62368676A1B693B70636A268D84
:105660000133013E636226852768668D013E6685AB
:1056700040F20406C2F200063668F608A6FB0C6586
:105680002E0A56430396039E013E0396039ECEB315
:105690007E697607F7D53E6846F400763E603F693E
:1056A00026461F70636A278D013363627B1E238544
:1056B000638D013B638562B62368676A1B693B7033
:1056C000636A278D013363627B1E2385678D2146C4
:1056D000013F67851F047FF429AF202084F83D0037
:1056E000002084F83E00FFF758B86FF010005861B2
:1056F00000202021206384F83D1084F83E00216CB6
:10570000FFF74AB800202021206384F83D1084F878
:105710003E00216C41F02001216462B6FFF73DB8E4
:105720000D0A4D5055363035303A30782532780DE7
:105730000A0000004D6F64656C2076657273696FB6
:105740006E3A2025642E25642E25640A0000000090
:10575000537461746963206D656D6F72792073692C
:105760007A652073657420746F3A2025640A0000FE
:10577000537461727420636F6D70696C696E672019
:105780006D6F64656C2E2E2E00000000626C6B5FE6
:1057900025643A2564202000024608464A61704785
:1057A00080B561B102689AB1506A00BF026812B157
:1057B0005069406AFAE7096A0160086009E048F642
:1057C000E960C0F6000000F0AFFDF92040B280BDF6
:1057D0000160002040B280BDF0B581B004460028D1
:1057E0004FF0000000F099800D46002900F09580F0
:1057F0006E6A7EB3306800283ED000BF37467668B8
:10580000002EFBD142F2A05242F29C51C2F20002A1
:10581000C2F2000110680E7800F10803002E314634
:1058200018BF4FF400518B4216D242F29851C2F287
:105830000001096800261360E9B142F29452C2F2F5
:1058400000021368084403F1080111604660066015
:10585000064610E000260FE036B148F60F50C0F6BD
:10586000000000F009FB05E048F69460C0F6000077
:1058700000F002FB00267E60206AC0B301680029A8
:1058800047D000BF074680680028FBD142F2A05CE9
:1058900042F29C51C2F2000CC2F20001DCF800009E
:1058A0000A7800F11C03002A114618BF4FF400517A
:1058B0008B421ED242F29851C2F200010968CCF824
:1058C000003021B342F29452C2F20002136808443D
:1058D00003F11C011160002141608160C160016120
:1058E0004161816101607969B860416111E0002026
:1058F0000FE032B148F60F50C0F6000000F0BCFADD
:1059000005E048F69460C0F6000000F0B5FA00200B
:10591000B860696A30600160204601B0F0BD0000E7
:1059200013460A46022100F001B8000082B0B0B56B
:1059300082B00692079378B10D46044606A8012965
:1059400001900ADB0198011D019101682046FFF7D3
:1059500043FF013DF6D100E00024204602B0BDE83F
:10596000B04002B07047000080B5D0E90812C06BAB
:10597000C968D2680968C2B1D2F804E0537CBEF8A5
:105980000020022B12D398BF0223C3F1000CAEF10A
:10599000020E00BFBEF804300CF1010C5A431CF19A
:1059A00001030EF1020EF5D100E00022FAF7EBFB45
:1059B000002080BD2DE9F04381B00446006A42F228
:1059C0009C58016842F2A059C968C2F200084A7C9A
:1059D0004B68022A88BF02331A88C2F20009228764
:1059E00098F80020C16094F83A30D9F80000002AF5
:1059F000114618BF4FF40051002B00F1200327D0AF
:105A00008B424DD242F29851C2F200010A68002145
:105A1000002AC9F800305AD042F29456C2F2000669
:105A20003768131807F120021F46184632601A46DD
:105A300047F8181F40F8141F1961196042F81C1F1D
:105A4000C3E901074FF400701946DA6018823EE09E
:105A50008B422DD242F29851C2F200010A68002115
:105A6000002AC9F8003042D042F29456C2F2000631
:105A70003768131807F120021F46184632601A468D
:105A800047F8181F40F8141F1961196042F81C1FCD
:105A9000C3E901074FF480701946DA60188226E0E6
:105AA00072B148F60F50C0F6000000F0E5F90DE0C5
:105AB000B2B148F60F50C0F6000000F0DDF915E075
:105AC00048F69460C0F6000000F0D6F90021238F5C
:105AD0004F68206B3B80626A038ED1607B800CE054
