:020000040800F2
:100000007006002001010008ED180008191500080D
:10001000E91800086D010008011D0008000000003B
:100020000000000000000000000000004D19000862
:1000300081010008000000001D1900088119000856
:100040001B0100081B0100081B0100081B01000820
:100050001B0100081B0100081B0100081B01000810
:100060001B0100081B0100081B0100081B01000800
:10007000710100081B0100081B0100081B0100089A
:100080001B0100081B0100081B0100081B010008E0
:100090001B0100081B0100081B0100081B010008D0
:1000A0001B0100081B0100081B0100081B010008C0
:1000B0001B0100081B0100081B0100081B010008B0
:1000C0001B0100081B0100081B0100081B010008A0
:1000D0001B0100081B0100081B0100081B01000890
:1000E0001B0100081B0100081B010008DFF80CD0F1
:1000F00000F02AF800480047791D0008700600202B
:100100000648804706480047FEE7FEE7FEE7FEE7B1
:10011000FEE7FEE7FEE7FEE7FEE7FEE7E919000877
:10012000ED000008D2B201E000F8012B491EFBD21D
:1001300070470022F6E710B513460A4604461946F2
:10014000FFF7F0FF204610BD064C074D06E0E068C3
:1001500040F0010394E8070098471034AC42F6D30E
:10016000FFF7C8FFDC1D0008FC1D0008FEE70000CB
:1001700080B540F21000C2F2000000F009F880BD26
:1001800070470000EFF3108072B600BFFEE700007A
:1001900010B50168D0E90FCEDCF800200B685C07D1
:1001A00026D5042404FA0EF4144021D00A689206DD
:1001B00003D40A6822F004020A602F22C4F2020269
:1001C000914240F20402C4F2020259DD3023C4F22B
:1001D000020399426CD04423C4F2020399426AD0CC
:1001E0005823C4F2020399426AD14FF480236FE08E
:1001F0009C0729D5022404FA0EF4144024D00A687E
:10020000920606D40A6822F00A020A60012280F8E7
:1002100021202F22C4F20202914240F20402C4F2D1
:10022000020239DD3023C4F20203994256D044233E
:10023000C4F20203994254D05823C4F202039942F3
:1002400054D14FF4003359E01B0758BF10BD0823A9
:1002500003FA0EF31A4012D00A6822F00E020A6066
:10026000012101FA0EF2CCF80420816380F82110FC
:10027000016B0022002980F8202018BF884710BD9C
:100280000823C4F20203994218D01C23C4F20203CB
:10029000994215D140231BE00823C4F2020399427E
:1002A00022D01C23C4F2020399421FD1202325E04F
:1002B0004FF480630CE04FF4804309E0042307E02F
:1002C00002F168044FF08063A14208BF4FF480033D
:1002D0001360C16A0029D2D0884710BD4FF4007363
:1002E0000CE04FF4005309E0022307E002F1680438
:1002F0004FF00073A14208BF4FF400131360816AEE
:100300000022002980F82020B9D0884710BD0000C5
:10031000014600284FF0010008BF70472DE9F04367
:10032000D1F800C04FF6F873CBF6FD734CF6CD4212
:100330006344CCF6CC42A3FB02236FF0030707EA29
:1003400093030027C4F2020701F10C09C1E90F73FE
:100350000223D1E9012E99E87002D1F81C8081F8BE
:100360002130DCF8003043F6F077BB431A4342EA11
:100370000E0222432A43324342EA090242EA0802B9
:10038000CCF8002000228A6381F8210081F8202027
:100390000020BDE8F04370472DE9F04F82B00E68B1
:1003A000002E00F0F38041F20042C4F20102042367
:1003B00040F2004E904208BF03234FF6FF7CC4F288
:1003C000010E009300240123C1F2100C4FF0000A2B
:1003D0004FF0000941E0012504F00C030F279F4076
:1003E0002BEA070705FA03F33B4342F826304E6831
:1003F00040F20C45F202DEF8082054BF22EA08025F
:1004000042EA0802C4F20105CEF808202A68B302C5
:1004100054BF22EA080242EA08022A60B303DEF867
:10042000042054BF22EA080242EA0802F303CEF88D
:100430000420DEF800204FF0010354BF22EA080236
:1004400042EA0802CEF800200E680AF1010A36FAE4
:100450000AF204F1040400F0998003FA0AFB16EA98
:100460000B08F1D04A68624510DC122A50D8DFE848
:1004700002F0330A41454F4F4F4F4F4F4F4F4F4FB1
:100480004F4F4F484C00D1F80C9041E04FF6FF75AC
:10049000C1F22105AA420FDC0025C1F21105AA42D2
:1004A0001AD00025C1F21205AA4215D00025C1F2CA
:1004B0002105AA4210D02BE00025C1F22205AA4254
:1004C0000AD00025C1F23105AA4205D00025C1F2AB
:1004D0003205AA421CD100BF8A6842B1012A14BF6A
:1004E000C0F814B0C0F810B04FF0080910E04FF099
:1004F00004090DE0CA6802F1080909E04FF000099B
:1005000006E0CA6802F1040902E0CA6802F10C09B7
:1005100022460546B8F5807F24BF203A04352E6870
:100520000F279740BE4309FA02F232432A60CA7984
:10053000D2067FF589AF41F21803C4F202031A68AC
:100540004FEA9A0642F001021A601A6840F6000368
:1005500002F001020192019AAEF57E7252F826B0C5
:10056000C4F2010398420FD040F60043C4F20103E5
:1005700098423FF430AF41F20003C4F20103009D02
:10058000984208BF022527E7002525E702B0BDE80D
:10059000F08F0000002A08BF0904016170470000C5
:1005A00040F26820C2F2000000687047F0B581B0E8
:1005B000B0B3044690F83D0028B9002084F83C0010
:1005C000204600F0BFF8242084F83D002068016830
:1005D00021F001010160016841F4004101600168FE
:1005E00021F40041016000F031FA48F28041C0F28C
:1005F0001E0140F60012656888424FF00001C0F20B
:100600003D0248F2A16C4FF0000338BF0121904237
:10061000C0F2010C38BF0123654538BF0B4613B14A
:10062000012001B0F0BD4DF68361C4F21B31A0FB87
:10063000011221684FEA924E4B684FF4967623F0F0
:100640003F0343EA92434B6044F6D3530F6A0EFBD9
:1006500006F6C1F26203A6FB033627F03F03B70993
:10066000654538BF970C7A1C1A430A62CA6948F27A
:10067000A0674CF6FF73C0F20107BD4222EA030CEB
:100680000AD801386A00B0FBF2F001306FF31F3076
:10069000042898BF04202BE0A368A0F1010E9BB1B1
:1006A00019206843BEFBF0F00422013062F31F30D2
:1006B000000512D09BB119206843BEFBF0F0042264
:1006C000013062F31F3011E005EB4500BEFBF0F096
:1006D00001306FF31F300005ECD1012008E005EB7D
:1006E0004500BEFBF0F001306FF31F3040F40040D6
:1006F00040EA0C00C8610868D4E9072320F0C00074
:10070000104318430860886848F2FF3204F10C0770
:1007100090438CCF18431043A6698860C86820F0C6
:10072000FF0038433043C860086840F001000860AB
:1007300000202021206484F83D10206384F83E00CE
:1007400001B0F0BD10B586B0006845F20041C4F2BA
:10075000000188424FF00000CDE90400CDE902001D
:1007600001D006B010BD41F21804C4F202042068A2
:1007700002A940F008002060206800F00800019005
:1007800001984FF4407002901220039003200590CE
:1007900040F60040C4F20100FFF7FEFD0420C4F261
:1007A0000100016841F0E06141F002010160606810
:1007B00040F400106060606800F40010019001983F
:1007C00006B010BD40F2040040F26821C2F2000001
:1007D000C2F2000100780A68104408607047000007
:1007E00080B542F20000C4F20200016841F010013D
:1007F0000160032000F066F80F2000F005F800F01B
:100800002BF8002080BD0000B0B540F20402C2F217
:10081000000240F200011278C2F200014FF47A7334
:100820000968B3FBF2F20446B1FBF2F1084600F0AE
:100830007DFB0F2C4FF001050CD858B94FF0FF305D
:1008400021460022002500F02DF840F20800C2F2F7
:10085000000004602846B0BD82B041F21800C4F226
:1008600002000168022241F001010160016801F00B
:10087000010101910199416841F080514160406856
:1008800000F08050009000980420C4F2010001683C
:1008900062F31A61016002B07047000080B501F098
:1008A00031FA80BD70B514460D46064601F03AFA9D
:1008B0002946224601F01CF80146304601F03AFA7A
:1008C00070BD000080B501F047FA80BD2DE9F0430E
:1008D00081B0002800F0898042F20008C4F20208CA
:1008E0000446D8F800000D4600F0070088420CD2FC
:1008F000D8F8000020F007002843C8F80000D8F816
:10090000000000F00700A8426FD1206841F20409FE
:100910008107C4F2020917D5410705D5D9F800109F
:1009200041F4E061C9F80010010705D5D9F80010BD
:1009300041F46051C9F80010D9F80010A26821F004
:10094000F0011143C9F80010C00745D1D8F80000E4
:1009500000F00700A8420CD9D8F8000020F00700EA
:100960002843C8F80000D8F8000000F00700A842AB
:100970003BD12068410707D5D9F80010E26821F47F
:10098000E0611143C9F80010000708D5D9F800004C
:10099000216920F4605040EAC100C9F8000000F06D
:1009A00079F8D9F8001041F6C452C1F30311C0F62A
:1009B0000002515C40F2000220FA01F140F208000E
:1009C000C2F200000068C2F200021160FFF71CFFD3
:1009D000002001B0BDE8F0836068022809D001283A
:1009E00029D159F8041C890307D4012001B0BDE8BE
:1009F000F08359F8041C8901F7D5D9F8001021F0CB
:100A000003010843C9F80000FFF7CAFD064641F29A
:100A1000883700BFD9F80000616800F00C00B0EB27
:100A2000810F93D0FFF7BCFD801BB842F2D90320A1
:100A300001B0BDE8F08359F8041C8907D5D5DCE77F
:100A400040F20000C2F200000068704780B5FFF776
:100A5000F7FF41F20401C4F20201096841F6D452E1
:100A6000C1F30221C0F60002515CC84080BD000005
:100A700080B5FFF7E5FF41F20401C4F20201096805
:100A800041F6D452C1F3C221C0F60002515CC84005
:100A900080BD000041F2040CC4F2020CDCF800300E
:100AA00003F00C00082841F20020C0F27A0018BFC1
:100AB0007047C3F383420AA18A5CD90305D440F688
:100AC0000010C0F23D0050437047DCF8001008A34E
:100AD000C1F34041595C5043B0FBF1F0704700BF97
:100AE00002030405060708090A0B0C0D0E0F10106F
:100AF000010200002DE9F04182B0002800F0C4801E
:100B00000446007841F20006C007C4F2020643D052
:100B1000706800F00C00042817D0706800F00C001A
:100B2000082802D17068C0030FD465682DB1B5F5EF
:100B3000A02F10D0B5F5803F11D0306820F4803060
:100B40003060306820F480200CE03068800323D5CA
:100B5000606808BB98E0306840F4802030603068FE
:100B600040F480303060FFF71BFD002D054610D0AB
:100B70003068800310D4FFF713FD401B6428F7D9B9
:100B800004E100BFFFF70CFD401B64284FF0030099
:100B900077D830688003F5D42078800718D570683E
:100BA00010F00C0F07D0706800F00C00082826D158
:100BB0007068C00323D43068800702D520690128FB
:100BC00062D13068616920F0F80040EAC10030600D
:100BD000207800073DD5A06938B30020C4F2422038
:100BE0000121C0F88014FFF7DBFC0546706A80071E
:100BF0002DD4FFF7D5FC401B0228F7D9C6E02069A9
:100C0000002840F20000C4F2422000F0968001214A
:100C10000160FFF7C5FC054630688007D1D4FFF7B7
:100C2000BFFC401B0228F7D9B0E00020C4F24220EC
:100C30000021C0F88014FFF7B3FC0546706A8007F6
:100C400007D5FFF7ADFC401B0228F7D99EE000F066
:100C500067FE207840071BD4E5698DB1706800F00D
:100C60000C00082847D1012D0ED07068216A00F4CD
:100C700080328A4208D1616A00F47010884203D140
:100C8000002002B0BDE8F081012002B0BDE8F08193
:100C9000F06910F0805808D1F06940F08050F061A0
:100CA000F06900F080500190019847F20007C4F20B
:100CB00000073868C00510D4386840F48070386088
:100CC000FFF76EFC054600BF3868C00505D4FFF786
:100CD00067FC401B6428F7D958E0E5681DB1052D75
:100CE0003CD0012D3ED0306A20F001003062306AE5
:100CF00020F0040039E00027C4F2422700203866C3
:100D0000FFF74EFC022D05460CD100BF3068800174
:100D100054D5FFF745FC401B02284FF00300F5D9DE
:100D2000AFE700BF30688001AAD5FFF739FC401B50
:100D300002284FF00300F5D9A3E700210160FFF777
:100D40002FFC0546306880077FF542AFFFF728FC8F
:100D5000401B02284FF00300F4D992E7306A40F0BC
:100D600004003062306A40F001003062FFF718FC86
:100D7000002D054641F2883714D000BF306A800745
:100D800013D4FFF70DFC401BB842F7D9032002B083
:100D9000BDE8F081FFF704FC401BB8424FF00300B0
:100DA0003FF66FAF306A8007F4D4B8F1000F7FF4DC
:100DB00053AFF06920F08050F0614DE7206AB0F544
:100DC000803F05D17168A26821F400311143716040
:100DD0007168626A21F47411104308437060012045
:100DE0003866FFF7DDFB0446306880013FF548AF09
:100DF000FFF7D6FB001B02284FF00300F4D940E7B1
:100E000070B538B10446406A30B10020206104F169
:100E1000140007E0012070BD6068B0F5827F03D048
:100E200004F11C00002101600026A66294F8510024
:100E300020B9204684F8506000F038F8022084F889
:100E4000510094E8071001F48271036802F404422F
:100E500023F040030360236911440CF40062114441
:100E600003F002026369114403F00102A369E5691A
:100E7000114403F40072114405F03802256A11444C
:100E800005F08002A56A114305F400521143016088
:100E9000042101EA13414160C16921F40061C1618B
:100EA0000120666584F85100304670BD70B586B08B
:100EB00040F60044C4F201040068A4F55441002641
:100EC00088420596CDE90366029601D006B070BD52
:100ED00041F21800C4F20200416802AD41F48041C1
:100EE0004160416801F4804101910199016841F03C
:100EF000080101600068294600F00800019001988F
:100F00004FF42040029002200390032005902046D9
:100F1000FFF742FA4FF48040CDE902062046294609
:100F20000496FFF739FA06B070BD000080B500F0F6
:100F30000FFD80BDB0B590F83C20012A04BF02200F
:100F4000B0BD01F108053CCDD1E900CE23F47C53BE
:100F500022F470521A432EF4F0431A432CF4E04367
:100F60001A4324F4C0431A432A43C96922F4804235
:100F7000036811435964002180F83C100846B0BD55
:100F800010B590F83C20012A4FF0020231D0012325
:100F900080F83C3080F83D200268D2F804E0D2F8B6
:100FA00008C00C682EF07003234340F2FF74C4F2B3
:100FB0000004A242536005DCB2F1804F0ED040F233
:100FC000004307E042F60043C4F201039A4205D011
:100FD00040F60003C4F200039A4204D149682CF0A1
:100FE0008003194391600121002280F83D1080F8B0
:100FF0003C20104610BD0000002804BF01207047AF
:1010000010B5044690F83D0028B9002084F83C0053
:10101000204600F01FF8022084F83D002068211DC2
:1010200000F0E4FC012084F8460084F83E0084F8D7
:101030003F0084F8400084F8410084F8420084F8BE
:10104000430084F8440084F8450084F83D00002003
:1010500010BD0000B0B582B00446006842F6004101
:10106000C4F20101884201D002B0B0BD41F21800C3
:10107000C4F20200016840F2100541F40061016011
:101080000068C2F2000500F40060019001981C2085
:10109000C4F202001021002280234FF4007C4FF4A0
:1010A000006E85E80F502846C5E90622FFF730F9A3
:1010B000002818BFFFF766F865626C6202B0B0BD29
:1010C00010B5044690F83C0001284FF0020008BF1C
:1010D00010BD012284F83C2084F83D0020684FF6C2
:1010E000777382689A4382600A684F2A0FDC1F2A4E
:1010F00022DD202A23D0302A21D0402A4DD14B682E
:10110000CA68194600F090FD206840213BE06F2A34
:1011100017DDB2F5005F20D0B2F5805F2AD0702ACB
:101120003BD1D1E9012CCB68614600F0ADFC2068D1
:10113000816841F077011AE00AB1102A2DD11146D9
:1011400021E0502A18D0602A27D14B68CA68194676
:1011500000F07CFD2068602115E0D1E9012CCB680E
:10116000614600F091FC2068816841F48041816013
:1011700000200BE0002009E04B68CA68194600F027
:1011800053FD2068502100F08BFC0020012184F8E1
:101190003D10002184F83C1010BD0120F6E700004E
:1011A00080B586B0006840F20041C4F20001884278
:1011B0004FF00001CDE90411CDE9021121D042F632
:1011C0000041C4F20101884244D141F21800C4F246
:1011D0000200016841F004010160006802A900F00A
:1011E0000400019001984FF4807002900220039057
:1011F000059040F60000C4F20100FFF7CDF806B0FC
:1012000080BD41F21800C4F20200016841F00801FB
:101210000160006802A900F0080001900198102008
:10122000029002200390059040F60000C4F20100F5
:1012300000F58060FFF7B0F80420C4F201000168F7
:101240004FF2FF32CFF6FF02114041F0E06141F46E
:101250000061016006B080BDB0B5044690F83C0066
:10126000012804BF0220B0BD0D464FEAB2010120A3
:10127000032984F83C0037D8DFE801F0020A122283
:101280002068294600F014FC206850F8181F0EE072
:101290002068294600F03CFC206850F8181F16E032
:1012A0002068294600F068FC206850F81C1F41F0B7
:1012B00008010160016821F00401016029690FE063
:1012C0002068294600F08AFC206850F81C1F41F471
:1012D00000610160016821F48061016029690902EF
:1012E0000268114301600020002184F83C10B0BD69
:1012F000002804BF0120704710B5044690F83D0057
:1013000028B9002084F83C00204600F01FF8022095
:1013100084F83D002068211D00F068FB012084F85E
:10132000460084F83E0084F83F0084F8400084F8CA
:10133000410084F8420084F8430084F8440084F8B3
:10134000450084F83D00002010BD000081B0006819
:1013500040F20041C4F20001884201D001B0704760
:1013600041F21C00C4F20200016841F00201016078
:10137000006800F002000090009801B07047000083
:10138000002804BF0120704710B5044690F84100C2
:1013900028B9002084F84000204600F021F82420DD
:1013A00084F841002068C16821F40051C1602046E2
:1013B00000F05EFC2068016921F4904101614169FF
:1013C00021F02A014161C16841F40051C16000204F
:1013D0002021606484F8411084F84210606310BDDD
:1013E00010B586B0006844F20041C4F200018842A2
:1013F0004FF00001CDE90411CDE9021133D044F6DC
:101400000001C4F20001884253D043F60001C4F247
:10141000010188427ED141F21800C4F20200016845
:1014200040F6000441F4804101600168C4F2010407
:1014300001F4804101910199016841F004010160CA
:10144000006802A900F00400019001984FF40070B8
:10145000029002200390032005902046FEF79CFF97
:101460004FF480604EE041F21800C4F2020041687F
:1014700040F6000441F4003141604168C4F20104C7
:1014800001F4003101910199016841F0040101600A
:10149000006802A900F00400019001980420029065
:1014A00002200390032005902046FEF775FF0820D8
:1014B00028E041F21800C4F20200416841F48021A2
:1014C0004160416801F4802101910199016841F076
:1014D00008010160006802A900F00800019001986D
:1014E0004FF480600290022003900320059040F6A4
:1014F0000000C4F2010000F580642046FEF74CFFB6
:101500004FF4006002900020CDE9030002A92046BC
:10151000FEF742FF06B010BDFEE7000080B582B0C6
:1015200041F21400C4F202000168002241F00101FE
:1015300001600068002100F00100019001980C207A
:10154000FFF7B0F90C20FFF7A9F902B080BD000049
:101550002DE9F04786B0002741F21800CDE9047765
:10156000CDE90277C4F20200016840F6000541F0BF
:10157000200101600168C4F2010501F02001019120
:1015800001990168002241F00401016001684FF0F7
:10159000020801F0040101910199016841F008017C
:1015A00001600068022100F00800019001982846BF
:1015B000FEF7F0FF05F5806420464FF480510122CC
:1015C0004FF480594FF0010AFEF7E4FF0020C1F20A
:1015D000110002AECDE9030728463146CDF808A038
:1015E000FEF7DAFE28463146CDE9028ACDE90478D5
:1015F000FEF7D2FE0320CDE90207204631460497CC
:10160000FEF7CAFE20463146CDE9029ACDE90478BC
:10161000FEF7C2FE06B0BDE8F087000080B540F2DC
:10162000540045F20041C2F20000C4F2000141F64C
:10163000802200234FF4804CC0F2060280E80E00A6
:10164000C0E9033CC0E90533C0E90733FEF7AEFF4C
:10165000002818BFFEF796FD80BD000080B540F25F
:10166000A80043F60001C2F20000C4F200014FF4EA
:10167000827200234FF4007C80E80E000A21C0E94A
:101680000333C0E9053CC361C0E90833C0E90A314E
:10169000FFF7B6FB002818BFFEF774FD80BD000001
:1016A00010B596B040F2001042F600420021C2F29E
:1016B0000000C4F2010259231591CDE91311CDE9BF
:1016C0001111CDE90F11CDE90D11CDE90B11CDE9C6
:1016D0000911CDE90711CDE90511CDE90311CDE9D6
:1016E0000111C0E90021C0E90213C0E904118161C0
:1016F000FFF782FC002818BFFEF744FD4FF480502E
:10170000129040F20010C2F2000012A9FFF7D8FCBC
:10171000002818BFFEF736FD40F20010C2F20000AC
:10172000FFF7E6FD002818BFFEF72CFD40F2001081
:101730000024C2F2000010A9CDE91044FFF720FCFC
:10174000002818BFFEF71EFD6020CDE9090440F215
:101750000010C2F2000009A90022CDE90B44CDE936
:101760000D440F94FFF778FD002818BFFEF70AFD1F
:1017700000200590CDE90300CDE901004FF40051B0
:10178000089040F200100691C2F2000001A9FFF794
:10179000D1FB002818BFFEF7F5FC40F20010C2F2A2
:1017A0000000FFF7FDFC16B010BD000010B58AB0B8
:1017B00040F2481040F200410024C2F20000C4F29E
:1017C00000014FF6FF720994CDE90744CDE90544C5
:1017D000CDE90344CDE90144C0E90014C0E9024267
:1017E00004618461FFF784FD002818BFFEF7CAFC7E
:1017F00040F24810C2F2000008A9CDE90844FFF702
:10180000BFFB002818BFFEF7BDFC60200190002040
:10181000CDE90200059040F24810C2F2000001A993
:101820000022FFF719FD002818BFFEF7ABFC40F2BD
:101830004810C2F20000FFF7B3FC0AB010BD000070
:1018400080B540F2901043F60001C2F20000C4F2ED
:10185000010100234FF00C0C4FF4E13280E80E0040
:10186000C0E90333C0E905C3C361FFF789FD002860
:1018700018BFFEF787FC80BD80B540F2D81044F257
:101880000041C2F20000C4F2000100234FF00C0C32
:101890004FF4E13280E80E00C0E90333C0E905C32C
:1018A000C361FFF76DFD002818BFFEF76BFC80BD1C
:1018B00080B540F2202044F60001C2F20000C4F2DC
:1018C000000100234FF00C0C4FF4E13280E80E00D1
:1018D000C0E90333C0E905C3C361FFF751FD002828
:1018E00018BFFEF74FFC80BDFEE70000FEE70000DA
:1018F00000F0070080F00703042B28BF04234FF0FB
:10190000FF3C03380CFA03F338BF002099438140B1
:101910000CFA00F022EA000008437047704700000C
:1019200081B040F20000C2F20000006844F6D351DA
:10193000C1F26201A0FB0101480A009000BF0098BB
:10194000411E00280091F9D101B070477047000096
:10195000B0B501380024B4EB106F1CBF0120B0BD3E
:101960004EF21005CEF2000568604FF0FF300F21F7
:1019700000F0E0F90720AC6028602046B0BD000010
:1019800080B5FEF71FFF80BD70B590B006AC204655
:101990002821FEF7CEFB012006900A904FF4E010BC
:1019A00000254FF4803102260F9020460595CDE9A1
:1019B0000355CDE90155CDE90715CDE90D61FFF7D7
:1019C00099F878B90F20CDE901064FF48060CDE990
:1019D000040501A802210395FEF778FF002804BF43
:1019E00010B070BDFEF7CEFB7047000010B540F29E
:1019F000FF7E0368C4F2000E42F6004C7045C4F24C
:101A0000010C05DCB0F1804F0AD040F2004203E047
:101A1000604505D040F60002C4F20002904203D1B6
:101A20004A6823F070031343704505DCB0F1804F22
:101A30000AD040F2004203E0604505D040F60002C3
:101A4000C4F20002904203D1CA6823F440731343E6
:101A500023F080024B69D1F800E08C681A4360459E
:101A60000260C462C0F828E002D10969CCF83010E5
:101A7000012141610169C90708BF10BD016921F059
:101A80000101016110BD0000D0F808C011432CF421
:101A90007F4C41EA032141EA0C018160704700005C
:101AA000826822F07002114341F0070181607047A3
:101AB000B0B5026A036A42F6004423F001030362F0
:101AC000D0F804E0D0F818C08B6822F00202C4F20B
:101AD0000104A04242EA030205D1CB6822F00C02C5
:101AE00023F004031A430B68A04207D1D1E905454E
:101AF0002EF4407E44EA0E0444EA050E2CF07305F1
:101B00002B43C0F804E08361496841630262B0BDC1
:101B1000B0B5026A036A42F6004423F01003036280
:101B2000D0F804E0D0F818C08B6822F02002C4F28C
:101B30000104A04242EA031207D1CB686FF04005CE
:101B400022F0C00205EA03131A430B68A04207D132
:101B5000D1E905452EF4406E4EEA840444EA850E30
:101B60002CF4E64545EA0323C0F804E083614968A4
:101B700081630262B0BD0000B0B5026A036A42F63A
:101B8000004423F480730362D0F804E0D0F81CC052
:101B90008B6822F40072C4F20104A04242EA0322DC
:101BA00007D1CB6840F2FF451B0222F44062AB43F1
:101BB0001A430B68A04207D1D1E905452EF4405ED7
:101BC0004EEA041444EA051E2CF073052B43C0F8BA
:101BD00004E0C3614968C1630262B0BDB0B5D0F82A
:101BE00020C0026A42F6004522F480520262426836
:101BF000C3690C68D1F808E0C4F20105A84204D119
:101C00004D6922F4804242EA851223F4E64343EA16
:101C100004234260C3612CF40055496845EA0E3242
:101C200001640262B0BD0000D0F820C0036A23F056
:101C300001030362836923F0F00343EA02122CF0EC
:101C40000A0319438261016270470000D0F820C086
:101C5000036A23F010030362836923F4704343EAA9
:101C600002322CF0A00343EA011182610162704745
:101C700010B504460068D4E902C22369016921F461
:101C8000405111430161616943EA0C021143C2688A
:101C900041F20C639A431143C1604169A26921F486
:101CA0004071114343F60002C4F2010290424161C7
:101CB00002D0FEF7CBFE01E0FEF7DAFE62681921E2
:101CC00048439100B0FBF1F048F21F51C5F2EB110F
:101CD000A0FB01235A096FF0630302FB03003223C8
:101CE00003EB0010A0FB0101F02303EA511320686D
:101CF00003EB0212C1F343111144816010BD0000D7
:101D0000FEE70000002848BF704700F01F010122D5
:101D100002FA01F14EF200124009CEF2000242F83E
:101D2000201070474EF60C50CEF200000068C0F351
:101D3000022070474EF6145300F00F02CEF200035B
:101D400009011A4400F16043B0F1FF3FC8BF03F539
:101D500064421170704700004EF60C51CEF2000143
:101D60000A684FF6FF031A4060F30A2242F08060CF
:101D700040F0FD7008607047FEF732FDFFF704FE8B
:101D8000FFF7E6FBFFF7CAFBFFF75AFDFFF774FD0D
:101D9000FFF78EFDFFF762FCFFF740FCFFF780FCCA
:101DA000FFF704FDFEE702E008C8121F08C1002A81
:101DB000FAD170477047002001E001C1121F002ACC
:101DC000FBD1704700000000000000000102030486
:101DD000060708090000000001020304001E0008B5
:101DE0000000002010000000A61D0008101E0008C2
:101DF0001000002060060000B61D00080000000072
:101E000000127A0001000000100000000000000035
:04000005080000ED02
:00000001FF
