:020000040800F2
:1000000048290020010100088D260008C11B0008B6
:1000100089260008C9020008C92B0008000000005A
:10002000000000000000000000000000ED260008B5
:10003000DD02000800000000BD260008712700084E
:100040001B0100081B0100081B0100081B01000820
:100050001B0100081B0100081B0100081B01000810
:100060001B0100081B0100081B0100081B01000800
:10007000CD0200081B0100081B0100081B0100083D
:100080001B0100081B0100081B0100081B010008E0
:100090001B0100081B0100081B0100081B010008D0
:1000A0001B0100081B0100081B0100081B010008C0
:1000B0001B0100081B0100081B0100081B010008B0
:1000C0001B0100081B0100081B0100081B010008A0
:1000D0001B0100081B0100081B0100081B01000890
:1000E0001B0100081B0100081B010008DFF80CD0F1
:1000F00000F0D8F800480047F546000848290020DD
:100100000648804706480047FEE7FEE7FEE7FEE7B1
:10011000FEE7FEE7FEE7FEE7FEE7FEE7D927000879
:10012000ED0000082DE9F05F0546002092469B4651
:1001300088460646814640241BE0284641464746FD
:10014000224600F09EF853465A46C01A914110D3F9
:1001500011461846224600F085F82D1A67EB010873
:100160004F4622460120002100F07CF817EB0009E1
:100170004E41201EA4F10104DFDC484631462A46E8
:100180004346BDE8F09F40EA01039B0703D009E026
:1001900008C9121F08C0042AFAD203E011F8013B73
:1001A00000F8013B521EF9D27047D2B201E000F8CC
:1001B000012B491EFBD270470022F6E710B513460B
:1001C0000A4604461946FFF7F0FF204610BD80EAB4
:1001D000010210B502F00043400022D04A001FD0B7
:1001E000010E01EB1261C0F35600C2F3560240F457
:1001F000000042F40002A0FB022000047F39140436
:1002000000D0401C50EA124001D44000491EC2B246
:100210000C0604EBD010401C4008802A02D003E0FA
:10022000002010BD20F00100002900DA0020184352
:1002300010BD00F0004220F00040C10DC0F31600D8
:1002400040F400007F2901DA00207047962903DC82
:10025000C1F19601C84001E096398840002AF4D0E7
:1002600040427047202A04DB203A00FA02F10020C5
:1002700070479140C2F1200320FA03F319439040E4
:100280007047202A04DB203A21FA02F0002170474F
:1002900021FA02F3D040C2F12002914008431946EE
:1002A00070470000064C074D06E0E06840F001038F
:1002B00094E8070098471034AC42F6D3FFF71AFFD2
:1002C0000885000828850008FEE7000080B540F298
:1002D0001400C2F2000000F033F880BD7047000047
:1002E000EFF3108072B600BFFEE70000B0B56820E3
:1002F00004F076FC044600284FF0000008BFB0BDB3
:100300001A22227743F28D6243F23963C0F600026B
:10031000C0F6000304F13001C4E90123012284F88E
:100320006400204604F14C0584F8482003F056FA96
:1003300020622046294603F051FA60622046B0BD93
:1003400010B50168D0E90FCEDCF800200B685C071F
:1003500026D5042404FA0EF4144021D00A6892062B
:1003600003D40A6822F004020A602F22C4F20202B7
:10037000914240F20402C4F2020259DD3023C4F279
:10038000020399426CD04423C4F2020399426AD01A
:100390005823C4F2020399426AD14FF480236FE0DC
:1003A0009C0729D5022404FA0EF4144024D00A68CC
:1003B000920606D40A6822F00A020A60012280F836
:1003C00021202F22C4F20202914240F20402C4F220
:1003D000020239DD3023C4F20203994256D044238D
:1003E000C4F20203994254D05823C4F20203994242
:1003F00054D14FF4003359E01B0758BF10BD0823F8
:1004000003FA0EF31A4012D00A6822F00E020A60B4
:10041000012101FA0EF2CCF80420816380F821104A
:10042000016B0022002980F8202018BF884710BDEA
:100430000823C4F20203994218D01C23C4F2020319
:10044000994215D140231BE00823C4F202039942CC
:1004500022D01C23C4F2020399421FD1202325E09D
:100460004FF480630CE04FF4804309E0042307E07D
:1004700002F168044FF08063A14208BF4FF480038B
:100480001360C16A0029D2D0884710BD4FF40073B1
:100490000CE04FF4005309E0022307E002F1680486
:1004A0004FF00073A14208BF4FF400131360816A3C
:1004B0000022002980F82020B9D0884710BD000014
:1004C000014600284FF0010008BF70472DE9F043B6
:1004D000D1F800C04FF6F873CBF6FD734CF6CD4261
:1004E0006344CCF6CC42A3FB02236FF0030707EA78
:1004F00093030027C4F2020701F10C09C1E90F734D
:100500000223D1E9012E99E87002D1F81C8081F80C
:100510002130DCF8003043F6F077BB431A4342EA5F
:100520000E0222432A43324342EA090242EA080207
:10053000CCF8002000228A6381F8210081F8202075
:100540000020BDE8F0437047B0B5044600F01AF94A
:10055000054640F20800C2F200000078611C18BF96
:10056000044400BF00F00EF9401BA042FAD3B0BD16
:100570002DE9F04F82B00E68002E00F0F38041F2BA
:100580000042C4F20102042340F2004E904208BF30
:1005900003234FF6FF7CC4F2010E009300240123D5
:1005A000C1F2100C4FF0000A4FF0000941E00125A4
:1005B00004F00C030F279F402BEA070705FA03F30B
:1005C0003B4342F826304E6840F20C45F202DEF81A
:1005D000082054BF22EA080242EA0802C4F20105D8
:1005E000CEF808202A68B30254BF22EA080242EA81
:1005F00008022A60B303DEF8042054BF22EA08028E
:1006000042EA0802F303CEF80420DEF800204FF09F
:10061000010354BF22EA080242EA0802CEF8002091
:100620000E680AF1010A36FA0AF204F1040400F035
:10063000998003FA0AFB16EA0B08F1D04A68624572
:1006400010DC122A50D8DFE802F0330A41454F4F40
:100650004F4F4F4F4F4F4F4F4F4F4F484C00D1F8D8
:100660000C9041E04FF6FF75C1F22105AA420FDC64
:100670000025C1F21105AA421AD00025C1F21205C7
:10068000AA4215D00025C1F22105AA4210D02BE0C4
:100690000025C1F22205AA420AD00025C1F2310587
:1006A000AA4205D00025C1F23205AA421CD100BFE2
:1006B0008A6842B1012A14BFC0F814B0C0F810B063
:1006C0004FF0080910E04FF004090DE0CA6802F18C
:1006D000080909E04FF0000906E0CA6802F10409C0
:1006E00002E0CA6802F10C0922460546B8F5807F8F
:1006F00024BF203A04352E680F279740BE4309FADD
:1007000002F232432A60CA79D2067FF589AF41F2FC
:100710001803C4F202031A684FEA9A0642F0010273
:100720001A601A6840F6000302F001020192019A71
:10073000AEF57E7252F826B0C4F2010398420FD093
:1007400040F60043C4F2010398423FF430AF41F257
:100750000003C4F20103009D984208BF022527E769
:10076000002525E702B0BDE8F08F00008068084052
:1007700018BF012070470000002A08BF090401616A
:100780007047000042F24050C2F20000006870471B
:10079000F0B581B0B0B3044690F83D0028B9002010
:1007A00084F83C00204600F0C7FA242084F83D007D
:1007B0002068016821F001010160016841F40041F5
:1007C0000160016821F40041016000F039FC48F249
:1007D0008041C0F21E0140F60012656888424FF069
:1007E0000001C0F23D0248F2A16C4FF0000338BF97
:1007F00001219042C0F2010C38BF0123654538BF8A
:100800000B4613B1012001B0F0BD4DF68361C4F277
:100810001B31A0FB011221684FEA924E4B684FF446
:10082000967623F03F0343EA92434B6044F6D3535A
:100830000F6A0EFB06F6C1F26203A6FB033627F031
:100840003F03B709654538BF970C7A1C1A430A6203
:10085000CA6948F2A0674CF6FF73C0F20107BD42B7
:1008600022EA030C0AD801386A00B0FBF2F001302A
:100870006FF31F30042898BF04202BE0A368A0F179
:10088000010E9BB119206843BEFBF0F00422013039
:1008900062F31F30000512D09BB119206843BEFBE4
:1008A000F0F00422013062F31F3011E005EB450047
:1008B000BEFBF0F001306FF31F300005ECD10120DA
:1008C00008E005EB4500BEFBF0F001306FF31F3090
:1008D00040F4004040EA0C00C8610868D4E90723EE
:1008E00020F0C000104318430860886848F2FF32C7
:1008F00004F10C0790438CCF18431043A66988601D
:10090000C86820F0FF0038433043C860086840F0F2
:100910000100086000202021206484F83D1020633D
:1009200084F83E0001B0F0BD2DE9F04784B00446E4
:1009300000201F4616460D460390FFF723FF94F84C
:100940003D1020290FD102218146C0F2100120461E
:1009500001221923CDF8009001F068FA18B994F833
:100960003C00012803D1022004B0BDE8F08701213A
:10097000226884F83C101368DDE90D080C99DB0748
:1009800003D1136843F001031360136823F4006379
:100990001360222284F83D20402284F83E20002269
:1009A000226461626085608D294620850020CFF633
:1009B000FF70E062204632463B46CDF80080CDF81D
:1009C000049001F017F918B1012004B0BDE8F087D8
:1009D000208D022810D0012824D0002838D10020F2
:1009E000029020684169029181690291029901682F
:1009F00041F40071016037E02068016841F4006152
:100A00000160EFF3108072B6002002902068416907
:100A10000291816902910299016821F4806101606B
:100A200062B621E02068016821F480610160EFF383
:100A3000108072B60020029020684169029181699D
:100A400002910299016841F40071016062B60BE005
:100A50002068016841F480610160002102914169D0
:100A60000291806902900298208D002800F0B380E6
:100A7000042740F2040A4BF28956C0F20107C2F281
:100A8000000AC1F2F846232517E0204641464A46AF
:100A900001F062FA002897D12068616A0069087045
:100AA000606A218D01306062481E2085608D0138AA
:100AB0006085208D002800F08E80032847D802280A
:100AC00068D00128E1D02046394600224346CDF8BF
:100AD000009001F0ABF900287FF476AF2068016840
:100AE00021F480610160EFF3108072B62068616AC2
:100AF00000690870606A218D0130013960622185CA
:100B0000618D01396185DAF80010C908A1FB061270
:100B1000110A6943039100BF0399013903910399B5
:100B2000002963D021684A695207F5D50A6842F462
:100B300000720A6009690170606A218D013060628B
:100B4000481E2085608D0138608562B6A4E7204686
:100B500041464A4601F000FA00287FF435AF20688C
:100B6000616A00690870606A228D0130013A606232
:100B700022852168638D013B63854B695B0798D5AE
:100B800092B2032A03D10A6822F480620A600969DA
:100B9000017085E72046394600224346CDF8009093
:100BA00001F044F900287FF40FAFEFF3108072B624
:100BB0002068616A026842F400720260006908708D
:100BC000606A218D01306062481E2085608D013889
:100BD000608562B660E7202084F83D00002084F83C
:100BE0003E0084F83C0004B0BDE8F08700202021DE
:100BF000206384F83D1084F83E00216C41F0200110
:100C0000216462B684F83C00DEE600002DE9F04382
:100C100083B0994616460F460446FFF7B3FD94F895
:100C20003D1020290ED102210546C0F210012046B8
:100C300001221923009501F0F9F818B994F83C0045
:100C4000012803D1022003B0BDE8F083012122680E
:100C500084F83C101368DDE90B080A99DB0703D11F
:100C6000136843F001031360136823F400631360F7
:100C7000212284F83D20402284F83E200022226474
:100C800061626085608D394620850020CFF6FF7057
:100C9000E062204632464B46CDF80080019501F0D7
:100CA0002FF830B3012003B0BDE8F0832046414661
:100CB0002A4601F08DF928BB606A2168034613F8C3
:100CC000012B0A61228D6362571E2785638D3F04C5
:100CD000A3F1010363854B6918BF13F0040308D027
:100CE000437802300B616062901E2085608D013870
:100CF0006085208D0028D9D1204641462A4601F042
:100D00005FF840B1206C0428CCD12068016841F420
:100D100000710160C6E72068016841F4007101605C
:100D2000202084F83D00002084F83E0084F83C0038
:100D300003B0BDE8F083000010B586B0006845F24E
:100D40000041C4F2000188424FF00000CDE90400E8
:100D5000CDE9020001D006B010BD41F21804C4F282
:100D60000204206802A940F008002060206800F01A
:100D70000800019001984FF44070029012200390F7
:100D80000320059040F60040C4F20100FFF7F0FB9D
:100D90000420C4F20100016841F0E06141F0020169
:100DA0000160606840F400106060606800F400104A
:100DB0000190019806B010BD40F2080042F2405187
:100DC000C2F20000C2F2000100780A681044086014
:100DD0007047000080B542F20000C4F202000168D2
:100DE00041F010010160032000F066F80F2000F0D0
:100DF00005F800F02BF8002080BD0000B0B540F2EF
:100E00000802C2F2000240F204011278C2F20001AC
:100E10004FF47A730968B3FBF2F20446B1FBF2F1C6
:100E2000084600F07DFB0F2C4FF001050CD858B997
:100E30004FF0FF3021460022002500F02DF840F24F
:100E40000C00C2F2000004602846B0BD82B041F23E
:100E50001800C4F202000168022241F001010160A1
:100E6000016801F0010101910199416841F080514F
:100E70004160406800F08050009000980420C4F267
:100E80000100016862F31A61016002B0704700005E
:100E900080B501F0BDFE80BD70B514460D46064616
:100EA00001F0C6FE2946224601F0F2FB014630461B
:100EB00001F0C6FE70BD000080B501F0D3FE80BD1C
:100EC0002DE9F04381B0002800F0898042F200084B
:100ED000C4F202080446D8F800000D4600F00700EE
:100EE00088420CD2D8F8000020F007002843C8F848
:100EF0000000D8F8000000F00700A8426FD1206879
:100F000041F204098107C4F2020917D5410705D54A
:100F1000D9F8001041F4E061C9F80010010705D5C7
:100F2000D9F8001041F46051C9F80010D9F8001048
:100F3000A26821F0F0011143C9F80010C00745D1A3
:100F4000D8F8000000F00700A8420CD9D8F800003B
:100F500020F007002843C8F80000D8F8000000F08F
:100F60000700A8423BD12068410707D5D9F80010F7
:100F7000E26821F4E0611143C9F80010000708D5C8
:100F8000D9F80000216920F4605040EAC100C9F896
:100F9000000000F079F8D9F8001045F6EC02C1F332
:100FA0000311C0F60002515C40F2040220FA01F184
:100FB00040F20C00C2F200000068C2F200021160B0
:100FC000FFF71CFF002001B0BDE8F0836068022835
:100FD00009D0012829D159F8041C890307D401201C
:100FE00001B0BDE8F08359F8041C8901F7D5D9F8A0
:100FF000001021F003010843C9F80000FFF7C2FB0D
:10100000064641F2883700BFD9F80000616800F059
:101010000C00B0EB810F93D0FFF7B4FB801BB842FC
:10102000F2D9032001B0BDE8F08359F8041C890708
:10103000D5D5DCE740F20400C2F20000006870473A
:1010400080B5FFF7F7FF41F20401C4F2020109681D
:1010500045F6FC02C1F30221C0F60002515CC84013
:1010600080BD000080B5FFF7E5FF41F20401C4F246
:101070000201096845F6FC02C1F3C221C0F6000274
:10108000515CC84080BD000041F2040CC4F2020C67
:10109000DCF8003003F00C00082841F20020C0F218
:1010A0007A0018BF7047C3F383420AA18A5CD90350
:1010B00005D440F60010C0F23D0050437047DCF804
:1010C000001008A3C1F34041595C5043B0FBF1F05C
:1010D000704700BF02030405060708090A0B0C0D40
:1010E0000E0F1010010200002DE9F04182B000281F
:1010F00000F0C4800446007841F20006C007C4F244
:10110000020643D0706800F00C00042817D0706805
:1011100000F00C00082802D17068C0030FD4656885
:101120002DB1B5F5A02F10D0B5F5803F11D03068A6
:1011300020F480303060306820F480200CE030688B
:10114000800323D5606808BB98E0306840F48020B5
:101150003060306840F480303060FFF713FB002DC2
:10116000054610D03068800310D4FFF70BFB401BFE
:101170006428F7D904E100BFFFF704FB401B642893
:101180004FF0030077D830688003F5D420788007CB
:1011900018D5706810F00C0F07D0706800F00C00C4
:1011A000082826D17068C00323D43068800702D590
:1011B0002069012862D13068616920F0F80040EAB6
:1011C000C1003060207800073DD5A06938B3002009
:1011D000C4F242200121C0F88014FFF7D3FA05467B
:1011E000706A80072DD4FFF7CDFA401B0228F7D98B
:1011F000C6E02069002840F20000C4F2422000F05E
:10120000968001210160FFF7BDFA0546306880072E
:10121000D1D4FFF7B7FA401B0228F7D9B0E000207D
:10122000C4F242200021C0F88014FFF7ABFA054653
:10123000706A800707D5FFF7A5FA401B0228F7D987
:101240009EE001F03DFA207840071BD4E5698DB19E
:10125000706800F00C00082847D1012D0ED070688E
:10126000216A00F480328A4208D1616A00F4701069
:10127000884203D1002002B0BDE8F081012002B015
:10128000BDE8F081F06910F0805808D1F06940F0B5
:101290008050F061F06900F080500190019847F2B1
:1012A0000007C4F200073868C00510D4386840F45D
:1012B00080703860FFF766FA054600BF3868C005E1
:1012C00005D4FFF75FFA401B6428F7D958E0E568BA
:1012D0001DB1052D3CD0012D3ED0306A20F001001B
:1012E0003062306A20F0040039E00027C4F242275F
:1012F00000203866FFF746FA022D05460CD100BFE4
:101300003068800154D5FFF73DFA401B02284FF0AA
:101310000300F5D9AFE700BF30688001AAD5FFF719
:1013200031FA401B02284FF00300F5D9A3E7002152
:101330000160FFF727FA0546306880077FF542AF66
:10134000FFF720FA401B02284FF00300F4D992E780
:10135000306A40F004003062306A40F001003062D0
:10136000FFF710FA002D054641F2883714D000BF70
:10137000306A800713D4FFF705FA401BB842F7D94B
:10138000032002B0BDE8F081FFF7FCF9401BB84232
:101390004FF003003FF66FAF306A8007F4D4B8F126
:1013A000000F7FF453AFF06920F08050F0614DE7FB
:1013B000206AB0F5803F05D17168A26821F4003140
:1013C000114371607168626A21F47411104308431B
:1013D000706001203866FFF7D5F904463068800157
:1013E0003FF548AFFFF7CEF9001B02284FF003008E
:1013F000F4D940E770B538B10446406A30B10020F6
:10140000206104F1140007E0012070BD6068B0F5B0
:10141000827F03D004F11C00002101600026A66237
:1014200094F8510020B9204684F8506000F038F854
:10143000022084F8510094E8071001F482710368D7
:1014400002F4044223F040030360236911440CF4C6
:101450000062114403F002026369114403F00102C7
:10146000A369E569114403F40072114405F03802E0
:10147000256A114405F08002A56A114305F4005263
:1014800011430160042101EA13414160C16921F463
:101490000061C1610120666584F85100304670BD6D
:1014A00070B586B040F60044C4F201040068A4F5AB
:1014B0005441002688420596CDE90366029601D084
:1014C00006B070BD41F21800C4F20200416802ADDE
:1014D00041F480414160416801F4804101910199EA
:1014E000016841F0080101600068294600F0080029
:1014F000019001984FF420400290022003900320B5
:1015000005902046FFF734F84FF48040CDE90206FD
:10151000204629460496FFF72BF806B070BD000060
:1015200080B501F00DF980BDB0B590F83C20012ADE
:1015300004BF0220B0BD01F108053CCDD1E900CEC9
:1015400023F47C5322F470521A432EF4F0431A43CE
:101550002CF4E0431A4324F4C0431A432A43C969D4
:1015600022F48042036811435964002180F83C1042
:101570000846B0BD10B590F83C20012A4FF0020299
:1015800031D0012380F83C3080F83D200268D2F849
:1015900004E0D2F808C00C682EF07003234340F238
:1015A000FF74C4F20004A242536005DCB2F1804F24
:1015B0000ED040F2004307E042F60043C4F20103BC
:1015C0009A4205D040F60003C4F200039A4204D1C7
:1015D00049682CF08003194391600121002280F8B2
:1015E0003D1080F83C20104610BD0000002804BFCC
:1015F0000120704710B5044690F83D0028B900203E
:1016000084F83C00204600F01FF8022084F83D00DA
:101610002068211D01F0E2F8012084F8460084F8DA
:101620003E0084F83F0084F8400084F8410084F8CC
:10163000420084F8430084F8440084F8450084F8AC
:101640003D00002010BD0000B0B582B00446006827
:1016500042F60041C4F20101884201D002B0B0BD9F
:1016600041F21800C4F20200016840F2140541F48E
:10167000006101600068C2F2000500F400600190A2
:1016800001981C20C4F202001021002280234FF494
:10169000007C4FF4006E85E80F502846C5E906220D
:1016A000FEF70EFF002818BFFEF71AFE65626C6297
:1016B00002B0B0BD10B5044690F83C0001284FF0D0
:1016C000020008BF10BD012284F83C2084F83D00D0
:1016D00020684FF6777382689A4382600A684F2ABF
:1016E0000FDC1F2A22DD202A23D0302A21D0402AD5
:1016F0004DD14B68CA68194601F08EF92068402127
:101700003BE06F2A17DDB2F5005F20D0B2F5805FB5
:101710002AD0702A3BD1D1E9012CCB68614601F077
:10172000ABF82068816841F077011AE00AB1102A0D
:101730002DD1114621E0502A18D0602A27D14B68BC
:10174000CA68194601F07AF92068602115E0D1E9EC
:10175000012CCB68614601F08FF82068816841F464
:101760008041816000200BE0002009E04B68CA68DE
:10177000194601F051F92068502101F089F8002044
:10178000012184F83D10002184F83C1010BD012097
:10179000F6E7000080B586B0006840F20041C4F270
:1017A000000188424FF00001CDE90411CDE902119A
:1017B00021D042F60041C4F20101884244D141F2F5
:1017C0001800C4F20200016841F0040101600068E1
:1017D00002A900F00400019001984FF4807002907B
:1017E00002200390059040F60000C4F20100FEF7CD
:1017F000BFFE06B080BD41F21800C4F202000168CD
:1018000041F008010160006802A900F008000190A1
:1018100001981020029002200390059040F60000ED
:10182000C4F2010000F58060FEF7A2FE0420C4F2BD
:10183000010001684FF2FF32CFF6FF02114041F084
:10184000E06141F40061016006B080BDB0B50446BE
:1018500090F83C00012804BF0220B0BD0D464FEABD
:10186000B2010120032984F83C0037D8DFE801F0F9
:10187000020A12222068294601F012F8206850F866
:10188000181F0EE02068294601F03AF8206850F849
:10189000181F16E02068294601F066F8206850F805
:1018A0001C1F41F008010160016821F00401016082
:1018B00029690FE02068294601F088F8206850F86F
:1018C0001C1F41F400610160016821F48061016026
:1018D000296909020268114301600020002184F88F
:1018E0003C10B0BD002804BF0120704710B504466D
:1018F00090F83D0028B9002084F83C00204600F014
:101900001FF8022084F83D002068211D00F066FFCA
:10191000012084F8460084F83E0084F83F0084F8F3
:10192000400084F8410084F8420084F8430084F8C1
:10193000440084F8450084F83D00002010BD0000FC
:1019400081B0006840F20041C4F20001884201D039
:1019500001B0704741F21C00C4F20200016841F07E
:1019600002010160006800F002000090009801B0E0
:1019700070470000002804BF0120704710B50446DE
:1019800090F8410028B9002084F84000204600F07B
:1019900021F8242084F841002068C16821F4005116
:1019A000C160204601F084F82068016921F490416B
:1019B0000161416921F02A014161C16841F400518E
:1019C000C16000202021606484F8411084F8421036
:1019D000606310BD10B586B0006844F20041C4F2E7
:1019E000000188424FF00001CDE90411CDE9021158
:1019F00033D044F60001C4F20001884253D043F6CC
:101A00000001C4F2010188427ED141F21800C4F203
:101A10000200016840F6000441F480410160016861
:101A2000C4F2010401F4804101910199016841F07F
:101A300004010160006802A900F00400019001980F
:101A40004FF400700290022003900320059020467E
:101A5000FEF78EFD4FF480604EE041F21800C4F2B4
:101A60000200416840F6000441F4003141604168E1
:101A7000C4F2010401F4003101910199016841F0BF
:101A800004010160006802A900F0040001900198BF
:101A90000420029002200390032005902046FEF7C8
:101AA00067FD082028E041F21800C4F202004168F6
:101AB00041F480214160416801F480210191019944
:101AC000016841F008010160006802A900F0080007
:101AD000019001984FF4806002900220039003204F
:101AE000059040F60000C4F2010000F58064204635
:101AF000FEF73EFD4FF4006002900020CDE90300A8
:101B000002A92046FEF734FD06B010BD2DE9F041D4
:101B1000044690F8410020281CBF0220BDE8F08157
:101B20000E4600294FF0010042D01746002A08BF98
:101B3000BDE8F0814FF0000821201D46C4F8448024
:101B400084F84100FEF71EFEA784E784A1680746DB
:101B5000B1F5805F0DD12069002814BF3046B04632
:101B6000064606E016F8010B21684860E08C013853
:101B7000E084E08C80B1204680213A462B4600F07C
:101B8000DFFFB8B9002EEDD138F8020B21686FF3F2
:101B90005F2048600026E9E7204640213A462B4670
:101BA00000F0CEFF202184F84110002818BF032048
:101BB000BDE8F081202084F841000320BDE8F081D9
:101BC000FEE700000268516949054FF000010FD59A
:101BD0006FF4806353612022016380F83D2080F818
:101BE0003E10026C42F00402026480F83C100121B5
:101BF000084670472DE9F04782B0044600680E465B
:101C00000168DDF828A041F4806101600168DDF819
:101C10002C9041F480711D461746016020464FF01C
:101C2000011100225346CDF8009000F0FFF850B1AA
:101C300020680068C00544BF4FF400702064032092
:101C400002B0BDE8F08740F202082068C0F2010847
:101C500006F0FE0606612046414652464B4600F01D
:101C60002FF948BB0020019020684A464169019144
:101C70008069514601900198204600F0A9F998B971
:101C8000012D08D02068390A0161204651464A4694
:101C900000F09EF940B92068F9B201612046514632
:101CA0004A4600F095F958B1206C042804D1206808
:101CB000016841F400710160012002B0BDE8F087C5
:101CC000206800220168534641F48071016020467B
:101CD0004FF00111CDF8009000F0A8F80028A7D12E
:101CE000206846F0010101612046414652464B46BC
:101CF00000F0E6F8002818BF012002B0BDE8F08728
:101D00002DE9F04383B0044600680D4601680A9F40
:101D10000B9E41F4807199469046016020464FF039
:101D2000011100223B46009600F080F850B1206877
:101D30000068C00544BF4FF400702064032003B066
:101D4000BDE8F083206805F0FE0101610221C0F2C8
:101D5000010120463A46334600F0B2F818B101209E
:101D600003B0BDE8F083002002902068324641694C
:101D700002918069394602900298204600F028F9C5
:101D800040B1206C0428EAD12068016841F4007158
:101D90000160E4E7B9F1010F0AD020684FEA182189
:101DA000016120463946324600F012F90028E8D198
:101DB00020685FFA88F10161002003B0BDE8F0837C
:101DC000F0B581B004460068406940071AD4154652
:101DD0000E464F1C08E000BF20684069400714D53C
:101DE0002068406940070DD42046FFF7EBFEC8B9D4
:101DF000002FF5D0FEF7C6FC002EEDD0401BB04200
:101E0000EED9E9E7002001B0F0BD002020212063D9
:101E100084F83D1084F83E00216C41F020012164DB
:101E200084F83C00012001B0F0BD00002DE9F0472E
:101E3000DDF8208099461646044601F47F078DB2EE
:101E400003F1010A0EE000BF2068B7F5803F14BF20
:101E50001830143000682840401BB0FA80F0400968
:101E6000B0421DD02068B7F5803F14BF1830143041
:101E700000682840401BB0FA80F04009B0420CD105
:101E8000BAF1000FEED0FEF77DFCB9F1000FDBD008
:101E9000A0EB08004845E5D9D6E70020BDE8F0876B
:101EA00000202021206384F83D1084F83E00216C3E
:101EB00041F02001216484F83C000120BDE8F08756
:101EC0002DE9F04104460068984643698FB203EA61
:101ED0000701B94202D10020BDE8F08141694905FE
:101EE00017D41646551C00BF5DB1FEF74BFC1EB162
:101EF000A0EB0800B04204D9206840693840B842DD
:101F00001ED1206841693940B942E4D04169490590
:101F1000EAD5016841F4007101606FF480614161AC
:101F200000202021206384F83D1084F83E00216CBD
:101F300041F00401216484F83C000120BDE8F081F7
:101F400000202021206384F83D1084F83E00216C9D
:101F500041F02001EEE7000070B504460068154628
:101F600050F8143F5A0615D40E4608E02068406920
:101F700040061DD5206850F8141F49060AD4016890
:101F8000C90609D4FEF7FEFB002EEFD0401BB0427D
:101F9000F0D9EBE7002070BD6FF010010160002068
:101FA0002021206384F83D1084F83E00216C09E074
:101FB00000202021206384F83D1084F83E00216C2D
:101FC00041F02001216484F83C00012070BD000034
:101FD000F0B581B004460068406900061AD4154681
:101FE0000E464F1C08E000BF20684069000614D56B
:101FF0002068406900060DD42046FFF7E3FDC8B90C
:10200000002FF5D0FEF7BEFB002EEDD0401BB042F6
:10201000EED9E9E7002001B0F0BD002020212063C7
:1020200084F83D1084F83E00216C41F020012164C9
:1020300084F83C00012001B0F0BD000080B540F6FE
:102040000040C4F201000121FEF790FBB0FA80F0DD
:10205000400980BD40F21000C2F20000B0F900104B
:10206000002011F5C87FD8BF0120704740F2100052
:10207000C2F20000B0F900100020B1F5C87FA8BF7F
:102080000120704780B540F20C50C2F200004FF0C2
:10209000000E40F2DC4CA0F832E0C2F2000C6422E8
:1020A000012300200CEB0001103030288A600B71F6
:1020B00081F80CE0F6D142F23D00C0F60000CCF809
:1020C000000042F25500C0F60000CCF8100042F2C9
:1020D0006D00C0F60000CCF8200080BD80B5FFF791
:1020E000D1FF00203221002200F00CF801201E2137
:1020F000002200F007F802201E21002200F002F862
:1021000080BD000040F2DC43C2F2000303EB00108C
:1021100001810021C272017370470000B0B540F226
:102120005800C2F20000FEF733FB6B20802100F064
:10213000A9F86B20002100F0A5F80120012400F08F
:1021400067F8002000F05CF8642000F083F8382085
:10215000002100F097F86A20002100F093F8232076
:10216000002100F08FF83720802100F08BF87520D7
:1021700000F028F805460EA0294603F04DF9682D19
:1021800013D16B20012100F07DF86C200021002488
:1021900000F078F8642000F05DF82320012100F0C1
:1021A00071F83820012100F06DF82046B0BD00BF65
:1021B0000D0A4D5055363035303A30782532780D8D
:1021C0000A00000080B584B0024600208DF80F00A0
:1021D00001200DF10F01CDE9001040F2580040F64A
:1021E000FF7CC2F20000D1210123CDF808C0FEF728
:1021F0009BFB6420FEF7A8F99DF80F0004B080BD9A
:1022000080B5C000C1B21C2000F03CF8002080BDA9
:1022100080B5C000C1B21B2000F034F8002080BDA2
:10222000BB2801D901210FE0612801D902210BE06F
:10223000292801D9032107E0132801D9042103E04B
:102240000621092888BF052180B51A2000F01AF858
:10225000002080BD10B504464FF47A70B4F57A7F43
:1022600028BF0446042C98BF0424B0FBF4F00138C6
:10227000C1B2192000F006F86008FFF7D1FF002076
:1022800010BD000080B584B002468DF80F1001200B
:102290000DF10F01CDE9001040F2580040F6FF7C2F
:1022A000C2F20000D0210123CDF808C0FEF7AEFC39
:1022B0006420FEF749F9002004B080BD80B582B0EB
:1022C00041F21400C4F202000168002241F0010151
:1022D00001600068002100F00100019001980C20CD
:1022E000FEF7DAFD0C20FEF7D3FD02B080BD000042
:1022F0002DE9F04786B0002741F21800CDE90477B8
:10230000CDE90277C4F20200016840F6000541F011
:10231000200101600168C4F2010501F02001019172
:1023200001990168002241F00401016001684FF049
:10233000020801F0040101910199016841F00801CE
:1023400001600068022100F0080001900198284611
:10235000FEF712FA05F5806420464FF48051012201
:102360004FF480594FF0010AFEF706FA0020C1F23F
:10237000110002AECDE9030728463146CDF808A08A
:10238000FEF7F6F828463146CDE9028ACDE9047811
:10239000FEF7EEF80320CDE9020720463146049708
:1023A000FEF7E6F820463146CDE9029ACDE90478F9
:1023B000FEF7DEF806B0BDE8F087000080B540F219
:1023C000580045F20041C2F20000C4F2000141F69B
:1023D000802200234FF4804CC0F2060280E80E00F9
:1023E000C0E9033CC0E90533C0E90733FEF7D0F983
:1023F000002818BFFDF774FF80BD000080B540F2D3
:10240000AC0043F60001C2F20000C4F200014FF438
:10241000827200234FF4007C80E80E000A21C0E99C
:102420000333C0E9053CC361C0E90833C0E90A31A0
:10243000FEF7E0FF002818BFFDF752FF80BD000047
:1024400010B596B040F2041042F600420021C2F2EC
:102450000000C4F2010259231591CDE91311CDE911
:102460001111CDE90F11CDE90D11CDE90B11CDE918
:102470000911CDE90711CDE90511CDE90311CDE928
:102480000111C0E90021C0E90213C0E90411816112
:10249000FFF7ACF8002818BFFDF722FF4FF480507B
:1024A000129040F20410C2F2000012A9FFF702F9E4
:1024B000002818BFFDF714FF40F20410C2F200001C
:1024C000FFF710FA002818BFFDF70AFF40F20410CA
:1024D0000024C2F2000010A9CDE91044FFF74AF829
:1024E000002818BFFDF7FCFE6020CDE9090440F28A
:1024F0000410C2F2000009A90022CDE90B44CDE985
:102500000D440F94FFF7A2F9002818BFFDF7E8FE6D
:1025100000200590CDE90300CDE901004FF4005102
:10252000089040F204100691C2F2000001A9FEF7E3
:10253000FBFF002818BFFDF7D3FE40F20410C2F2E3
:102540000000FFF727F916B010BD000010B58AB0E3
:1025500040F24C1040F200410024C2F20000C4F2EC
:1025600000014FF6FF720994CDE90744CDE9054417
:10257000CDE90344CDE90144C0E90014C0E90242B9
:1025800004618461FFF7AEF9002818BFFDF7A8FECB
:1025900040F24C10C2F2000008A9CDE90844FEF751
:1025A000E9FF002818BFFDF79BFE60200190002086
:1025B000CDE90200059040F24C10C2F2000001A9E2
:1025C0000022FFF743F9002818BFFDF789FE40F20B
:1025D0004C10C2F20000FFF7DDF80AB010BD000099
:1025E00080B540F2941043F60001C2F20000C4F23C
:1025F000010100234FF00C0C4FF4E13280E80E0093
:10260000C0E90333C0E905C3C361FFF7B3F900288C
:1026100018BFFDF765FE80BD80B540F2DC1044F2C6
:102620000041C2F20000C4F2000100234FF00C0C84
:102630004FF4E13280E80E00C0E90333C0E905C37E
:10264000C361FFF797F9002818BFFDF749FE80BD69
:1026500080B540F2242044F60001C2F20000C4F22A
:10266000000100234FF00C0C4FF4E13280E80E0023
:10267000C0E90333C0E905C3C361FFF77BF9002854
:1026800018BFFDF72DFE80BDFEE70000FEE700004D
:1026900000F0070080F00703042B28BF04234FF04D
:1026A000FF3C03380CFA03F338BF00209943814004
:1026B0000CFA00F022EA000008437047704700005F
:1026C00081B040F20400C2F20000006844F6D35129
:1026D000C1F26201A0FB0101480A009000BF00980E
:1026E000411E00280091F9D101B0704770470000E9
:1026F000B0B5682002F074FA00B3044600F130016E
:1027000000F14C051220207745F2912045F2592224
:10271000C0F60000C0F60002C4E90102012084F8FE
:10272000480084F86400204601F058F820622046F2
:10273000294601F053F860622046B0BD0020B0BDCC
:10274000B0B501380024B4EB106F1CBF0120B0BD40
:102750004EF21005CEF2000568604FF0FF300F21F9
:1027600000F06EFA0720AC6028602046B0BD000083
:1027700080B5FEF721FB80BD70B590B006AC204659
:102780002821FDF719FD012006900A904FF4E01072
:1027900000254FF4803102260F9020460595CDE9A3
:1027A0000355CDE90155CDE90715CDE90D61FEF7DA
:1027B0009BFC78B90F20CDE901064FF48060CDE98C
:1027C000040501A802210395FEF77AFB002804BF47
:1027D00010B070BDFDF784FD7047000010B540F2E9
:1027E000FF7E0368C4F2000E42F6004C7045C4F24E
:1027F000010C05DCB0F1804F0AD040F2004203E04A
:10280000604505D040F60002C4F20002904203D1B8
:102810004A6823F070031343704505DCB0F1804F24
:102820000AD040F2004203E0604505D040F60002C5
:10283000C4F20002904203D1CA6823F440731343E8
:1028400023F080024B69D1F800E08C681A436045A0
:102850000260C462C0F828E002D10969CCF83010E7
:10286000012141610169C90708BF10BD016921F05B
:102870000101016110BD0000D0F808C011432CF423
:102880007F4C41EA032141EA0C018160704700005E
:10289000826822F07002114341F0070181607047A5
:1028A000B0B5026A036A42F6004423F001030362F2
:1028B000D0F804E0D0F818C08B6822F00202C4F20D
:1028C0000104A04242EA030205D1CB6822F00C02C7
:1028D00023F004031A430B68A04207D1D1E9054550
:1028E0002EF4407E44EA0E0444EA050E2CF07305F3
:1028F0002B43C0F804E08361496841630262B0BDC4
:10290000B0B5026A036A42F6004423F01003036282
:10291000D0F804E0D0F818C08B6822F02002C4F28E
:102920000104A04242EA031207D1CB686FF04005D0
:1029300022F0C00205EA03131A430B68A04207D134
:10294000D1E905452EF4406E4EEA840444EA850E32
:102950002CF4E64545EA0323C0F804E083614968A6
:1029600081630262B0BD0000B0B5026A036A42F63C
:10297000004423F480730362D0F804E0D0F81CC054
:102980008B6822F40072C4F20104A04242EA0322DE
:1029900007D1CB6840F2FF451B0222F44062AB43F3
:1029A0001A430B68A04207D1D1E905452EF4405ED9
:1029B0004EEA041444EA051E2CF073052B43C0F8BC
:1029C00004E0C3614968C1630262B0BDB0B5D0F82C
:1029D00020C0026A42F6004522F480520262426838
:1029E000C3690C68D1F808E0C4F20105A84204D11B
:1029F0004D6922F4804242EA851223F4E64343EA19
:102A000004234260C3612CF40055496845EA0E3244
:102A100001640262B0BD0000D0F820C0036A23F058
:102A200001030362836923F0F00343EA02122CF0EE
:102A30000A0319438261016270470000D0F820C088
:102A4000036A23F010030362836923F4704343EAAB
:102A500002322CF0A00343EA011182610162704747
:102A6000016851E8031F026821F4907142E80313E2
:102A7000002BF5D1016851E8051F026821F0010122
:102A800042E80513002BF5D1016B01290AD100BFE3
:102A9000016851E8031F026821F0100142E80313A6
:102AA000002BF5D1202180F84210002101637047EE
:102AB00010B504460068D4E902C22369016921F413
:102AC000405111430161616943EA0C021143C2683C
:102AD00041F20C639A431143C1604169A26921F438
:102AE0004071114343F60002C4F201029042416179
:102AF00002D0FEF7A5FA01E0FEF7B4FA62681921E8
:102B000048439100B0FBF1F048F21F51C5F2EB11C0
:102B1000A0FB01235A096FF0630302FB0300322379
:102B200003EB0010A0FB0101F02303EA511320681E
:102B300003EB0212C1F343111144816010BD000088
:102B40002DE9F04182B004460068006808408842E0
:102B500003D1002002B0BDE8F0811D460E4690462C
:102B60005F1C04E0206800683040B04228D0002F8D
:102B7000F8D0FDF707FE01464FF003000DB3A1EBBF
:102B80000801A9421DD82068C1684907EAD5402E2E
:102B9000E8D0802EE6D001680907E3D5002501952D
:102BA000016801914068019001982046FFF758FFA5
:102BB0000820606484F84050012002B0BDE8F08134
:102BC000002002B0BDE8F081FEE7000010F1800FA8
:102BD000BCBF6FF07F0070477F28A8BF7F20704781
:102BE00010F5004FBEBF48F20000CFF6FF707047EF
:102BF00047F6FF718842B8BF01460846704700009B
:102C0000002844BF002070471F28A8BF1F2070471E
:102C1000002848BF704700F01F01012202FA01F1AD
:102C20004EF200124009CEF2000242F82010704726
:102C30004EF60C50CEF200000068C0F30220704740
:102C40004EF6145300F00F02CEF2000309011A44AD
:102C500000F16043B0F1FF3FC8BF03F5644211705B
:102C6000704700004EF60C51CEF200010A684FF694
:102C7000FF031A4060F30A2242F0806040F0FD70CA
:102C80000860704700F0FC00042808BF07210846D0
:102C900070470000B0B50546102001F0A1FF88B1D3
:102CA000044643F62900C0F600002060022020728E
:102CB00028464FF08641FDF78AFAFDF7BAFA2073ED
:102CC0002046B0BD0020B0BD80B500F10802002153
:102CD00013782BB10131082902F10C02F8D1082137
:102CE000082907D146F2B100C0F6000002F0ECFD61
:102CF000002080BD01EB410100EB810080BD0000A0
:102D000010B560B10168002908BF10BD04464068D5
:102D10000028FBD1082001F063FF606010BD002097
:102D200010BD000010B588B10168002908BF10BDB2
:102D3000044680680028FBD11C2001F051FFA060F0
:102D400020B101466269A0684A6110BD002010BD33
:102D500010B500224FF0000E8318D3F824C0BCF148
:102D6000000F06D00C3201EB0E04602AE6441C6210
:102D7000F2D1002010BD0000B0B541F25971CDF282
:102D8000B711A0FB011248F21F51C5F2EB11A0FBD5
:102D900001356B09A3FB0114510B620964246243E2
:102DA00040F2931CC2EB551203FB1403B0EB0C056D
:102DB0000DA418BF01250FF2140E604508BF74461C
:102DC000204602F029FB2846B0BD00BF4D6F646568
:102DD0006C2076657273696F6E3A2025642E2564C7
:102DE0002E25640A000000005741524E494E473AD2
:102DF000206D6F64656C2076657273696F6E202537
:102E0000642E25642E256420646F73656E277420FC
:102E10006D61746368206E6E6F6D20766572736984
:102E20006F6E210A000000002DE9F04F81B06E4660
:102E3000002B4FF0010918BF1E460029CDF8009065
:102E400000F09E8014460F46804640F2011A3D6A0B
:102E5000286848B125B300BF2868A968006900291F
:102E600028610D46F8D11BE02869C8B92046FFF754
:102E70002BFF8346007A411CE8688BF8081002F0AB
:102E8000B1FA042101F068FEDBF80410884288BF23
:102E90000146CBF80410C5F810B08BF8099000BFBC
:102EA000386A58B1816849B1016900296AD0497A04
:102EB000012969D180680028F6D100BFB968384679
:102EC00088474046394600F0A3FC386998B120464F
:102ED000FFF7FAFE05463869297A05600131406836
:102EE0002972042185F8099001F036FE696888424C
:102EF00088BF014669603168481C3060384601F07F
:102F000027FF7D6A002D00F09C80A868002840D132
:102F1000686800283DD1386A017EF9B1297EE9B19F
:102F20002046FFF7D1FE002800F08F80A0F808A00F
:102F30000546786AC06802F055FA042101F00CFEDB
:102F40006968884288BF0146786A696005612046E1
:102F500002F008F8384602F047F804E000692861FA
:102F6000204601F0FFFF384602F034F8786A006826
:102F7000002868D04769002F7FF469AF002004E083
:102F8000002002E0F82000E0F82040B201B0BDE8E7
:102F9000F08F386A017E29B3297E19B34FF00109F9
:102FA000286870B32046FFF78FFE002828614ED0B6
:102FB000E86802F017FA042101F0CEFDD5F810A060
:102FC000DAF80410884288BF01462846CAF804107F
:102FD00001F0CEFDAD688AF80800002D8AF809904E
:102FE000DED10EE0D0F810902846C5F8109001F020
:102FF000BFFD99F80810084489F80800012089F8F5
:103000000900204601F0AEFF384601F0EDFF3846DA
:1030100001F0E0FF7D6A1DB90020B6E7AD6875B12B
:103020002F4600BF38680028F8D041694046224644
:103030003346FFF7F9FE7F68002FF3D1EEE700205B
:10304000A3E70020A1E700209FE7F9209DE7F920F2
:103050009BE700002DE9F04381B00446006AE26C72
:103060000168CB68597CC360002001F029FDD4E9D8
:103070000821C860D16802F02BF9206A216DC06870
:103080008968806809680268636A1144A26DDB6818
:1030900012686069891A9A68116030B1007AFFF786
:1030A000F1FD616AC96889680860206A94F848601F
:1030B000C068218ED0F80490E38EB9F80000B4F80F
:1030C00042503246009500F07FF9616A3246D1F8ED
:1030D0000C80D8F804502880B9F80200618E238F44
:1030E000B4F84470009700F06FF96880E06C012E2E
:1030F000A88014D1608EB4F844100138484300EB26
:10310000D0704008E087208EB4F842100138484360
:1031100000EBD0704008A0870020A4F84000608E2B
:10312000218EB9F80420484300FB02F5404602F026
:1031300059F905FB00F10020A16201B0BDE8F08360
:1031400010B50446806908B1002010BD206D00F064
:1031500071F9606D00F06EF9002010BD2DE9F04F9F
:103160009BB0016AC9688A7C102A45D10AC9D0F887
:1031700024E017915988DEF80C501A911988D5E986
:10318000008519919988D0E914461891418EB5F8B7
:1031900004C01591018F6B881491C18E2D88876DA5
:1031A000B0F83090B0F83EA0B0F83CB01691B0F84E
:1031B0004410B0F84220C06D3668D4F800E0247C9A
:1031C00010950025CDE9115508ADCDE90B071598EF
:1031D00046C502A981E8010E14980F9306901A992A
:1031E000DDE91832DDE91670CDE90D48CDE900ECD6
:1031F000079700F089FB41E00AC9476A179159888F
:10320000FF681A911988D7E9008719919988D0E940
:1032100014651891418EB7F804C01591018F7B8811
:103220001491C18E3F88846DB0F83090B0F83EA004
:10323000B0F83CB02D681691B0F84410B0F84220B8
:10324000C06DD6F800E0367C10970027CDE91177E5
:1032500008AF26C70BA981E85101159802A981E89A
:10326000010E14980F9306901A99DDE91832DDE9E2
:103270001670CDE900EC079700F074FC00201BB03D
:10328000BDE8F08F70B582B00546A42001F0A8FC1F
:10329000002847D0044600F1600100F17C060420BC
:1032A0002077012084F8780084F8940084F8A00046
:1032B000204600F093FA20622046314600F08EFA54
:1032C000606243F25D10C0F6000043F2550143F224
:1032D0004112231DC0F60001C0F6000207C3A5611C
:1032E000A86804F13006407C03281DD195F91C2004
:1032F0006846012100F086FABDF804000099B0800C
:10330000316095F91E206846012101F0DBFFBDF810
:10331000040000996087C4F8361095F922206846A9
:1033200001211FE000244BE095F91C1095F91D20A8
:10333000684600F067FABDF804000099B08031607B
:1033400095F91E1095F91F20684601F0BBFFBDF8E6
:10335000040000996087C4F8361095F9221095F999
:103360002320684600F052F9BDF804000099A4F843
:103370004600C4F84210A86905F10806E06495F813
:10338000240004F1500C84F848004ECE01288CE84B
:103390000E00E66514D1208EB4F84210013848437F
:1033A00000EBD0704008A087608EB4F8441001385C
:1033B000484300EBD0704008E0870020A4F84000AC
:1033C000204602B070BD0000002804BF00207047F6
:1033D00018440138DDF800C0C1F10101012A18BF0D
:1033E00001FB0C00B0FBF3F070470000B0B5016AC0
:1033F00004460868C068457CC86001F095FF024635
:103400000020294601F05CFBD4E90821C860D1689E
:1034100001F05EFF606950B1616A007AC96889682D
:103420000968FFF72FFC616AC96889680860002095
:10343000B0BD0000002808BF704780B501F096FBC2
:10344000BDE880407047000070B584B0016A044652
:103450000868C068427CC860032A14D1002001219A
:103460000022012501F02CFB616AD4E90C32C8600E
:10347000D2E90212ADF80E300223ADF80C50082547
:10348000009303AB13E001F04FFF0246002001213F
:10349000012601F015FB616AD4E90C32C860D2E95B
:1034A0000212ADF80A3008250DF10A0300960195C5
:1034B00001F05CFF206A616BC068896880680968F8
:1034C0000268636A1144E26BDB6812686069891AFA
:1034D0009A68116030B1007AFFF7D4FB616AC9685D
:1034E00089680860206AC06801F07CFF4100206A9A
:1034F0002269C068516001F075FF616A0546C968BC
:10350000084601F06FFF00FB05F10020A16204B046
:1035100070BD000010B50446806908B1002010BDE0
:10352000606BFFF787FFA06BFFF784FF002010BDE3
:103530002DE9F04385B00446006A616BD4E90F328F
:10354000C06817881D88D0F80080D1F8009001F07D
:1035500049FF616A2269C968A46B4B684E7C126896
:10356000096803EB4603266833F8023C1468CDE98A
:10357000026182B240464946CDE90075049400F0EC
:103580007DFD002005B0BDE8F0830000F0B581B0FE
:103590000546882001F024FBA0B3044600F1440155
:1035A00000F1600600F17C0708202077012084F8F4
:1035B0005C0084F8780084F88400204600F00EF95E
:1035C00020622046314600F009F9606243F2315032
:1035D000C0F6000043F2494143F21552231DC0F6E4
:1035E0000001C0F6000207C3A868276101F09CFE35
:1035F00005F1080320630FCB04F1340C8CE80F00B5
:10360000A56100E00024204601B0F0BD80B5012393
:1036100001F01EFE80BD0000002804BF002070479E
:10362000416A0968002908BF704700BF4869416ABC
:1036300009680029FAD17047B0B584B0016A044620
:103640000868C068457CC86001F06EFE0246002034
:10365000294601F035FAD4E90821C860D06801F0A4
:10366000C1FED4E90812ADF80E00CB68D568D3E9E5
:1036700002120120082400900DF10E032846019447
:1036800001F074FE002004B0B0BD000000207047BF
:1036900010B50446FCF72AFE002818BF846110BD4F
:1036A00080B582B0019040F29410C2F2000001A9EE
:1036B00001224FF6FF73FEF729FA019802B080BD90
:1036C000B0B50446006AC068457C01F02DFE024694
:1036D0000020294601F0F4F9D4E90821C860D16836
:1036E00001F0F6FD0020B0BDB0B5016AC46BC96839
:1036F0000D68084601F076FE024628462146FCF792
:1037000042FD0020B0BD000070B584B005467820B1
:1037100001F066FA044600284FF0000029D002228A
:10372000227743F2E96243F2C163C0F60002C0F6B9
:10373000000304F14001C4E90123012284F874006C
:10374000204604F15C0684F8582000F047F8206217
:103750002046314600F042F860626868417C0229E8
:1037600009D001290CD140680121038802A8012257
:103770000BE000242FE0406801210288438803E029
:10378000406801884288838802A801F061FDBDF885
:103790000C000299A0862163686801688268E16371
:1037A0001168D4F83220A163218ECDF80A20ADF83B
:1037B000081001F0B9FD024600200321032501F0A5
:1037C0007FF9226AA16BD060082602AB0022009527
:1037D000019601F0F1FD204604B070BD0246084696
:1037E0004A617047B0B550B105460024E86801F061
:1037F000F9FDAD680444002DF8D12046B0BD002489
:103800002046B0BD80B5012301F022FD80BD00003F
:10381000884207D0026822B18842104608BF70472C
:10382000F8E7016070470000B0B501464068827C4F
:10383000102A0BD1046891F90C5001F0D3FD024617
:103840002046294600F042FD0020B0BD046891F9F1
:103850000C5001F0C7FD02462046294600F04AFD03
:103860000020B0BD2DE9F041002908BFBDE8F0817E
:1038700040F2FF7727FA02FCC2F10B020CF1010EB5
:103880001FFA82F8044611E0BFB2013607EA0C07BE
:10389000F6B233F91660AEEB07026A4306FB072265
:1038A00042FA08F50580013920460AD034F9027B36
:1038B00047FA08F6F5B233F915507F2EE4D1ADB2D0
:1038C000F0E7BDE8F08100002DE9F04381B0089DEC
:1038D000B5B19846012303FA08F34FEA6309971E2E
:1038E0008C1E861E36F9020F34F9021F4844084424
:1038F00040FA08F0FFF774F9013D27F8020FF1D103
:1039000001B0BDE8F08300002DE9F04F9DB099466D
:10391000279B0691002B00F0218133992EAF0139AE
:10392000B1FA81F14909D0CF269B0291711E059110
:1039300011440491591E0C91023806990B9006FB14
:1039400009F048434000179004FB09F04600DDE908
:103950002A20289B013C4042214401900020DDF8B0
:10396000B0800E9103FB09F107900020169151429F
:10397000139000200A94039112900EE00298129A7C
:10398000139902442798013113918142299807998C
:1039900012920144079100F0E18036980028EDD0A2
:1039A00000200990019808900AE000BF0999369814
:1039B0000131099181422D98089901440891DDD087
:1039C00035980028F2D02D98DDF824C02B990CFBF7
:1039D00000F0401A0599049B2F9A091A181A91FBB6
:1039E000F2F190FBF2F3299821EAE17E8342C8BF0D
:1039F000034632981299002550F82100089910903A
:103A0000359802FB0E110CFB00F00F900798289AD6
:103A1000704450430D900698039A199300FB0124BB
:103A2000CDF844E024E000BF109B21FA03F0C3F17D
:103A3000200102FA01F10843B3F1200158BF42FA14
:103A400001F0FFF7CDF80F99149D279A139B294495
:103A500001FB0231349ADDF8B08022F8110035986C
:103A6000159C0135309FDDF844E0854244449DD0EB
:103A70002A9905FB08F0431A0E982E99C01A90FB5C
:103A8000F1F028998842C8BF08468FB11399319A3E
:103A900017F901C01299329F52F8212057F821706E
:103AA0000CFA02F10122BA4001EB620108E000BF0A
:103AB0003299129A51F82210012202FA01F14910AA
:103AC000199ACDE9145496454FEAE172ACDA0A9F8F
:103AD0000C9DFB1A2E9FCDF870E093FBF7F323EAC1
:103AE000E37C0D9B07FB0C47634409FB035A09FB6E
:103AF00007F30B9FCDF860C007EB430710E000BF52
:103B0000169BDDF86CA01C9F9A44199B01371C97EB
:103B10009F42179B1A9FDDF860C01F443FF484AF9B
:103B20008445CDE91A7A07DBEAE700BF0CF1010C06
:103B3000CA4484453744E3D0B9F1000FF6D03D467E
:103B4000D6464C4635F902BF1EF9018F08FB0BF330
:103B5000C91842EBE372013CF4D1E7E71DB0BDE8C0
:103B6000F08F00002DE9F04F99B09B46239B059103
:103B7000002B00F00481DDE92E81DDE92AC6013940
:103B8000B1FA81F14909229D0191711E04911144FC
:103B90000391691E0B91013805990A9006FB0BF001
:103BA00048431590DDE92620249EACF10103194419
:103BB00040422C9FDDF8A0E00D9106FB0BF1009038
:103BC0000020149151420CFB0BF6069000204FF0A0
:103BD00000090993029111900DE000BF019811991D
:103BE000814423980131119181422598069901441D
:103BF000069100F0C48032980028EFD00020089091
:103C00000098CDF8389007900AE000BF08993298E4
:103C10000131089181422998079901440791DDD02B
:103C200031980028F2D02998DDF820C027990CFBA4
:103C300000F0401A0499039B2B9A091A181A90FB5A
:103C4000F2F3259891FBF2F18342C8BF0346319805
:103C500021EAE17A0CFB00F007990F90069802FB2D
:103C60000A11249A504450430C900598029A00245B
:103C700000FB01251793CDF840A01DE0DDF8B880CA
:103C8000DDF8389058F8290041FA00F0FEF79EFF61
:103C90000F99129C239A119B214401FB0231309A07
:103CA000DDF8A0E050543198139D01342C9FDDF8CD
:103CB00040A084427544A9D0269904FB0EF0421A14
:103CC0000D982A99801A90FBF1F024998842C8BF78
:103CD00008466FB111992D9B795653F8293058F841
:103CE000297099400123BB4001EB630106E000BF4E
:103CF00058F82910012303FA01F14910179BCDE967
:103D000012459A45BADA099B0B9F9A1A2A9B92FB95
:103D1000F3F222EAE27C0C9A03FB0C5362440BFBA5
:103D2000027E0A9A55460BFB0329CDF858C00BE0DA
:103D3000149ADDF860E001359644179ADDF858C012
:103D40009542159A914499D08445CDF860E0EFDA18
:103D50004A4605E00CF1010CDE4484453244E7D0CC
:103D6000BBF1000FF6D0174673465C4617F901AF5A
:103D700013F9018F013C08FB0A11F7D1EAE719B0EA
:103D8000BDE8F08F2DE9F04F91B089461D9EDDE929
:103D90001B8B00219246B1EB930F074600F0268162
:103DA000012000FA08F0401002900AF001009A0881
:103DB0004FEA5A040390381F0190CDF82CB0CDE99A
:103DC0000443CDE9067A72E0B2F9000098460B464A
:103DD00099F9001099F9012041430C9F1AEB010A4F
:103DE000099C47EBE17702FB00F199F90220641886
:103DF0004CEBE17C02FB00F118EB01084BEBE17BA3
:103E000099F9031009F1040248431B1845EBE075CA
:103E10005046AA46E146CDF83C800E931092CEF172
:103E2000200520FA0EF007FA05F10843F04639465E
:103E3000BEF1200758BF41FA07F0FEF7D1FE26F881
:103E4000080B24FA08F009FA05F10843002F58BFBF
:103E500049FA07F0FEF7C4FE26F8060C0F980BFA95
:103E600005F120FA08F00843002F58BF4BFA07F07D
:103E7000FEF7B6FE26F8040C0E980AFA05F120FAB1
:103E800008F00843002F58BF4AFA07F0FEF7A8FED3
:103E90000A9ADDF870B0013ADDE90443DDE9067AFB
:103EA000DDF84090110426F8020C00F0A180BBF16F
:103EB000000F0A9278D00B9B1A9993F9000093F99E
:103EC0000120029D88408A4000EB050A02EB050CA8
:103ED00093F902204FEAEA700C904FEAEC708A40A6
:103EE0000D90501993F9032086468A4051194FEAE4
:103EF000E07B0433CD170B93002C62D0019ACDF8F0
:103F00003CE0D646DDF830A0A9F108032746089624
:103F1000109532F9045F13F9084F0E91B2F902605F
:103F200093F9021093F901006C4393F9038001FBAC
:103F3000064193F90440684393F9069008FB060094
:103F400093F905806C4309FB064493F9079008FB3D
:103F500005F509FB06551EEB010E0D9E4AEBE17AB5
:103F60001CEB000C46EBE0760F980E9900190F90B1
:103F700010984BEBE47B491940EBE5701090109DD5
:103F8000013F38040D96C3D103F10809089EDDF8FE
:103F90006C800F9BCDF824C0DDF834C0CDF830A084
:103FA0000432F24613E000BFDDF808C04FEAEC75BA
:103FB0006146E646AB4660460D95E2460C95002C00
:103FC0009CD1CDF824C0DDF834C03A46734603983E
:103FD000C64600287FF4F8AE099C0C9FCDF84090AF
:103FE0005046AA460F93E1460E9118E7CDF82CB043
:103FF00013F003043FD01B9901208840C8464FEAC4
:104000006009B81E109012E01B9BC3F12002D8403B
:1040100001FA02F21043B3F1200258BF41FA02F054
:10402000FEF7DEFD013C210426F8020B23D0BBF194
:10403000000F07D00B9911F9010B0B911A998840C9
:10404000484400E04846BAF1000F4FEAE071DBD087
:10405000109BB446A8F10102574600BF33F9026F26
:1040600012F9015F6E43801941EBE671013FF5D112
:10407000D0446646C8E711B0BDE8F08F2DE9F04F97
:104080008BB00A91179FDDE915B600219246B1EB7E
:10409000930F00F0DE80012101FA0BF149109A081C
:1040A0004FEA9A0402910AF00305011FCDE9056069
:1040B000CDE903430795CDE9001A23E0159C4EFA9C
:1040C00004F0FEF783FD099F07F8040B48FA04F09B
:1040D000FEF77CFD07F8030C49FA04F0FEF776FDC5
:1040E00007F8020C4BFA04F0A346FEF76FFD089A9E
:1040F00007F8010C013ADDE90343DDE90605110487
:1041000000F0A780002EB446CDE9082776D0059EA2
:10411000149B96F90110029F96F90220994001EB39
:10412000070802FA03F196F9000001EB070996F976
:1041300003109840994000EB070E321D01EB070B6E
:104140000592002C61D00A98009AA0F11001234634
:1041500011F9105F12F9046F91F9050092F902400C
:1041600005FB06EE91F9045000FB06BB91F9020035
:1041700092F9017091F901C005FB069991F9085077
:1041800000FB04E00CFB068C92F903A091F90A6095
:1041900005FB070091F9035006FB0A0E91F909602F
:1041A00005FB04C591F90B0006FB075691F9065073
:1041B00000FB0A6891F9070005FB049600FB04B0B8
:1041C00091F90C5091F90D4005FB076604FB0700BF
:1041D00091F90E7091F90F5007FB0A6905FB0A0B64
:1041E000013B1804B4D1DDF804A0169E079D01F12F
:1041F000100004320A906DB960E700BFDDF808E0F6
:10420000F346F146F046002C9DD1069A6646002DF5
:104210003FF454AF0A98B446011F013A2B4600BF41
:1042200011F9040F12F9017F91F9016000FB07EE0B
:1042300006FB078891F9020091F9036000FB0799DA
:1042400006FB07BB013B1804EAD1081D66460A902D
:1042500034E713F0030835D0012101FA0BF14FEADE
:104260006109013809900AE040FA0BF0FEF7AEFC54
:10427000A8F101085FEA084107F8010B22D04EB10E
:1042800016F9010B149988404844BAF1000F06D181
:10429000EAE700BF00264846BAF1000FE4D00A9CC6
:1042A000099AB446611ED64612F9016F11F9015FF1
:1042B000BAF1010A05FB0600F6D1F24674446646DF
:1042C0000A94D1E70BB0BDE8F08F0000002A08BFC8
:1042D000704700BFB0F90030B3F1FF3F04DC4B433F
:1042E00003EB5363DB090380013A00F10200F1D1D3
:1042F00070470000002A08BF704700BF90F90030E7
:10430000B3F1FF3F04DC4B4303EB5363DB09037062
:10431000013A00F10100F1D1704700002DE9F043AE
:1043200081B0089DB5B19846012303FA08F34FEA1E
:104330006309971E8C1E861E36F9020F34F9021F80
:1043400001FB009040FA08F0FEF74AFC013D27F817
:10435000020FF1D101B0BDE8F083000080B5002B61
:1043600008BF80BDA0F1020E013900BF3EF902CFA7
:10437000013B4CFA02F001F8010FF7D180BD0000BB
:104380000023B3EBD20F2AD04FEAD20C08381039F1
:1043900010F8083FBCF1010C4FEA032321F8103F4D
:1043A00043784FEA03234B8083784FEA03238B80C3
:1043B000C3784FEA0323CB8003794FEA03230B81B1
:1043C00043794FEA03234B8183794FEA03238B819F
:1043D000C3794FEA0323CB81DAD10830103112F0D0
:1043E000070208BF70470138023900BF10F8013FCB
:1043F000013A4FEA032321F8023FF7D1704700004A
:1044000080B545F67433C0F60003FFF72BFA80BD84
:104410002DE9F04F81B093460C46074681B1791ED5
:104420004FF6FF60224600BF11F9013F06B29E42DF
:10443000B8BF1846013AF7D108380FFA80FA01E000
:104440006FF4847A4FF00008ACB14FF001093E469A
:10445000254603E0013D06F101060CD096F9000067
:104460008245F7DAA0EB0A00FEF7CAFBC0B209FAF0
:1044700000F08044EEE7E4B14FF4801090FBF8F8D0
:104480000AF10D090FE000BFA9EB0000FEF7B8FB31
:10449000C0B248FA00F0FEF799FB0BF8010B013CA3
:1044A00007F1010705D097F900008245ECDB0020F9
:1044B000F3E701B0BDE8F08F80B545F67453C0F660
:1044C0000003FFF7CFF980BD0020704710B5D0E999
:1044D0000EE201469268D0E910C3806C1268CC6885
:1044E0001044226AC01AD26848659068DEF8082035
:1044F0000468D2F800E0E31A73440B65DCF8083076
:10450000006812681B681044C01A0A8E4B8EC8657A
:1045100002EB420458004FEA820C00EBC400C1E9F0
:104520000A0C98180A2303EB8000424300204A63D8
:1045300010BD00002DE9F04F89B00446E268218EDD
:104540001269D4F820801268636A1568B0F84400D4
:1045500008EB410703EB410205EBC10905EB011B29
:1045600001EB41010590A0690892628E05EBC1063E
:10457000314606930797FFF703FFA06B236C016892
:10458000208EB4F85C704FEA800CB4F850001B68C1
:104590000837628EBFB24FF0000ACDE90070CDE956
:1045A00002391FFA8CF33046CDF810A0FFF7EAFB72
:1045B000E06B228E0168B4F854009300CDE900A0AE
:1045C0009BB24046CDE902ABCDF810A0FFF7DAFB75
:1045D000208E5946870048462A4600230097FFF759
:1045E00073F9218E01EB410005EB400A059805EBBC
:1045F0004107C0F1070086B22846324605EB810824
:10460000FFF7FEFE218E38463246FFF7F9FE218E77
:1046100050463246FFF7F4FE218E40463246FFF701
:104620004BFFB4F84C00268EC0F1160083B228462A
:1046300041464A460096FFF771FEDDE90651268E97
:1046400038462A460F230096FFF768FE089E278EFD
:1046500048462946324600230097FFF735F9208E59
:10466000314642005846FBF78EFDB4F84C00218ECF
:10467000C0F1070082B25846FFF71EFF278E504652
:1046800059462A460F230097FFF748FEE169238E1B
:1046900028460822FFF762FE002009B0BDE8F08F2F
:1046A00010B50446602000F09BFA00B344F2355187
:1046B000C0F6000144F2CD4244F2C943C0F6000204
:1046C000C0F6000380E80E00A18B04F1040C018603
:1046D000032101759CE80E1000F1380E8EE80E00E3
:1046E000D4E905210461C164C0E911C210BD0020F4
:1046F00010BD0000FCF76EFBFEF73EF8FDF7F8FD7D
:10470000FDF7DCFDFDF76CFFFDF786FFFDF7A0FF71
:10471000FDF774FEFDF752FEFDF792FEFDF716FF62
:1047200040F24050C2F200004FF4005100F0D4FAC1
:10473000FDF7F4FC00F06AFA40F26C2040F23841D8
:10474000C2F20000C2F200010160FDF7C7FC00BF29
:10475000FEE70000F0B581B004460DA000F05CFE5D
:1047600004F11807002412A5002600BF57F80C2FEB
:1047700028463146144400F04FFE0136082EF5D18C
:104780000EA0214600F048FE204601B0F0BD00BF5B
:104790004D656D6F727920636F7374206279206547
:1047A00061636820626C6F636B3A0A20000000004E
:1047B000626C6B5F25643A25642020000A204D65F9
:1047C0006D6F727920636F7374206279206E6574E7
:1047D000776F726B20627566666572733A20256426
:1047E0002062797465730A00024608464A61704780
:1047F000B0B551B1054600680C46FEF70DFF68B133
:10480000216A406A0160086009E046F21C20C0F697
:10481000000001F059F8F92040B2B0BD2C60002032
:1048200040B2B0BD70B582B004460120002C0190AA
:104830006FD0002975D01546216062601AB908460C
:10484000FEF7EAFE60603FA000210422032300F08F
:10485000E3FD46F27E10C0F6000001F035F83FA0FF
:1048600001F032F840F2D840C2F20000016843A0E3
:1048700000F0D2FD49A001F027F846F27420C0F6FE
:10488000000001F021F846F21C10C0F6000001F013
:104890001BF8224652F8200B01AB0146FEF7C4FA82
:1048A00046F21C10C0F6000001F00EF8287F032825
:1048B0000DD045F6941100EB4000C0F6000101EB6D
:1048C000800145F6B270C0F6000000F0A5FD20465C
:1048D000FFF740FF064600F083F938B3054640F283
:1048E0003440C2F20000016846F20100C0F6000048
:1048F00000F092FD20462946FEF72AFA204600F0F5
:104900001BFD204600F084FC204600F09DF80020AE
:1049100014E046F26020C0F6000000F0D5FFFF2052
:104920000CE025A000F0D0FFFF2007E046F22300B6
:10493000C0F60000314600F06FFDF92040B202B031
:1049400070BD00BF4E4E6F4D2076657273696F6EFD
:104950002025642E25642E25640A000044617461BC
:1049600020666F726D61743A204368616E6E656C8B
:10497000206C617374202848574329005374617474
:104980006963206D656D6F72792073697A65207334
:10499000657420746F3A2025640A000053746172B4
:1049A0007420636F6D70696C696E67206D6F6465EC
:1049B0006C2E2E2E000000004572726F723A204E4F
:1049C000554C4C206F626A6563742E0070B50446C6
:1049D00000284FF000000FD00D46002908BF70BD21
:1049E000686AFEF78DF9216A06460846FEF79AF9CD
:1049F000696A30600160204670BD000080B51346D2
:104A00000A46022100F002F880BD000082B0B0B575
:104A100082B00692079378B10D46044606A8012994
:104A200001900ADB0198011D019101682046FFF702
:104A3000CDFF013DF6D100E00024204602B0BDE8E4
:104A4000B04002B07047000003680021002200BFA0
:104A500043B1D3F828C01B6811EB0C0142F10002EE
:104A6000002BF5D1C0F880107047000010B520B1C0
:104A700088210446FBF7A0FB06E0882000F0B0F890
:104A80000446012084F8850044F2F170C0F600006D
:104A900044F6CD1144F6FD1244F60D2344F2E97CB0
:104AA00004F1080EC0F60001C0F60002C0F60003D3
:104AB000C0F6000C8EE80F002046C4F818C010BDE8
:104AC0002DE9F04381B00446894620B1012C26D15E
:104AD0004FEA820801E04FF004081420042100F09E
:104AE0003BF84FEA490706463846042100F034F8FF
:104AF00006EB4801084400F073F8A8B100F1140572
:104B0000064645603846042100F026F8284400EBAC
:104B10000801C6E9020186F81190347405E005A089
:104B200000F0D2FE002600E00026304601B0BDE8CD
:104B3000F08300BF4552524F523A2074656E736F36
:104B4000722074797065206E6F742073706563696C
:104B50006669656400000000B0FBF1F202FB11021F
:104B6000891A002A18BF08447047000070470000E7
:104B7000002804BF0020704701460020496801302A
:104B80000029FBD17047000080B50421FFF7E4FF46
:104B900040F2D44CC2F2000C40F2D841DCF80030B4
:104BA000C2F2000109681A188A4208D240F2D040C5
:104BB000C2F200000068CCF80020184480BD39B172
:104BC00046F26200C0F6000000F026FC002080BD26
:104BD00046F2C710C0F6000000F01EFC002080BDA9
:104BE000B0B50421FFF7B8FF0446FFF7CDFF054637
:104BF00050B140F23440C2F200000168214401602B
:104C000028462146FBF7D8FA2846B0BDF0B581B05A
:104C100040F29310FEF7B0F840F23844C2F20004BC
:104C20002046FFF723FF45F64430C0F60000FEF7AC
:104C30006BFD054645F60810E668C0F60000FEF775
:104C400021FB2946B047064649F69A10A769C3F6E4
:104C50009960FEF71FF83146B847064645F65430CE
:104C6000E768C0F60000FFF71BFD45F64C31C0F6C3
:104C7000000100F08BFA3146B847064645F6403051
:104C8000E768C0F60000FEF703FD3146B847064668
:104C900045F62430E768C0F60000FEF777FC3146A1
:104CA000B847064645F67C70E768C0F6000000F09D
:104CB00001FB3146B847064645F67470E768C0F612
:104CC000000000F02BF83146B8470246204629463E
:104CD000FFF7A8FD01B0F0BD40F2D042C2F20002E1
:104CE000106040F2D840C2F20000016040F2D440AF
:104CF000C2F200000021016070470000B0B5D0E9A9
:104D00000812C46BC968D0680D6800F06BFB0246DE
:104D100020462946FBF737FA0020B0BDB0B505465E
:104D2000FEF7F2FC044680B10320207744F6FD40F4
:104D3000C0F600006060206A43F2ED31C068C0F642
:104D40000001A561A160FFF711FF2046B0BD000082
:104D50002DE9F04F81B00446006A0D46FEF742FD92
:104D6000616A80460846FEF73DFD216981460029BB
:104D700014BFD1F804A04FF0000A207FD4F828B067
:104D80000B2815D145F69410C0F6000000F18402FE
:104D900054A0294600F040FB206B45F67411007DBD
:104DA000C0F6000101EBC00151A000F035FB0BE0A3
:104DB00045F6941100EB4000C0F6000101EB8002C3
:104DC00044A0294600F028FB606950B1007A45F6FE
:104DD0003411C0F6000101EBC00147A000F01CFB3C
:104DE00002E047A000F018FB282000F067FD002734
:104DF00048A546A606E000BF304600F00DFB01378F
:104E0000032F0BD0606AC068417C8F42F4D24068A7
:104E100030F81710284600F0FFFAF0E73FA000F046
:104E2000FBFABBF1000F08D042F20F70834508D89F
:104E300043A0594600F0F0FA43E043A000F0ECFA3A
:104E40003FE044F24020C0F20F0083450AD244F60E
:104E5000D350C1F26200ABFB0001890936A000F01B
:104E6000DBFA2EE04CF60022C3F69A32934513D2B9
:104E70004DF68361C4F21B31ABFB0112910C01FBB7
:104E800010B041F25972CDF2B712A0FB0202520BE0
:104E900026A000F0C1FA14E044F683314FEA5B200B
:104EA000C0F20401A0FB0101C90901FB12B04CF6DC
:104EB0006B22C6F65F32A0FB0202920D18A000F032
:104EC000ABFA24A041464A46534600F0A5FA01B089
:104ED000BDE8F08F23252D336420252D313073203C
:104EE0002D20000023252D336420252D33732F0022
:104EF000252D3673202D2000252D3873202D2000E0
:104F00002020202020202020202D200020202020B4
:104F1000200000002534642C00000000292020001F
:104F20002533642E25303264472000002533642E5B
:104F3000253032644D2000002536646B20000000CF
:104F40002537642000000000202020202020202081
:104F500000000000282536642C2536642C25366494
:104F600029000000F0B581B0044611A000F054FA09
:104F700004F10806002710A40EA507E0204600F063
:104F80004BFA0137082F06F10C060BD0B80702D1F7
:104F9000202000F093FC31780029EFD0284600F063
:104FA0003BFAEEE70A2000F089FC01B0F0BD00BF3B
:104FB00020202000256420002D200000017A0029F7
:104FC0001CBF01390172017A002904BF002141721E
:104FD0007047000080B50069002808BF80BD0068E8
:104FE000FFF7ECFF80BD000010B5046A002C08BF7D
:104FF00010BD00BF2069FFF7E1FFA468002CF9D1C4
:1050000010BD000010B50446006A0168C968C1609F
:10501000487C4968022888BF023194F83A00098820
:1050200000284FF0000021870CD002210022FFF75A
:1050300047FD218F4268236B1180616A1B8EC86017
:10504000538009E001210022FFF73AFD216B626ADB
:10505000098E4368D0601980216A626AC968D26883
:105060008B7CD4F814C00721102B906808BF0F2147
:10507000BCF1000F0160937407D09CF80800FDF7A5
:1050800001FE616AC96889680860206AC06800F02A
:105090004BF9216B4A68488608469047206B216986
:1050A000D0E90A2040004A60FFF79AFD606338B1FA
:1050B000206B218F406B4843A062002040B210BD9E
:1050C000F92040B210BD000010B50446006B8168A5
:1050D000002918BF8847606BFFF748FD002010BD0E
:1050E0002DE9F04F81B00446006AC0684168427CF7
:1050F00001EB420131F804AC00F016F9D4E90C1BC5
:1051000094F83B20CD6A80461AB969005846FBF7EF
:1051100053F894F83A0030B1206BB0F83090BAF1FF
:10512000000F05D12EE04FF00009BAF1000F29D091
:105130000BEB050600274FF0FF3500BFD4E908024E
:1051400094F83C10C368D26800293946206B1B686C
:1051500018BF0AEB0501126801FB083301FB0921A6
:105160000268C0E90631016A5B4659450CBF334607
:105170003146C0E90831904728B90137BA45A5F151
:105180000105DBD1002001B0BDE8F08F2DE9F04131
:10519000054684200E46FFF723FDA8B3044600F120
:1051A000400100F15C0700F178080B202077012016
:1051B00084F8580084F8740084F880002046FEF7D4
:1051C0000DFB206220463946FEF708FB606245F27F
:1051D000E100C0F6000045F2050145F2C902231DB9
:1051E000C0F60001C0F6000207C33079C4F8108091
:1051F00084F83A00B6F80500A661A4F83B00204602
:105200002563EC60BDE8F0810020BDE8F08100007E
:1052100080B508B1006838B908A000F055FBFF2040
:1052200040B280BD006830B141690029FAD0426ABD
:10523000D2684A60F6E7002040B280BD4572726FC6
:10524000723A204E554C4C206F626A6563742E0092
:105250000180428083807047B0B5016A04460868C7
:10526000C068457CC86000F05FF80246002029460F
:10527000FFF726FCD4E90821C860D16800F028F8BF
:10528000606A0722C068816800200A60B0BD000023
:10529000B0B50446006A616AC0680568C86800F075
:1052A000A1F8616AC9680A6801462846FFF7B0F8A4
:1052B0000020B0BD10B50446FDF71AFA002818BF4B
:1052C000846110BD80B50123FFF7C2FF80BD0000DF
:1052D00070B504460D46087C217C88420AD1697C61
:1052E000627C914206D1012806D1284600F01CF8C4
:1052F000860002E0002070BD0426AA7CA068A96890
:10530000A2743246FAF73FFFE068E9683246FAF7DE
:105310003AFF687C696860746A7C60685200FAF7DA
:1053200032FF204670BD00004168407C01EB400028
:1053300030F8020C704700000068002804BF00200D
:105340007047016A39B100BFD1E9033212681A60AF
:1053500089680029F8D1416A0029EDD0D1E90332EA
:1053600012681A6089680029F8D1E5E72DE9F04153
:105370000E46DDE9061804464174406815464A00A9
:105380001946FAF700FF207C012804D12046FFF7D8
:10539000CBFF870000E00427A06831463A4684F836
:1053A0001280FAF7F0FEE06829463A46FAF7EBFE7B
:1053B0002046BDE8F0810000F0B581B00D46DDE982
:1053C000061706464174406814464A001946FAF723
:1053D000DAFED6E90201B774056030460C6001B010
:1053E000F0BD0000002804BF002070474268437CE5
:1053F00001461088022B38BF7047497C023A0229C7
:1054000098BF0221494200BF9388013158434B1C89
:1054100002F10202F8D170470FB4054B10B503A991
:10542000044A029800F018F810BC5DF814FB000064
:10543000A13600080000002002E008C8121F08C1C1
:10544000002AFAD170477047002001E001C1121F05
:10545000002AFBD1704700002DE9FF4F8DB00F46A9
:105460000546002606E025280BD0DDE90F129047FF
:105470006D1C761C28780028F5D111B03046BDE8A7
:10548000F08F0024A246A1460122EC4900E004432B
:1054900015F8013F203B02FA03F00842F7D12878C3
:1054A0002A2810D06FF02F022878A0F130010929A6
:1054B00014D80AEB8A0102EB410144F0020400EB2C
:1054C000010A6D1CF0E701CF5FEA000A03D544F43E
:1054D0000054CAF1000A44F002046D1C28782E28FA
:1054E00017D115F8010F44F004042A280ED06FF0EC
:1054F0002F022878A0F1300109290AD809EB890187
:1055000002EB410100EB01096D1CF2E757F8049B27
:105510006D1C28786C280FD006DC4C2817D0682822
:105520000DD06A2814D104E0742810D07A280FD145
:105530000DE044F400140AE044F4801401E044F463
:1055400040146978814202D104F580146D1C6D1CF1
:105550002A786E2A1FD00CDC632A31D004DC002AA2
:105560008BD0582A11D1A3E0642A68D0692A0CD1C3
:1055700065E0732A2ED004DC6F2A73D0702A04D120
:105580009BE0752A6FD0782A6ED01046DDE90F12A5
:105590009047761C50E1C4F30250022806D003283D
:1055A00009D0042801CF09D0066045E101CFF117E9
:1055B000C0E9006140E101CF06803DE106703BE1BA
:1055C00017F8040B8DF8000000208DF80100EB4661
:1055D000012003E057F804BB4FF0FF3061074FF0A4
:1055E000000102D40DE008F10101884649450FDAB7
:1055F0008045F8DB1BF808100029F4D108E008F119
:10560000010188468142FADB1BF808100029F6D117
:10561000DDE90F23AAEB08008146214600F036F9A8
:10562000304400EB080604E0DDE90F121BF8010B23
:105630009047B8F10108F7D221464846F7E00A2121
:10564000C4F302534FF0000B0891022B04D001CF9A
:10565000C117032B09D00AE0FF1D27F00707F7E861
:10566000020108E032E01FE020E000B2C117042B85
:1056700001D140B2C117031E71F1000307DA4FF0E8
:10568000000CD0EB0C006CEB01012D2302E0230594
:1056900004D52B238DF82430012303E0E30701D048
:1056A0002023F7E7984658E00A2110E010210EE089
:1056B00010204FF0000B08900CE010214FF0000B71
:1056C00044F004044FF00809089103E008214FF06A
:1056D000000B0891C4F30253022B04D001CF002128
:1056E000032B06D006E0FF1D27F00707F7E80201AD
:1056F00003E080B2042B00D1C0B24FF000082307B2
:105700002BD5702A07D0DDF820C08CF0100C5CEA95
:105710000B0C05D00EE040238DF82430012308E067
:1057200050EA010306D030238DF824308DF825206F
:1057300002239846DDF820C08CF0080C5CEA0B0CC4
:105740000BD150EA010301D1630706D530238DF850
:1057500024304FF00108A9F10109582A04D038A2D9
:105760000B9208AA0A920BE03AA2F9E75B46089A64
:10577000FAF7D8FC0B9B9B5C0A9A521E0A92137094
:1057800050EA0102F2D10A98ADEB000000F1200BC3
:10579000600702D524F4803401E04FF00109D945B7
:1057A00002DDA9EB0B0000E0002000EB0B014144FF
:1057B0000890AAEB010AE00306D4DDE90F23214695
:1057C000504600F063F806444FF0000908E009A9CC
:1057D00011F80900DDE90F12904709F10109761C63
:1057E000C145F4DBE0030CD5DDE90F23214650462B
:1057F00000F04CF8064404E0DDE90F123020904739
:10580000761C0899481E08900029F5DC08E00A98E3
:105810000A990078491C0A91DDE90F129047761C1D
:10582000BBF10001ABF1010BF1DC21465046DDE993
:105830000F2300F019F806446D1C1BE6092801002F
:1058400030313233343536373839616263646566F6
:1058500000000000303132333435363738394142B8
:1058600043444546000000002DE9F0410446002570
:105870001E461746880404D405E039462020B04768
:105880006D1C641EF9D52846BDE8F0812DE9F04174
:10589000044600251E469046C80301D5302700E087
:1058A0002027880404D505E041463846B0476D1CE2
:1058B000641EF9D52846BDE8F08100000149FDF7D6
:1058C000EFBE00000000002010B5044601E0FDF727
:1058D000E7FE14F8010B04490028F8D1BDE8104098
:1058E0000A20FDF7DDBE00000000002000000000DF
:1058F0000000000001020304060708090000000080
:105900000102030402000000905F00080000000094
:1059100018630008D86200083059000804590008CC
:105920001E00000003000300000001000100000051
:1059300008000000556E6B6E6F776E0052654C5517
:10594000000000004C6B7952654C55004164765262
:10595000654C550054616E48000000005369676D46
:105960006F69640048726454616E48004872645301
:1059700069676400556E6B6E6F776E0053696D706A
:105980006C65000047525500000000004C53544D18
:1059900000000000556E6B6E6F776E000000000017
:1059A000426173650000000000000000496E7075E0
:1059B00074000000000000004F75747075740000E2
:1059C00000000000436F6E763244000000000000CB
:1059D00044575F436F6E763244000000436F6E762B
:1059E000324454727370000042617463684E6F7287
:1059F0006D00000044656E7365000000000000004B
:105A00005A65726F506164000000000043726F704D
:105A100070696E6700000000524E4E0000000000EA
:105A20000000000041637469766174696F6E000064
:105A300052654C5500000000000000004C65616B91
:105A4000795F52654C5500004164765F52654C5554
:105A5000000000005369676D6F696400000000007A
:105A600054616E680000000000000000536F66740F
:105A70006D617800000000004D6178506F6F6C0020
:105A800000000000474C5F4D6178506F6F6C000064
:105A9000417667506F6F6C0000000000474C5F411B
:105AA0007667506F6F6C000053756D506F6F6C00B0
:105AB00000000000474C5F53756D506F6F6C000025
:105AC000557053616D706C6500000000466C617428
:105AD00074656E00000000005265736861706500B7
