:020000040800F2
:1000000080400020010100081D82000849590008B5
:1000100019820008510E00086594000800000000D5
:1000200000000000000000000000000095860008AD
:10003000D90E00080000000085820008C187000872
:100040001B0100081B0100081B0100081B01000820
:100050001B0100081B0100081B0100081B01000810
:100060001B0100081B0100081B0100081B01000800
:10007000550E00081B010008650E00081B01000852
:100080001B010008750E00081B0100081B01000879
:100090001B0100081B0100081B0100081B010008D0
:1000A0001B0100081B0100081B0100081B010008C0
:1000B0001B0100081B010008358800085D59000875
:1000C0004D5900081B0100081B0100081B01000816
:1000D0001B01000835940008459400085594000859
:1000E0001B0100081B0100081B010008DFF80CD0F1
:1000F00000F0F4FA00480047E5FC000880400020CA
:100100000648804706480047FEE7FEE7FEE7FEE7B1
:10011000FEE7FEE7FEE7FEE7FEE7FEE731880008C0
:10012000ED000008421C10F8011B0029FBD1801AC9
:10013000704730B505460020034600E05B1C934243
:1001400005D2EC5CC85C201A01D1002CF6D130BD80
:100150002DE9F04791460F4680460446002614F8E4
:10016000015B2DB100F074F80068405DC007F6D166
:100170002B2D02D02D2D18D0641E4A46394620461C
:1001800000F07CF827B13968A14201D1C7F800809E
:1001900071054FF002040BD54042002803DD13F037
:1001A0001FFD0460A007BDE8F08746F48066E4E721
:1001B0000028F8DA13F014FD04606FF00040F2E755
:1001C00030B50B46014600202022012409E021FA27
:1001D00002F59D4205D303FA02F5491B04FA02F524
:1001E0002844151EA2F10102F1DC30BD2DE9F05FBB
:1001F0000546002092469B46884606468146402496
:100200001BE0284641464746224600F088FA5346FE
:100210005A46C01A914110D311461846224600F0A2
:100220006FFA2D1A67EB01084F4622460120002184
:1002300000F066FA17EB00094E41201EA4F10104FC
:10024000DFDC484631462A464346BDE8F09F0000C1
:10025000004870475452010840EA01039B0703D04D
:1002600009E008C9121F08C0042AFAD203E011F8F5
:10027000013B00F8013B521EF9D270472DE9F05FB7
:1002800082460078002715468B460AF10104B946DC
:10029000302801D09DB113E014F8010B0127782814
:1002A00003D0582801D045B10AE00DB1102D07D177
:1002B0000027102514F8010B02E0082500E00A25AC
:1002C0000026B0460EE005FB080005FB06F10127FD
:1002D00001EB10461FFA80F8B6F5803F00D3B9460F
:1002E00014F8010B294600F03CFA0028EBDABBF1C8
:1002F000000F05D00FB1641E00E05446CBF800405B
:10030000B9F1000F06D013F06BFC02210160C81E8A
:10031000BDE8F09F48EA0640FAE72DE9FE4F804627
:1003200081EA0300C00F0C46009021F0004123F049
:100330000045B8EB0200A94105D24046214690464F
:100340001C460B46024623F00040104347D0270DC1
:10035000C7F30A00C3F30A510290401A01904028E3
:100360006BDAC3F3130040F4801B0098924620B16F
:100370000023D2EB030A63EB0B0B01985946C0F143
:100380004002504600F0BCF906460D46504659461C
:10039000019A00F0D4F910EB08006141002487EACB
:1003A000115284EAE7731A4340D0009A62B3019A6B
:1003B000012A4FEA075215DC001B61EB02014FF0E6
:1003C000004202EA0752CDE90042001C41F58011CB
:1003D00032462B4600F0E2F903B0BDE8F08F40460C
:1003E0002146F9E7001B61EB0201001C41F5801377
:1003F00000185B412018A2F5001747EB030140EA03
:10040000D570B6196D4111E06D084FEA360645EA20
:10041000C0754FEA0752001B61EB0201001C41F559
:10042000801149084FEA30000019514132462B46ED
:1004300003B0BDE8F04F00F0A2B9009801224000DF
:100440000023D0EB020263EBE073009821464FEAF1
:10045000E074B8EB000061EB0401E9E783F00043CE
:100460005BE781F0004158E72DE9FE4F81EA030484
:1004700004F0004421F0004100944FF0000B23F001
:10048000004350EA01045ED052EA03045BD0C3F398
:100490000A54C1F30A552C44A4F2F3340194A0FB8E
:1004A0000254C1F3130141F48011C3F3130343F465
:1004B000801301FB024400FB034E840A970A44EABE
:1004C000815447EA8357A4FB076802958D0A05FB10
:1004D00007854FEA932C04FB0C542705029D4FEA35
:1004E000065847EA1637B5EB08056EEB070C870E82
:1004F000920E47EA811742EA8312A7FB0201B6EB8C
:100500000B0164EB00042B0D43EA0C335E1844EB43
:100510001C50DA465146E7FB0201C5F313044FEACB
:100520000B3343EA14534FEA0432019C43EA0603B7
:10053000A4F10C040294009CCDE900B400F02EF963
:1005400003B0BDE8F08F00200146F9E72DE9F04D3A
:1005500081EA030404F0004B21F0004514464FF0FB
:10056000000A23F0004150EA050220D054EA0102BB
:100570001DD0C5F30A570246C5F31303C1F3130098
:10058000C1F30A5640F4801543F48013A7EB060824
:10059000101BD64608F2FD3873EB050002D308F1B4
:1005A000010801E092185B41B8F1000F03DA002066
:1005B0000146BDE8F08D00204FF4801106468446C8
:1005C0000EE0171B73EB050705D3121B63EB050346
:1005D00006434CEA010C49084FEA300092185B418F
:1005E00050EA0107EDD152EA030012D082EA04007A
:1005F00083EA0501084305D0101BAB4106D2012256
:10060000002306E000224FF0004302E06FF00102F9
:1006100053101AEB06004CEB085110EB0A0041EBAB
:100620000B01BDE8F04D00F0AAB870B521F0004311
:1006300003430CD0C1F30A550024D5EB040564EB49
:100640000403D617AD1AB34102DB0020014670BD8A
:10065000201841EB025170BD0EB5C10F80EAE07069
:100660000844CA07002140F233438DE80E000A46D1
:100670000B4600F093F803B000BDC1F30A52C1F37A
:10068000130140F2FF3341F480119A4202DA002054
:100690000146704740F233439A42A2F2334202DCF1
:1006A000524200F03CB800F02BB8000030B5041EF8
:1006B00071F1000404DB4FF00044404264EB01019F
:1006C000141E73F1000405DB1C464FF00043524238
:1006D00063EB0403994208BF904230BD064C074DBE
:1006E00006E0E06840F0010394E807009847103402
:1006F000AC42F6D3FFF7FEFC0C8601082C860108FD
:10070000202A04DB203A00FA02F1002070479140D1
:10071000C2F1200320FA03F3194390407047202AC6
:1007200004DB203A21FA02F00021704721FA02F39B
:10073000D040C2F120029140084319467047202A58
:1007400006DBCB17203A41FA02F043EAE07306E0F9
:1007500041FA02F3D040C2F1200291400843194609
:1007600070473A2800D2303820F02002412A01D3C5
:10077000A2F13700884201D34FF0FF30704710B527
:10078000141E73F1000408DA401C41F100019218B4
:100790005B411A4301D120F0010010BD2DE9F04D5D
:1007A00092469B4611B1B1FA81F202E0B0FA80F2B2
:1007B00020329046FFF7A4FF04460F4640EA0A00A5
:1007C00041EA0B0153465A46084313D0114653EAF7
:1007D000010019D0C8F140025046FFF7A0FF0546BE
:1007E0000E46504659464246FFF78AFF084305D059
:1007F000012004E020463946BDE8F08D0020054385
:1008000046EAE0762C4337430A986305E40AA0EBF6
:1008100008000022FD0A44EA47540A3002D50020AD
:100820000146E9E7010510196941DDE908450019AC
:100830006941BDE8F04DA2E72DE9F04D00231A46CD
:100840001B1A8A4103DB00200146BDE8F08DC1F38D
:100850000A52C1F3130141F480154FF0000BD10788
:1008600002D100186D41521E0027044640F2FF11CC
:10087000384601EB620A3E468046024600204FF4AD
:100880008011FFF74CFFC2197141BB1846EB010004
:10089000B4EB030C75EB000C04D3E41A65EB000514
:1008A00017460E46241908F101006D418046342890
:1008B000E3DDF91946EB0600091BA84103D24FF00E
:1008C000FF32134601E0002213461BEB070046EB04
:1008D0000A51BDE8F04DFFF752BFD2B201E000F877
:1008E000012B491EFBD270470022F6E710B51346D4
:1008F0000A4604461946FFF7F0FF204610BD80EA7D
:10090000010210B502F00043400022D04A001FD07F
:10091000010E01EB1261C0F35600C2F3560240F41F
:10092000000042F40002A0FB022000047F391404FE
:1009300000D0401C50EA124001D44000491EC2B20F
:100940000C0604EBD010401C4008802A02D003E0C3
:10095000002010BD20F00100002900DA002018431B
:1009600010BDC10F80EAE0700844CA079623002139
:1009700000F054B800F0004220F00040C10DC0F378
:10098000160040F400007F2901DA00207047962904
:1009900003DCC1F19601C84001E096398840002A85
:1009A000F4D04042704770B5C1F30A5201F00045DF
:1009B0000024C1F3130140F2FF3341F480119A4245
:1009C00001DA002070BD40F233439A42A2F2334272
:1009D00003DC5242FFF7A3FE00E090402C43F1D02D
:1009E000404270BD00F0004230F000400AD0C10D1E
:1009F00001F56071C0F3160042EA0151C2084007D8
:100A0000114370470020014670470029A8BF704776
:100A1000401C490008BF20F00100704710B4B0FA34
:100A200080FC00FA0CF050EA010404BF10BC7047CF
:100A300049B1CCF1200421FA04F411FA0CF118BFE9
:100A4000012121430843A3EB0C01CB1D4FEA0061B8
:100A50004FEA102042BF002010BC704700EBC3508B
:100A600010440029A4BF10BC7047401C490008BFB7
:100A700020F0010010BC70472DE9F041054621F03F
:100A800000400C46284309D0C4F30A5040F23341D9
:100A9000884205DD28462146BDE8F0812846FBE76F
:100AA00040F2FE31884210DC0CDB4FEA043040EAB1
:100AB000155050EA053105D0104804F000410143BB
:100AC0000020E9E700200146E6E7A0F23340464275
:100AD000C6F1400228462146FFF712FE0746884627
:100AE000284621463246FFF71AFE43463A46FFF7AC
:100AF00046FE3246BDE8F041FFF702BE0000F03F7F
:100B000030B5041E71F1000404DB4FF00044404294
:100B100064EB0101141E73F1000405DB1C464FF069
:100B20000043524263EB04038B4208BF824230BD54
:100B300070B58D1810F8014B14F0030201D110F8B4
:100B4000012B231106D110F8013B03E010F8016BD3
:100B500001F8016B521EF9D1ABB110F8012B04F072
:100B60000C048A1A0C2C03D0A2EB84129B1C08E004
:100B700010F8014BA2EB0422F8E712F8014B01F840
:100B8000014B5B1EF9D5A942D4D3002070BD0000F3
:100B900080B582B00190009140F25A50C2F200003C
:100BA0000078653803282FD8DFE800F0020D1823FD
:100BB000019840F21001C2F200010160009840F279
:100BC0004B11018027E0019840F25B11C2F2000155
:100BD0000160009840F2351101801CE0019840F25C
:100BE0009021C2F200010160009840F25D11018085
:100BF00011E0019840F2ED31C2F20001016000986D
:100C00004FF4B6710180FFE748F2F330C0F60100FF
:100C100012F0C2FFFFE702B080BD0000B0B582B0A5
:100C200008F09CFCADF80600BDF8061047F6F2305F
:100C3000C0F6010012F0B0FF0025ADF80450009599
:100C400048F29F40C0F6010012F0A6FF6C46204615
:100C500008F03CFC48F23E40C0F6010012F09CFF58
:100C6000204607F019FD40F6C620C2F2000085704C
:100C7000012101700A224270C570017102B0B0BD3D
:100C800010B582B00020ADF80400009040F25A5038
:100C9000C2F2000000788DF8000040F6C620C2F2D3
:100CA000000081788DF8011001788DF802104178EC
:100CB0008DF80310C1788DF8041000798DF80500C7
:100CC00048F26040C0F6010012F066FF6C46204614
:100CD00008F0CAFB204607F0DFFC02B010BD0000A0
:100CE00010B5ADF6080D02AC20464FF40061FFF7D9
:100CF000FBFD00200190ADF8020001A80DF10201FA
:100D0000FFF746FF0198BDF802100DF0CDF920461F
:100D10000DF096FAADF800000DF064FABDF8001081
:100D2000204606F06DFC0DF6080D10BD80B582B0B2
:100D30008DF807009DF807000B2800F27C80DFE8A3
:100D400000F0060D141B223A50575E656C7340F696
:100D5000C620C2F200000121017074E040F6C620F6
:100D6000C2F20000002101706DE040F6C620C2F220
:100D700000000021817066E040F6C620C2F200004B
:100D8000012181705FE040F6C620C2F20000407889
:100D900001300E2807DCFFE740F6C620C2F2000053
:100DA0004078013001E00E20FFE740F6C621C2F294
:100DB0000001487047E040F6C620C2F200004078CB
:100DC00010B9FFE7002006E040F6C620C2F200009E
:100DD00040780138FFE740F6C621C2F200014870B2
:100DE00031E040F6C620C2F200000021C1702AE0C6
:100DF00040F6C620C2F200000121C17023E040F697
:100E0000C620C2F20000002101711CE040F6C6209D
:100E1000C2F200000121017115E040F6C620C2F2C5
:100E20000000022101710EE040F6C620C2F200006F
:100E30000321017107E09DF8070040F25A51C2F208
:100E400000010870FFE7FFF71BFF02B080BD000044
:100E5000FFE7FEE780B542F62850C2F2000000F03E
:100E600047F980BD80B542F64460C2F2000000F050
:100E70003FF980BD80B542F68860C2F2000000F004
:100E800037F980BD84B003900291019200930398DA
:100E9000C16B006C012202FA00F0486000980399CF
:100EA0000968486003984068102809D1FFE7019855
:100EB000039909688860029803990968C86008E086
:100EC0000298039909688860019803990968C860C5
:100ED000FFE704B0704700007047000081B0EFF3F7
:100EE000108072B60090FFE7FEE7000080B586B084
:100EF0006820019001980FF0FBFC0490049818B949
:100F0000FFE70020059029E0049830300390039813
:100F10001C30029004981A21017704984CF2E57174
:100F2000C0F60001416004984CF28D71C0F60001DA
:100F300081600398012101760298002101760498CE
:100F400003990CF089F904990862049802990CF04D
:100F500083F90499486204980590FFE7059806B064
:100F600080BD000083B0019000208DF8030001983F
:100F700090F8210002280DD0FFE701980421816339
:100F8000FFE70198002180F82010FFE701208DF88D
:100F90000B0022E001980068016821F00E01016059
:100FA00001980068016821F0010101600198C16B9E
:100FB000006C012202FA00F04860FFE7019801216D
:100FC00080F82110FFE70198002180F82010FFE74A
:100FD0009DF803008DF80B00FFE703B07047000099
:100FE00080B582B0019000208DF80300019890F840
:100FF0002100022807D0FFE7019804218163012026
:101000008DF8030067E001980068016821F00E0187
:10101000016001980068016821F0010101600198F8
:1010200000680821C4F20201884202D1FFE70120D2
:101030003AE0019800681C21C4F20201884202D102
:10104000FFE710202FE0019800683021C4F2020170
:10105000884203D1FFE74FF4807023E001980068D5
:101060004421C4F20201884203D1FFE74FF48050CB
:1010700017E0019800685821C4F20201884203D1A8
:10108000FFE74FF480300BE0019801686C22C4F256
:1010900002024FF08070914208BF4FF48010FFE7CA
:1010A000FFE7FFE7FFE7FFE70421C4F20201086062
:1010B0000198012180F82110FFE70198002180F8B4
:1010C0002010FFE70198406B20B1FFE70198416BCA
:1010D0008847FFE7FFE79DF8030002B080BD0000EE
:1010E00081B00090009890F8210001B07047000096
:1010F00080B584B003900398C06B00680290039899
:1011000000680068019002980399096CC840400784
:10111000002866D5FFE79DF804004007002860D549
:10112000FFE70398006800688006002807D4FFE7FF
:1011300003980068016821F004010160FFE703984B
:1011400000680821C4F20201884202D1FFE70420AE
:101150003AE0039800681C21C4F20201884202D1DF
:10116000FFE740202FE0039800683021C4F202011D
:10117000884203D1FFE74FF4806023E003980068C2
:101180004421C4F20201884203D1FFE74FF48040BA
:1011900017E0039800685821C4F20201884203D185
:1011A000FFE74FF480200BE0039801686C22C4F243
:1011B00002024FF08060914208BF4FF48000FFE7C9
:1011C000FFE7FFE7FFE7FFE70421C4F20201086041
:1011D0000398C06A20B1FFE70398C16A8847FFE718
:1011E000A8E002980399096CC8408007002870D5D0
:1011F000FFE79DF80400800700286AD5FFE7039801
:1012000000680068800600280BD4FFE70398006898
:10121000016821F00A0101600398012180F8211082
:10122000FFE7039800680821C4F20201884202D156
:10123000FFE702203AE0039800681C21C4F2020193
:10124000884202D1FFE720202FE003980068302178
:10125000C4F20201884203D1FFE74FF4007023E09B
:10126000039800684421C4F20201884203D1FFE7D9
:101270004FF4005017E0039800685821C4F20201AF
:10128000884203D1FFE74FF400300BE00398016878
:101290006C22C4F202024FF00070914208BF4FF47A
:1012A0000010FFE7FFE7FFE7FFE7FFE70421C4F2D5
:1012B00002010860FFE70398002180F82010FFE793
:1012C0000398806A20B1FFE70398816A8847FFE7A7
:1012D0002FE002980399096CC8400007002827D521
:1012E000FFE79DF804000007002821D5FFE70398D9
:1012F0000068016821F00E0101600398C16B006C69
:10130000012202FA00F0486003988263039880F893
:101310002120FFE70398002180F82010FFE70398C1
:10132000006B20B1FFE70398016B8847FFE7FFE7F9
:10133000FFE7FFE704B080BD83B00190002000907C
:10134000019820B9FFE701208DF80B0047E00198D4
:1013500001684FF6F872CBF6FD7211444CF6CD429F
:10136000CCF6CC42A1FB02126FF0030101EA92011C
:10137000016401980021C4F20201C16301980221B5
:1013800080F821100198006800680090009843F6EA
:10139000F071884300900198D0F804C08268C36857
:1013A000016942EA0C021A431143426911438269FE
:1013B0001143C069084300990843009000980199BF
:1013C000096808600198002181630198012280F872
:1013D0002120019880F820108DF80B10FFE79DF870
:1013E0000B0003B07047000080B586B004900391F5
:1013F0000292019300208DF80300FFE7049890F813
:101400002000012804D1FFE702208DF817004CE0EE
:101410000498012180F82010FFE7FFE7049890F876
:101420002100012832D1FFE70498022180F8211021
:1014300004980021816304980068016821F001018B
:10144000016004980399029A019BFFF71BFD049821
:10145000C06A38B1FFE704980068016841F00E01E6
:1014600001600CE004980068016821F0040101604B
:1014700004980068016841F00A010160FFE70498E0
:101480000068016841F00101016009E0FFE704988C
:10149000002180F82010FFE702208DF80300FFE70D
:1014A0009DF803008DF81700FFE79DF8170006B0C0
:1014B00080BD000080B584B0039000F0C5F90290B3
:1014C000039801900198013020B1FFE701980130A5
:1014D0000190FFE7FFE700F0B7F90299401A019980
:1014E000884201D2FFE7F6E704B080BD8AB00990D8
:1014F0000891002007900390FFE70898006807997B
:10150000C840002800F06A81FFE70798012101FA2E
:1015100000F0069008980068069908400590059824
:101520000699884240F05681FFE7089840680028F5
:1015300046D0FFE7012830D0FFE7022836D0FFE78A
:10154000032857D0FFE711282BD0FFE7122832D00D
:10155000FFE70021C1F21101884231D0FFE70021ED
:10156000C1F2120188422BD0FFE70021C1F2210114
:10157000884225D0FFE70021C1F2220188421FD016
:10158000FFE70021C1F23101884219D0FFE70021B5
:10159000C1F23201884213D02FE00898C06803904E
:1015A0002CE00898C0680430039027E00898C068D1
:1015B0000830039022E00898C0680C3003901DE0CA
:1015C0000898806818B9FFE70420039011E0089894
:1015D0008068012806D1FFE7082003900698099942
:1015E000086105E008200390069809994861FFE723
:1015F000FFE703E00020039000E0FFE70598FF28E5
:1016000002D8FFE7099802E009980430FFE702904A
:101610000598FF2803D8FFE70798800005E00798A2
:101620006FF01F0101EB8000FFE701900298006856
:1016300001990F228A409043039A02FA01F108436C
:10164000029908600898C079C006002840F1C1805E
:10165000FFE7FFE741F21800C4F20200016841F021
:1016600001010160006800F0010000900098FFE7B0
:10167000079820F003000821C4F2010140580490AB
:10168000079800F0030080000F2101FA00F0049990
:1016900021EA00000490099840F60001C4F201011B
:1016A000884202D1FFE700201FE0099840F6004180
:1016B000C4F20101884202D1FFE7012014E0099839
:1016C00041F20001C4F20101884202D1FFE7022089
:1016D00009E0099941F20042C4F20102042091425A
:1016E00008BF0320FFE7FFE7FFE7079901F00301C9
:1016F000890088400499084304900498079921F0D0
:1017000003010822C4F20102885008988079C006BB
:10171000002809D5FFE7059840F20841C4F201010D
:101720000A681043086009E0059840F20841C4F2D5
:1017300001010A6822EA00000860FFE70898807942
:101740008006002809D5FFE7059840F20C41C4F255
:1017500001010A681043086009E0059840F20C4155
:10176000C4F201010A6822EA00000860FFE7089855
:1017700080798007002809D5FFE7059840F20441E9
:10178000C4F201010A681043086009E0059840F2BC
:101790000441C4F201010A6822EA00000860FFE780
:1017A00008988079C00748B1FFE7059840F20041EA
:1017B000C4F201010A681043086009E0059840F28C
:1017C0000041C4F201010A6822EA00000860FFE754
:1017D000FFE7FFE70798013007908EE60AB07047F1
:1017E00082B040F60041C4F201010191ADF802005F
:1017F00001988068BDF80210084204D0FFE701207C
:101800008DF8010003E000208DF80100FFE79DF84E
:10181000010002B07047000082B00190ADF80210E4
:101820008DF801209DF8010028B1FFE7BDF8020006
:101830000199086105E0BDF8020000040199086102
:10184000FFE702B07047000042F6CC60C2F2000031
:101850000068704781B0009001B0704782B001907D
:101860008DF80310ADF8002002B0704780B58AB043
:1018700009900998006840690490099800684068D8
:10188000039000200290099890F83E008DF8070020
:101890009DF81100C007A8B1FFE79DF80D00C00733
:1018A00080B1FFE7029840F00100029009980068BB
:1018B0006FF48071416109980068016841F400414A
:1018C0000160FFE79DF8110000F002000021B1EB7C
:1018D000500F0FD0FFE79DF80D00C00750B1FFE794
:1018E000029840F002000290099800686FF40071BD
:1018F0004161FFE79DF8110000F004000021B1EB09
:10190000900F50D0FFE79DF80D00C00700284AD087
:10191000FFE79DF807008DF823000998408D079098
:10192000099890F83D008DF81B000998006B059010
:101930009DF8230020281AD1FFE70798B8B9FFE7E0
:101940009DF81B0021280ED0FFE79DF81B002928D9
:1019500009D0FFE79DF81B00282808D1FFE705986C
:10196000212804D1FFE7099805F038FA1AE0099810
:1019700000686FF480614161029840F004000290B9
:101980009DF80700102805D0FFE79DF807004028C4
:1019900007D1FFE709980068016841F40071016010
:1019A000FFE7FFE7FFE79DF8110000F008000021C6
:1019B000B1EBD00F0FD0FFE79DF80D00C00750B17D
:1019C000FFE7029840F008000290099800686FF461
:1019D00000614161FFE7029848B1FFE70298099969
:1019E0000A6C10430864099804F098F8FFE70AB0FD
:1019F00080BD000080B586B005900020039005985A
:101A00000068406802900598C06A0190059890F8B7
:101A10003E008DF80300059890F83D008DF8020017
:101A20009DF80300102806D0FFE79DF8030040282A
:101A300040F0FD80FFE705980068806903900598F5
:101A40000068406904900498C00788B9FFE70199CD
:101A50000120B1F52A0F07D0FFE7019800F1AC4053
:101A6000B0FA80F04009FFE7C00708B1FFE7A1E145
:101A70000498C00780B1FFE79DF8090000F002005C
:101A80000021B1EB500F07D0FFE7059803F06EFF80
:101A9000059804F01FFEC9E09DF8100000F0080052
:101AA0000021B1EBD00F0DD0FFE79DF8090000F049
:101AB00002000021B1EB500F04D0FFE7059804F0BD
:101AC00039FCB2E09DF8100000F002000021B1EBFB
:101AD000500F0DD0FFE79DF8090000F00200002133
:101AE000B1EB500F04D0FFE7059804F047FC9BE0F2
:101AF0009DF80C0000F004000021B1EB900F50D0D5
:101B0000FFE705980068406800F40060B0F5006FDA
:101B100046D0FFE79DF810000021B1EBD01F16D092
:101B2000FFE79DF8090000F004000021B1EB900FE1
:101B30000DD0FFE79DF8100000F004000021B1EB8C
:101B4000900F04D1FFE7059804F054FB27E09DF8BF
:101B5000100000F004000021B1EB900F1DD0FFE752
:101B60009DF8090000F002000021B1EB500F14D0E5
:101B7000FFE79DF80200212804D1FFE7059804F053
:101B8000C9FA09E09DF80300402804D1FFE7059851
:101B900004F018FEFFE7FFE700E0FFE7FFE7FFE7DD
:101BA00041E005980068406800F40060B0F5006FFF
:101BB00038D0FFE79DF8100000F040000021B1EBA5
:101BC000901F16D0FFE79DF8090000F004000021E7
:101BD000B1EB900F0DD0FFE79DF8100000F004006E
:101BE0000021B1EB900F04D1FFE7059804F0DCF978
:101BF00017E09DF8100000F004000021B1EB900FF9
:101C00000DD0FFE79DF8090000F002000021B1EBC4
:101C1000500F04D0FFE7059804F0F0F800E0FFE76C
:101C2000FFE7FFE7FFE7FFE7FFE7FFE7C2E0059811
:101C3000006C28B1FFE7059800684069049008E04F
:101C400005980068806903900598006840690490D1
:101C5000FFE79DF8100000F002000021B1EB500FEB
:101C600017D0FFE79DF8090000F002000021B1EB5A
:101C7000500F0ED0FFE70598006C28B1FFE70598DC
:101C8000006880690390FFE70598039905F04EF816
:101C90008FE09DF8100000F010000021B1EB101F44
:101CA0000DD0FFE79DF8090000F002000021B1EB24
:101CB000500F04D0FFE7059805F002F978E09DF891
:101CC0000200212805D0FFE79DF80200292836D11F
:101CD000FFE79DF810000021B1EBD01F16D0FFE701
:101CE0009DF8090000F004000021B1EB900F0DD029
:101CF000FFE79DF8100000F004000021B1EB900F09
:101D000004D1FFE7059804F0DBFF17E09DF8100011
:101D100000F004000021B1EB900F0DD0FFE79DF81B
:101D2000090000F002000021B1EB500F04D0FFE7E2
:101D3000059804F0AFFF00E0FFE7FFE737E09DF80C
:101D4000100000F040000021B1EB901F16D0FFE71B
:101D50009DF8090000F004000021B1EB900F0DD0B8
:101D6000FFE79DF8100000F004000021B1EB900F98
:101D700004D1FFE7059804F055FF17E09DF8100027
:101D800000F004000021B1EB900F0DD0FFE79DF8AB
:101D9000090000F002000021B1EB500F04D0FFE772
:101DA000059804F027FF00E0FFE7FFE7FFE7FFE704
:101DB000FFE7FFE706B080BD81B0009001B070473B
:101DC00080B584B042F65C30C2F200000290029806
:101DD00020B9FFE701208DF80F002AE1029890F862
:101DE0003D0040B9FFE70298002180F83C100298BE
:101DF00000F0B0FCFFE70298242180F83D10029823
:101E00000068016821F00101016002980068016822
:101E100041F40041016002980068016821F400412A
:101E2000016000F0DBFE00900298406848F2A0617B
:101E3000C0F2010188420AD8FFE7009948F28042C7
:101E4000C0F21E020020914238BF012009E0009933
:101E500040F60012C0F23D020020914238BF01203E
:101E6000FFE7012804D1FFE701208DF80F00E0E033
:101E700000984DF68361C4F21B31A0FB0101880C70
:101E8000019002980068406820F03F0001990843E3
:101E900002990968486002980068006A20F03F00D3
:101EA0000299496848F2A062C0F20102914203D847
:101EB000FFE7019901310DE001994FF4967251430A
:101EC00044F6D352C1F26202A1FB0212012101EBDE
:101ED0009211FFE7084302990968086202980068B6
:101EE000C0694CF6FF7188430299496848F2A062C4
:101EF000C0F2010291421BD8FFE700990139029A12
:101F000052685200B1FBF2F101316FF31F31032926
:101F100002D8FFE704210AE000990139029A5268C9
:101F20005200B1FBF2F101316FF31F31FFE742E0E4
:101F30000299896861B9FFE700990139029A5268EC
:101F400002EB4202B1FBF2F101316FF31F310CE001
:101F500000990139029A526819235A43B1FBF2F1F0
:101F60000131042262F31F31FFE7090511B9FFE7D0
:101F700001211FE00299896861B9FFE700990139E1
:101F8000029A526802EB4202B1FBF2F101316FF3A7
:101F90001F310CE000990139029A526819235A4303
:101FA000B1FBF2F10131042262F31F31FFE741F48A
:101FB0000041FFE7FFE7084302990968C8610298FA
:101FC0000068006820F0C00002990A68CB69096ABD
:101FD00019430843106002980068806848F2FF3196
:101FE000884302990A68CB680969194308439060DD
:101FF00002980068C06820F0FF0002990A684B69E7
:10200000896919430843D06002980068016841F06B
:10201000010101600298002101640298202280F8E9
:102020003D2002980163029880F83E108DF80F1051
:10203000FFE79DF80F0004B080BD000081B0009064
:1020400001B0704781B0009001B0704781B000903E
:1020500001B0704781B0009001B0704781B000902E
:1020600001B0704780B594B042F65C33C2F2000311
:102070000E93D123ADF83630ADF834000120ADF821
:1020800032000B91ADF82A2040F6FF700990002035
:102090000890FFF7D9FB07900E9890F83D00202894
:1020A00040F04882FFE70E98079900910221C0F2A4
:1020B00010010122192305F07FF820B1FFE702206B
:1020C0008DF83F003AE2FFE70E9890F83C000128B7
:1020D00004D1FFE702208DF83F002FE20E98012186
:1020E00080F83C10FFE7FFE70E9800680068C00723
:1020F00038B9FFE70E980068016841F001010160FE
:10210000FFE70E980068016821F4006101600E98F5
:10211000222180F83D100E98402180F83E100E9844
:10212000002101640B980E994862BDF82A000E99AF
:1021300048850E98408D0E9908850E980021CFF69F
:10214000FF71C1620E98BDF83610BDF83420BDF89D
:102150003230DDF824C0DDF81CE0CDF804E0CDF825
:1021600000C004F0C3FB20B1FFE701208DF83F0061
:10217000E4E10E98008DA0B9FFE7FFE7002006908C
:102180000E980068406906900E9800688069069075
:102190000698FFE70E980068016841F4007101603D
:1021A0005DE00E98008D01281FD1FFE70E980068B2
:1021B000016821F480610160EFF3108072B6109025
:1021C000FFE7002005900E980068406905900E9882
:1021D0000068806905900598FFE70E98006801681F
:1021E00041F40071016062B638E00E98008D02285B
:1021F0001FD1FFE70E980068016841F4006101609B
:10220000EFF3108072B61190FFE7002004900E9853
:102210000068406904900E980068806904900498F2
:10222000FFE70E980068016821F48061016062B6E2
:1022300013E00E980068016841F480610160FFE7D7
:10224000002003900E980068406903900E98006883
:10225000806903900398FFE7FFE7FFE7FFE7FFE7E9
:102260000E98008D002800F05381FFE70E98008D36
:10227000032800F20581FFE70E98008D01281ED18A
:10228000FFE70E980999079A05F0BCF820B1FFE71F
:1022900001208DF83F0051E10E98006800690E9909
:1022A000496A08700E98416A013141620E98018DA9
:1022B000013901850E98418D01394185DFE00E9885
:1022C000008D022840D1FFE70E98099B07990091E5
:1022D0000421C0F20101002204F06EFF20B1FFE7EB
:1022E00001208DF83F0029E1EFF3108072B61290C3
:1022F0000E980068016841F4007101600E98006852
:1023000000690E99496A08700E98416A013141626C
:102310000E98018D013901850E98418D0139418555
:1023200062B60E98006800690E99496A08700E98A6
:10233000416A013141620E98018D013901850E9883
:10234000418D0139418599E00E98099B07990091CB
:102350000421C0F20101002204F02EFF20B1FFE7AA
:1023600001208DF83F00E9E00E980068016821F433
:1023700080610160EFF3108072B613900E980068D0
:1023800000690E99496A08700E98416A01314162EC
:102390000E98018D013901850E98418D01394185D5
:1023A00040F26050C2F20000006848F21F51C5F2CE
:1023B000EB11A0FB0101C80844F6D351C1F2620140
:1023C000A0FB01018809232148430890FFE70898F2
:1023D000013808900898D0B9FFE70E9800210163F2
:1023E0000E98202280F83D200E9880F83E100E981E
:1023F000016C41F02001016462B6FFE70E980021F4
:1024000080F83C10FFE701208DF83F0096E0FFE7E1
:102410000E980068406900F004000021B1EB900FB5
:10242000D5D0FFE70E980068016841F400710160A3
:102430000E98006800690E99496A08700E98416A02
:10244000013141620E98018D013901850E98418D4F
:102450000139418562B60E98006800690E99496A93
:1024600008700E98416A013141620E98018D013960
:1024700001850E98418D01394185FFE7FFE746E070
:102480000E980999079A04F0BDFF20B1FFE70120DB
:102490008DF83F0052E00E98006800690E99496A75
:1024A00008700E98416A013141620E98018D013920
:1024B00001850E98418D013941850E98006840696B
:1024C00000F004000121B1EB900F1FD1FFE70E983F
:1024D000008D032807D1FFE70E980068016821F4FA
:1024E00080610160FFE70E98006800690E99496AF3
:1024F00008700E98416A013141620E98018D0139D0
:1025000001850E98418D01394185FFE7FFE7A7E678
:102510000E98202180F83D100E98002180F83E1082
:10252000FFE70E98002180F83C10FFE700208DF8AF
:102530003F0003E002208DF83F00FFE714B080BDAC
:1025400080B58AB042F65C32C2F200020892D02214
:10255000ADF81E20ADF81C000120ADF81A00059161
:10256000ADF8120040F6FF700390FFF76DF902908E
:10257000089890F83D00202840F0E580FFE7089893
:10258000029900910221C0F210010122192304F0E6
:1025900013FE20B1FFE702208DF82700D7E0FFE708
:1025A000089890F83C00012804D1FFE702208DF83C
:1025B0002700CCE00898012180F83C10FFE7FFE7F6
:1025C000089800680068C00738B9FFE708980068F5
:1025D000016841F001010160FFE7089800680168A7
:1025E00021F4006101600898212180F83D100898CD
:1025F000402180F83E100898002101640598089950
:102600004862BDF81200089948850898408D0899DD
:10261000088508980021CFF6FF71C1620898BDF8BF
:102620001E10BDF81C20BDF81A30DDF80CC0DDF816
:1026300008E0CDF804E0CDF800C004F041FA20B184
:10264000FFE701208DF8270081E0FFE70898008D63
:10265000002849D0FFE708980399029A04F07CFF0C
:1026600080B1FFE70898006C042807D1FFE70898BD
:102670000068016841F400710160FFE701208DF8F6
:10268000270064E008980168406A007808610898AB
:10269000416A013141620898018D0139018508982C
:1026A000418D0139418508980068406900F00400B7
:1026B0000121B1EB900F16D1FFE70898008D90B182
:1026C000FFE708980168406A007808610898416A45
:1026D000013141620898018D013901850898418DC9
:1026E00001394185FFE7B1E708980399029A04F0A0
:1026F0000DFD80B1FFE70898006C042807D1FFE7C3
:1027000008980068016841F400710160FFE701204A
:102710008DF827001BE008980068016841F40071FB
:1027200001600898202180F83D100898002180F869
:102730003E10FFE70898002180F83C10FFE70020DA
:102740008DF8270003E002208DF82700FFE70AB08C
:1027500080BD000080B588B00790002006900590ED
:10276000049003900798006845F20041C4F200010C
:1027700088424CD1FFE7FFE741F21800C4F20200A3
:10278000016841F008010160006800F00800029053
:102790000298FFE74FF4407003901220049003204A
:1027A000069040F60040C4F2010003A9FEF79EFE29
:1027B000FFE70420C4F2010001680191019941F092
:1027C000E0610191019941F00201019101990160DB
:1027D000FFE7FFE741F21C00C4F20200016841F488
:1027E00000110160006800F4001000900098FFE7FD
:1027F0001F20002100F09EF81F2000F091F82020FB
:10280000002100F097F8202000F08AF8FFE708B0D8
:1028100080BD000081B0009001B0704781B0009091
:1028200001B0704742F6CC60C2F20000016801318D
:102830000160704780B542F20000C4F202000168F6
:1028400041F01001016000F08DF80F2000F004F855
:1028500000F034F880BD000080B582B0009040F2F6
:102860006050C2F20000006844F6D351C1F2620128
:10287000A0FB0101880901F081FA20B1FFE70120E6
:102880008DF8070017E000980F280CD8FFE7009993
:102890004FF0FF3000F04EF8009840F25C51C2F269
:1028A0000001086003E001208DF8070003E000202C
:1028B0008DF80700FFE702B080BD000083B0FFE79E
:1028C00041F21800C4F20200016841F00101016008
:1028D000006800F0010002900298FFE7FFE741F274
:1028E0001C00C4F20200016841F0805101600068E0
:1028F00000F0805001900198FFE7FFE70420C4F248
:10290000010001680091009921F0E06100910099B7
:1029100041F00071009100990160FFE703B070473A
:1029200080B582B08DF807009DF9070006F03AFFE8
:1029300002B080BD10B584B08DF80F000291002068
:102940000190009006F048FF00909DF90F4000981C
:102950000299019A05F064FC0146204606F044FF06
:1029600004B010BD80B582B003200190019806F03C
:102970005DFF02B080BD000080B584B002900220EF
:102980000190029820B9FFE701208DF80F001BE1AC
:10299000019842F20001C4F20201096801F0070146
:1029A000884216D9FFE742F20000C4F20200016833
:1029B00021F00701019A11430160006800F007004F
:1029C0000199884204D0FFE701208DF80F00FBE059
:1029D000FFE702980078800700282AD5FFE70298D1
:1029E00000784007002809D5FFE741F20400C4F24F
:1029F0000200016841F4E0610160FFE7029800789D
:102A00000007002809D5FFE741F20400C4F20200E4
:102A1000016841F460510160FFE741F20400C4F233
:102A20000200016821F0F001029A926811430160EE
:102A3000FFE702980078C007002860D0FFE70298FF
:102A4000406801280ED1FFE741F20000C4F2020005
:102A500000688003002804D4FFE701208DF80F00F0
:102A6000B2E021E00298406802280ED1FFE741F26F
:102A70000000C4F2020000688001002804D4FFE7CF
:102A800001208DF80F009FE00DE041F20000C4F23C
:102A9000020000688007002804D4FFE701208DF8B9
:102AA0000F0091E0FFE7FFE741F20400C4F20200EB
:102AB000016821F00301029A526811430160FEF798
:102AC000C3FE0090FFE741F20400C4F20200006878
:102AD00000F00C0002994968B0EB810F0ED0FFE7BF
:102AE000FEF7B2FE0099401A41F28931884204D3C0
:102AF000FFE703208DF80F0066E0E4E7FFE70198A9
:102B000042F20001C4F20201096801F007018842A3
:102B100016D2FFE742F20000C4F20200016821F081
:102B20000701019A11430160006800F00700019954
:102B3000884204D0FFE701208DF80F0044E0FFE752
:102B400002980078400700280CD5FFE741F2040006
:102B5000C4F20200016821F4E061029AD2681143D4
:102B60000160FFE702980078000700280DD5FFE715
:102B700041F20400C4F20200016821F46051029A9B
:102B8000126941EAC2010160FFE700F04BF841F22F
:102B90000401C4F202010968C9B2090947F6B83252
:102BA000C0F60102515CC84040F26051C2F200011F
:102BB000086040F25C50C2F200000068FFF74CFE73
:102BC00000208DF80F00FFE79DF80F0004B080BDD6
:102BD00040F26050C2F200000068704780B5FFF715
:102BE000F7FF41F20401C4F202010968C1F30221B6
:102BF00047F6D832C0F60102515CC84080BD0000E3
:102C000080B5FFF7E5FF41F20401C4F20201096853
:102C1000C1F3C22147F6D832C0F60102515CC84068
:102C200080BD000085B000200490039002900190C8
:102C3000009041F20400C4F202000068049004987D
:102C400000F00C00E8B3FFE7042803D0FFE70828F2
:102C500006D037E041F20020C0F27A00009037E061
:102C60000498C0F3834047F6A831C0F60101085C20
:102C700001909DF81200C007C0B1FFE741F20400C7
:102C8000C4F202000068C0F3404047F22951C0F688
:102C90000101085C0390019841F20021C0F27A0121
:102CA00048430399B0FBF1F0029007E0019840F629
:102CB0000011C0F23D0148430290FFE702980090E6
:102CC00006E0FFE741F20020C0F27A000090FFE743
:102CD000009805B07047000080B586B00490049855
:102CE00020B9FFE701208DF817002DE30498007844
:102CF000C007002800F0AE80FFE741F20400C4F2F4
:102D00000200006800F00C00042813D0FFE741F235
:102D10000400C4F20200006800F00C0008281BD177
:102D2000FFE741F20400C4F202000068C00300287B
:102D300012D5FFE741F20000C4F2020000688003F0
:102D4000002808D5FFE70498406820B9FFE7012074
:102D50008DF81700F8E27CE0FFE704984068B0F5D2
:102D6000803F09D1FFE741F20000C4F20200016890
:102D700041F48031016032E00498406868B9FFE7AF
:102D800041F20000C4F20200016821F480310160C8
:102D9000016821F48021016020E004984068B0F5CA
:102DA000A02F0DD1FFE741F20000C4F2020001683C
:102DB00041F480210160016841F4803101600CE040
:102DC00041F20000C4F20200016821F48031016088
:102DD000016821F480210160FFE7FFE7FFE7FFE7DB
:102DE00004984068D0B1FFE7FEF72EFD0390FFE79F
:102DF00041F20000C4F202000068800300280CD4F5
:102E0000FFE7FEF721FD0399401A652804D3FFE789
:102E100003208DF8170097E2EAE719E0FEF714FDAA
:102E20000390FFE741F20000C4F202000068800353
:102E300000280CD5FFE7FEF707FD0399401A652827
:102E400004D3FFE703208DF817007DE2EAE7FFE7F0
:102E5000FFE7FFE7049800788007002840F18D80A5
:102E6000FFE741F20400C4F20200006810F00C0F0A
:102E700013D0FFE741F20400C4F20200006800F042
:102E80000C00082829D1FFE741F20400C4F2020037
:102E90000068C003002820D4FFE741F20000C4F21C
:102EA000020000688007002809D5FFE70498006940
:102EB000012804D0FFE701208DF8170044E241F219
:102EC0000000C4F20200016821F0F801049A52697E
:102ED00041EAC2010160FFE74EE00498006958B37F
:102EE000FFE70020C4F2422001210160FEF7ACFCA4
:102EF0000390FFE741F20000C4F20200006880077F
:102F000000280CD4FFE7FEF79FFC0399401A032822
:102F100004D3FFE703208DF8170015E2EAE741F23A
:102F20000000C4F20200016821F0F801049A52691D
:102F300041EAC20101601EE00020C4F242200021EB
:102F40000160FEF781FC0390FFE741F20000C4F24C
:102F500002000068800700280CD5FFE7FEF774FC2C
:102F60000399401A032804D3FFE703208DF81700C4
:102F7000EAE1EAE7FFE7FFE7FFE7049800780007E8
:102F8000002847D5FFE70498806910B3FFE740F2B7
:102F90008040C4F2422001210160FEF755FC0390FD
:102FA000FFE741F22400C4F2020000688007002815
:102FB0000CD4FFE7FEF748FC0399401A032804D31A
:102FC000FFE703208DF81700BEE1EAE705F05CF9A2
:102FD0001FE040F28040C4F2422000210160FEF771
:102FE00033FC0390FFE741F22400C4F202000068C2
:102FF000800700280CD5FFE7FEF726FC0399401A4E
:10300000032804D3FFE703208DF817009CE1EAE7CB
:10301000FFE7FFE7049800784007002840F1D880D8
:10302000FFE700208DF8070041F21C00C4F2020007
:103030000068C000002813D4FFE7FFE741F21C003E
:10304000C4F20200016841F080510160006800F0A4
:10305000805000900098FFE701208DF80700FFE7FF
:1030600047F20000C4F200000068C005002822D426
:10307000FFE747F20000C4F20000016841F48071EC
:103080000160FEF7E1FB0390FFE747F20000C4F2A6
:1030900000000068C00500280CD4FFE7FEF7D4FB51
:1030A0000399401A652804D3FFE703208DF8170021
:1030B0004AE1EAE7FFE7FFE70498C068012809D181
:1030C000FFE741F22000C4F20200016841F0010173
:1030D000016031E00498C06868B9FFE741F2200060
:1030E000C4F20200016821F001010160016821F0D1
:1030F000040101601FE00498C06805280DD1FFE7B6
:1031000041F22000C4F20200016841F004010160B4
:10311000016841F0010101600CE041F22000C4F2BD
:103120000200016821F001010160016821F0040141
:103130000160FFE7FFE7FFE7FFE70498C068E0B141
:10314000FFE7FEF781FB0390FFE741F22000C4F2A6
:1031500002000068800700280ED4FFE7FEF774FB2A
:103160000399401A41F28931884204D3FFE70320D2
:103170008DF81700E8E0E8E71BE0FEF765FB039039
:10318000FFE741F22000C4F2020000688007002837
:103190000ED5FFE7FEF758FB0399401A41F289313B
:1031A000884204D3FFE703208DF81700CCE0E8E75E
:1031B000FFE79DF80700012809D1FFE741F21C0055
:1031C000C4F20200016821F080510160FFE7FFE7CF
:1031D0000498C069002800F0B380FFE741F20400C2
:1031E000C4F20200006800F00C00082800F08280A1
:1031F000FFE70498C06902285CD1FFE76020C4F2B1
:10320000422000210160FEF71FFB0390FFE741F21F
:103210000000C4F202000068800100280CD5FFE71E
:10322000FEF712FB0399401A032804D3FFE703209B
:103230008DF8170088E0EAE70498006AB0F5803F4F
:103240000CD1FFE741F20400C4F20200016821F44E
:103250000031049A926811430160FFE741F20400D3
:10326000C4F20200016821F47411049A136A526ACC
:103270001A43114301606020C4F242200121016021
:10328000FEF7E2FA0390FFE741F20000C4F2020009
:103290000068800100280CD4FFE7FEF7D5FA0399F7
:1032A000401A032804D3FFE703208DF817004BE0F2
:1032B000EAE71EE06020C4F2422000210160FEF730
:1032C000C3FA0390FFE741F20000C4F20200006875
:1032D000800100280CD5FFE7FEF7B6FA0399401AE3
:1032E000032804D3FFE703208DF817002CE0EAE75A
:1032F000FFE724E00498C069012804D1FFE701201A
:103300008DF8170020E041F20400C4F202000068CA
:103310000290029800F480300499096A884208D12A
:10332000FFE7029800F470100499496A884204D0BB
:10333000FFE701208DF8170006E0FFE7FFE7FFE752
:1033400000208DF81700FFE79DF8170006B080BD3C
:1033500080B582B042F6B030C2F200000090009812
:1033600020B9FFE701208DF807006DE00098406A62
:1033700060B9FFE700984068B0F5827F01D1FFE7B0
:1033800003E000980021C161FFE705E000980021FB
:10339000016100984161FFE7009800218162009877
:1033A00090F8510040B9FFE70098002180F85010D4
:1033B000009800F04DF8FFE70098022180F85110C6
:1033C00000980068016821F0400101600098D0F881
:1033D00000C042688368C16802F4827203F4044347
:1033E0001A4401F400611144026902F0020211441E
:1033F000426902F001021144826902F40072114430
:10340000C26902F038021144026A02F080021143DC
:10341000806A00F400500843CCF800000098418B0B
:1034200001F004010068416000980068C16921F45E
:103430000061C1610098002141650098012280F877
:1034400051208DF80710FFE79DF8070002B080BDFE
:10345000B0B588B0079000200690059004900390C6
:103460000798006843F60001C4F20001884239D190
:10347000FFE7FFE741F21C00C4F20200016841F4DB
:1034800080410160006800F4804002900298FFE7EC
:10349000FFE741F21800C4F20200016841F00801A0
:1034A0000160006800F0080001900198FFE74FF408
:1034B00020400390022004900320069040F6004430
:1034C000C4F2010403AD20462946FEF70FF84FF47D
:1034D0008040039000200490059020462946FEF786
:1034E00005F8FFE708B0B0BD80B588B042F6B0324D
:1034F000C2F2000206920590ADF81210642003900B
:10350000069890F85100012804D0FFE702208DF8BA
:103510001F000FE106984068B0F5827F14D1FFE7E5
:103520000698806880B9FFE70698042180F851105A
:1035300006980599BDF81230039A00920A4600F0E9
:1035400053FA8DF81F00F5E0FEF77EF9029005981A
:1035500020B1FFE7BDF8120020B9FFE701208DF888
:103560001F00E7E0FFE7069890F85000012804D11B
:10357000FFE702208DF81F00DCE00698012180F8AB
:103580005010FFE7FFE70698042180F851100698D5
:10359000002141650598069A9063BDF81200069ACD
:1035A0009087BDF81200069AD087069801630698A6
:1035B00081860698C186069801640698416406983B
:1035C0008068B0F5004F0DD1FFE7069800680168EC
:1035D00021F04001016006980068016821F48041F3
:1035E0000160FFE706980068006800F0400040288E
:1035F00007D0FFE706980068016841F040010160CC
:10360000FFE70698C068D0BBFFE7FFE70698C08FCA
:10361000A0B3FFE7069800688068C00778B1FFE7AD
:1036200006980068007B0699896B08700698816B84
:10363000013181630698C18F0139C1871DE0FEF712
:1036400003F90299401A0399884204D3FFE70398CB
:10365000013018B9FFE7039870B9FFE70698012118
:1036600080F85110FFE70698002180F85010FFE71E
:1036700003208DF81F005DE0FFE7C7E739E0FFE7B3
:103680000698C08FA0B3FFE7069800688068C0075F
:1036900078B1FFE706980068C0680699896B0880D2
:1036A0000698816B023181630698C18F0139C18709
:1036B0001DE0FEF7C9F80299401A0399884204D325
:1036C000FFE70398013018B9FFE7039870B9FFE7E7
:1036D0000698012180F85110FFE70698002180F834
:1036E0005010FFE703208DF81F0023E0FFE7C7E736
:1036F000FFE706980399029A04F094FE20B1FFE7D1
:10370000069820214165FFE70698012180F85110B5
:10371000FFE70698002180F85010FFE70698406DFB
:1037200020B1FFE701208DF81F0003E000208DF895
:103730001F00FFE79DF81F0008B080BD80B588B06E
:1037400042F6B032C2F2000206920590ADF81210B5
:1037500064200390FEF778F80290BDF81200ADF8EF
:103760000600069890F85100012804D0FFE70220D7
:103770008DF81F0034E1059820B1FFE7BDF8120075
:1037800020B9FFE701208DF81F0029E1FFE7069827
:1037900090F85000012804D1FFE702208DF81F00A7
:1037A0001EE10698012180F85010FFE7FFE7069818
:1037B000032180F851100698002141650598069A6A
:1037C0001063BDF81200069A9086BDF81200069AA2
:1037D000D08606988163069881870698C1870698E7
:1037E00041640698016406988068B0F5004F0DD1D9
:1037F000FFE706980068016821F040010160069823
:103800000068016841F480410160FFE706980068A4
:10381000006800F04000402807D0FFE706980068E5
:10382000016841F040010160FFE70698C068B0F50B
:10383000006F51D1FFE70698406828B1FFE7BDF857
:10384000060001280ED1FFE706980168006B00888A
:10385000C8600698016B023101630698C18E013978
:10386000C186FFE7FFE70698C08EA0B3FFE7069882
:1038700000688068800700280ED5FFE70698016879
:10388000006B0088C8600698016B023101630698DE
:10389000C18E0139C1861DE0FDF7D6FF0299401A9D
:1038A0000399884204D3FFE70398013018B9FFE772
:1038B000039870B9FFE70698012180F85110FFE7DF
:1038C0000698002180F85010FFE703208DF81F00B4
:1038D00086E0FFE7C7E750E00698406828B1FFE7B9
:1038E000BDF8060001280ED1FFE706980168006BBD
:1038F000007808730698016B013101630698C18E48
:103900000139C186FFE7FFE70698C08EA0B3FFE745
:10391000069800688068800700280ED5FFE70698A3
:103920000168006B007808730698016B0131016330
:103930000698C18E0139C1861DE0FDF785FF029909
:10394000401A0399884204D3FFE70398013018B95D
:10395000FFE7039870B9FFE70698012180F851103E
:10396000FFE70698002180F85010FFE703208DF84C
:103970001F0035E0FFE7C7E7FFE706980399029AC3
:1039800004F0AAFD20B1FFE7069820214165FFE77A
:103990000698806870B9FFE7FFE70020009006985E
:1039A0000068C068009006980068806800900098E1
:1039B000FFE7FFE70698012180F85110FFE706981E
:1039C000002180F85010FFE70698406D20B1FFE716
:1039D00001208DF81F0003E000208DF81F00FFE795
:1039E0009DF81F0008B080BD80B58AB0DDF830C0FA
:1039F000089007910692ADF8163001200190FDF76E
:103A000023FF0290089890F851008DF80F00089855
:103A100040680490BDF81600ADF814009DF80F0042
:103A2000012812D0FFE70498B0F5827F09D1FFE7A3
:103A30000898806828B9FFE79DF80F00042804D093
:103A4000FFE702208DF8270094E1079838B1FFE7DF
:103A5000069820B1FFE7BDF8160020B9FFE7012066
:103A60008DF8270086E1FFE7089890F850000128BC
:103A700004D1FFE702208DF827007BE1089801219F
:103A800080F85010FFE7FFE7089890F851000428ED
:103A900005D0FFE70898052180F85110FFE7089846
:103AA000002141650698089A9063BDF81600089AAF
:103AB000D087BDF81600089A90870798089A106377
:103AC000BDF81600089AD086BDF81600089A9086B0
:103AD000089801640898416408980068006800F03C
:103AE0004000402807D0FFE708980068016841F0CF
:103AF00040010160FFE70898C068B0F5006F7DD114
:103B0000FFE70898406828B1FFE7BDF814000128D6
:103B10000ED1FFE708980168006B0088C86008981C
:103B2000016B023101630898C18E0139C186FFE73C
:103B3000FFE70898C18E012031B9FFE70898C08FD0
:103B4000002818BF0120FFE7C007002855D0FFE775
:103B50000898006880688007002818D5FFE7089853
:103B6000C08EA0B1FFE70198012810D1FFE70898A7
:103B70000168006B0088C8600898016B023101631E
:103B80000898C18E0139C18600200190FFE708988E
:103B900000688068C007A8B1FFE70898C08F88B1A7
:103BA000FFE708980068C0680899896B0880089842
:103BB000816B023181630898C18F0139C18701206F
:103BC0000190FFE7FDF740FE0299401A0C998842E8
:103BD00012D3FFE70C98013070B1FFE7089801217C
:103BE00080F85110FFE70898002180F85010FFE797
:103BF00003208DF82700BDE09BE77FE00898406830
:103C000028B1FFE7BDF8140001280ED1FFE708989E
:103C10000168006B007808730898016B013101633B
:103C20000898C18E0139C186FFE7FFE70898C18E69
:103C3000012031B9FFE70898C08F002818BF012084
:103C4000FFE7C007002858D0FFE7089800688068A1
:103C50008007002818D5FFE70898C08EA0B1FFE7BD
:103C60000198012810D1FFE708980168006B0078DF
:103C700008730898016B013101630898C18E0139FE
:103C8000C18600200190FFE7089800688068C0079F
:103C9000A8B1FFE70898C08F88B1FFE708980068CF
:103CA000C0680899896B08700898816B013181633D
:103CB0000898C18F0139C18701200190FFE7FDF706
:103CC000C3FD0299401A0C99884204D3FFE70C986F
:103CD000013018B9FFE70C9870B9FFE70898012187
:103CE00080F85110FFE70898002180F85010FFE796
:103CF00003208DF827003DE098E7FFE708980C992E
:103D0000029A04F0E9FB68B1FFE7089820214165B9
:103D1000FFE70898002180F85010FFE701208DF898
:103D2000270027E00898806870B9FFE7FFE70020C8
:103D3000009008980068C068009008980068806843
:103D400000900098FFE7FFE70898012180F85110E4
:103D5000FFE70898002180F85010FFE70898406DB1
:103D600020B1FFE701208DF8270003E000208DF847
:103D70002700FFE79DF827000AB080BD80B582B01C
:103D80000190019804F0F2FC02B080BD81B0009077
:103D900001B0704781B0009001B0704784B042F626
:103DA0000841C2F200010291019000200090FFE75B
:103DB000029890F83C00012804D1FFE702208DF81A
:103DC0000F0044E00298012180F83C10FFE7FFE774
:103DD000009820F0FF000199C968084300900098FE
:103DE00020F440700199896808430090009820F4FD
:103DF00080600199496808430090009820F40060B1
:103E00000199096808430090009820F480500199B6
:103E1000096908430090009820F40050019949690D
:103E200008430090009820F480400199C969084334
:103E300000900098029909684864FFE70298002101
:103E400080F83C10FFE700208DF80F00FFE79DF899
:103E50000F0004B07047000085B003900291FFE7A7
:103E6000039890F83C00012804D1FFE702208DF868
:103E700013005BE00398012180F83C10FFE7FFE7A7
:103E80000398022180F83D10039800684068019073
:103E90000398006880680090019820F070000190FD
:103EA00002980068019908430190019803990968F4
:103EB00048600398006842F60041C4F2010188425C
:103EC00018D0FFE703980068B0F1804F12D0FFE7E9
:103ED0000398006840F20041C4F20001884209D012
:103EE000FFE70398006840F60001C4F20001884231
:103EF0000ED1FFE7009820F0800000900298406803
:103F00000099084300900098039909688860FFE7CA
:103F10000398012180F83D10FFE70398002180F805
:103F20003C10FFE700208DF81300FFE79DF8130019
:103F300005B0704780B582B00090009820B9FFE7C7
:103F400001208DF807003FE0009890F83D0040B94F
:103F5000FFE70098002180F83C10009800F038F846
:103F6000FFE70098022180F83D10009951F8040BFA
:103F700004F068FC0098012180F84610FFE70098E3
:103F8000012180F83E10009880F83F10009880F8DA
:103F90004010009880F84110FFE7FFE700980121EA
:103FA00080F84210009880F84310009880F8441080
:103FB000009880F84510FFE70098012180F83D1037
:103FC00000208DF80700FFE79DF8070002B080BDD4
:103FD00080B586B005900598006842F60041C4F2AD
:103FE0000101884236D1FFE7FFE741F21800C4F231
:103FF0000200016841F400610160006800F40060A3
:1040000004900498FFE742F62850C2F200001C21F9
:10401000C4F2020101601021416000218160802210
:10402000C2604FF4007202614FF40062426181612C
:10403000C161FDF781F910B1FFE7FCF74FFFFFE722
:10404000059842F62851C2F2000141620598486283
:10405000FFE751E005980068B0F1804F10D1FFE70D
:10406000FFE741F21C00C4F20200016841F00101C7
:104070000160006800F0010003900398FFE73AE058
:104080000598006840F20041C4F20001884210D156
:10409000FFE7FFE741F21C00C4F20200016841F0B3
:1040A00002010160006800F0020002900298FFE740
:1040B00020E00598006840F60001C4F20001884243
:1040C00017D1FFE7FFE741F21C00C4F202000168CC
:1040D00041F004010160006800F0040001900198C3
:1040E000FFE71E200021FEF725FC1E20FEF718FC2E
:1040F000FFE7FFE7FFE7FFE706B080BD83B042F6CA
:104100005040C2F200000190019890F83D00012853
:1041100004D0FFE701208DF80B0041E00198022157
:1041200080F83D100198006842F60041C4F2010198
:10413000884218D0FFE701980068B0F1804F12D094
:10414000FFE70198006840F20041C4F20001884294
:1041500009D0FFE70198006840F60001C4F20001B1
:10416000884212D1FFE701980068806800F00700DC
:1041700000900098062807D0FFE7019800680168C2
:1041800041F001010160FFE706E001980068016865
:1041900041F001010160FFE700208DF80B00FFE70F
:1041A00003B0704783B042F6E040C2F200000190D5
:1041B000019890F83D00012804D0FFE701208DF818
:1041C0000B0047E00198022180F83D10019800683B
:1041D000C16841F00101C1600198006842F60041E8
:1041E000C4F20101884218D0FFE701980068B0F1DD
:1041F000804F12D0FFE70198006840F20041C4F2FE
:104200000001884209D0FFE70198006840F60001EC
:10421000C4F20001884212D1FFE70198006880686B
:1042200000F0070000900098062807D0FFE70198EB
:104230000068016841F001010160FFE706E00198B4
:104240000068016841F001010160FFE700208DF87E
:104250000B00FFE703B0704781B042F65040C2F256
:1042600000000090FFE700980068006A41F2111119
:10427000084210D1FFE700980068006A40F244410C
:10428000084207D1FFE700980068016821F00101AA
:104290000160FFE7FFE7FFE70098012180F83D108C
:1042A00001B0704780B586B00490039100208DF86E
:1042B0000B00FFE7049890F83C00012804D1FFE7C9
:1042C00002208DF81700A1E00498012180F83C102D
:1042D000FFE7FFE70498022180F83D10049800688A
:1042E00080680190019820F077000190019820F4F7
:1042F0007F400190019804990968886003980068DC
:10430000002869D0FFE7102866D0FFE7202863D097
:10431000FFE7302860D0FFE7402850D0FFE7502863
:1043200033D0FFE760283DD0FFE7702809D0FFE7D2
:10433000B0F5805F04D0FFE7B0F5005F16D052E023
:1043400055E004980068039B5A689968DB6804F09C
:10435000FFFB0498006880680190019840F07700A6
:104360000190019804990968886040E00498006809
:10437000039B5A689968DB6804F0EAFB04980068BC
:10438000816841F48041816031E004980068039ABB
:104390005168D26804F098FD04980068502104F038
:1043A000F1FB24E004980068039A5168D26804F095
:1043B000B3FD04980068602104F0E4FB17E0049862
:1043C0000068039A5168D26804F07EFD0498006882
:1043D000402104F0D7FB0AE00498006803990968BB
:1043E00004F0D0FB03E001208DF80B00FFE70498F8
:1043F000012180F83D10FFE70498002180F83C106F
:10440000FFE79DF80B008DF81700FFE79DF81700F8
:1044100006B080BD81B0009001B0704781B00090BF
:1044200001B0704780B584B0039003980068C068FD
:10443000029003980068006901909DF804008007CD
:10444000002824D5FFE79DF80800800700281DD527
:10445000FFE7039800686FF00201016103980121F2
:104460000177039800688069800720B1FFE703980F
:10447000FFF7D4FF06E0039800F04EF9039800F030
:1044800041FAFFE7039800210177FFE7FFE79DF876
:1044900004004007002825D5FFE79DF808004007E5
:1044A00000281ED5FFE7039800686FF00401016142
:1044B00003980221017703980068806910F4407F17
:1044C00004D0FFE70398FFF7A9FF06E0039800F088
:1044D00023F9039800F016FAFFE70398002101770B
:1044E000FFE7FFE79DF804000007002824D5FFE759
:1044F0009DF80800000700281DD5FFE70398006815
:104500006FF00801016103980421017703980068A6
:10451000C069800720B1FFE70398FFF77FFF06E03F
:10452000039800F0F9F8039800F0ECF9FFE703981E
:1045300000210177FFE7FFE79DF80400C00600288F
:1045400025D5FFE79DF80800C00600281ED5FFE727
:10455000039800686FF0100101610398082101774A
:1045600003980068C06910F4407F04D0FFE7039807
:10457000FFF754FF06E0039800F0CEF8039800F030
:10458000C1F9FFE7039800210177FFE7FFE79DF8F6
:104590000400C00778B1FFE79DF80800C00748B1E4
:1045A000FFE7039800686FF001010161039800F0D4
:1045B0006BFCFFE7FFE79DF804000006002810D51C
:1045C000FFE79DF808000006002809D5FFE70398DB
:1045D00000686FF0800101610398FFF7D7FBFFE7E8
:1045E000FFE79DF804004006002810D5FFE79DF87E
:1045F00008004006002809D5FFE7039800686FF01F
:1046000040010161039800F023FDFFE7FFE79DF8FB
:1046100004008006002810D5FFE79DF808008006FA
:10462000002809D5FFE7039800686FF020010161B9
:104630000398FFF7AFFBFFE7FFE704B080BD000082
:1046400080B588B0079000200690059004900390F4
:104650000798006842F60041C4F2010188421DD16A
:10466000FFE7FFE741F21800C4F20200016841F0E1
:1046700004010160006800F0040002900298FFE766
:104680004FF48070039002200490069040F60000E2
:10469000C4F2010003A9FCF729FF3AE0079800687B
:1046A00040F20041C4F20001884231D1FFE7FFE748
:1046B00041F21800C4F20200016841F008010160F3
:1046C000006800F0080001900198FFE710200390B7
:1046D00002200490069040F60040C4F2010003A9B5
:1046E000FCF704FFFFE70420C4F201000168009119
:1046F000009921F440610091009941F0E06100913E
:10470000009941F40061009100990160FFE7FFE723
:10471000FFE708B080BD000081B0009001B0704795
:1047200080B586B004900391002002908DF80700B8
:10473000FFE7049890F83C00012804D1FFE702202D
:104740008DF8170087E00498012180F83C10FFE7FE
:10475000FFE702980C2800F26F80DFE800F0076D99
:104760006D6D206D6D6D3A6D6D6D53000498006830
:10477000039904F01DFA04980068816941F008016A
:10478000816104980068816921F0040181610398C6
:104790000069049909688A691043886150E00498A7
:1047A0000068039904F06CFA04980068816941F488
:1047B0000061816104980068816921F480618161F0
:1047C00003980069049909688A6942EA00208861AF
:1047D00036E004980068039904F0BEFA0498006873
:1047E000C16941F00801C16104980068C16921F004
:1047F0000401C1610398006904990968CA691043FA
:10480000C8611DE004980068039904F011FB049846
:104810000068C16941F40061C16104980068C16920
:1048200021F48061C1610398006904990968CA692B
:1048300042EA0020C86103E001208DF80700FFE78D
:10484000FFE70498002180F83C10FFE79DF807007F
:104850008DF81700FFE79DF8170006B080BD000037
:1048600080B582B00090009820B9FFE701208DF854
:1048700007003FE0009890F83D0040B9FFE700983E
:10488000002180F83C10009800F038F8FFE700980D
:10489000022180F83D10009951F8040B03F0D2FF7B
:1048A0000098012180F84610FFE70098012180F868
:1048B0003E10009880F83F10009880F84010009853
:1048C00080F84110FFE7FFE70098012180F84210CF
:1048D000009880F84310009880F84410009880F801
:1048E0004510FFE70098012180F83D1000208DF869
:1048F0000700FFE79DF8070002B080BD81B000907F
:1049000001B0704781B0009001B0704781B0009055
:1049100001B0704780B584B042F69840C2F2000002
:10492000029000200190019820B9FFE7029890F8CA
:104930003E0015E00198042804D1FFE7029890F8A2
:104940003F000CE00198082804D1FFE7029890F896
:10495000400003E0029890F84100FFE7FFE7FFE71F
:10496000012804D0FFE701208DF80F0074E00198C2
:1049700028B9FFE70298022180F83E1018E001985C
:10498000042805D1FFE70298022180F83F100EE0CD
:104990000198082805D1FFE70298022180F840100D
:1049A00004E00298022180F84110FFE7FFE7FFE7EB
:1049B000029800680199012203F0C8FF029800687C
:1049C00042F60041C4F20101884207D1FFE7029894
:1049D0000068416C41F400414164FFE702980068BF
:1049E00042F60041C4F20101884218D0FFE7029864
:1049F0000068B0F1804F12D0FFE70298006840F2E3
:104A00000041C4F20001884209D0FFE70298006823
:104A100040F60001C4F20001884212D1FFE702987B
:104A20000068806800F0070000900098062807D012
:104A3000FFE702980068016841F001010160FFE7AB
:104A400006E002980068016841F001010160FFE79B
:104A500000208DF80F00FFE704B080BD80B586B060
:104A600042F60840C2F2000004900020039043F296
:104A70008C51C2F2000102914FF49C71ADF8061006
:104A80008DF80500039820B9FFE7049890F83E00E0
:104A900015E00398042804D1FFE7049890F83F003C
:104AA0000CE00398082804D1FFE7049890F8400030
:104AB00003E0049890F84100FFE7FFE7FFE70228D2
:104AC00004D1FFE702208DF817006AE1039820B9AE
:104AD000FFE7049890F83E0015E00398042804D1FD
:104AE000FFE7049890F83F000CE00398082804D1F1
:104AF000FFE7049890F8400003E0049890F8410024
:104B0000FFE7FFE7FFE701282ED1FFE7029820B17A
:104B1000FFE7BDF8060020B9FFE701208DF8170078
:104B20003FE1039828B9FFE70498022180F83E107E
:104B300018E00398042805D1FFE70498022180F8C3
:104B40003F100EE00398082805D1FFE704980221E2
:104B500080F8401004E00498022180F84110FFE73B
:104B6000FFE7FFE7FFE703E001208DF8170018E1FA
:104B7000FFE703980C2800F2B580DFE800F007B3E8
:104B8000B3B332B3B3B35DB3B3B388000498406A30
:104B900048F68511C0F6000181620498406A48F623
:104BA0004121C0F60001C1620498406A48F6B5216F
:104BB000C0F60001016304980268406A0299343229
:104BC000BDF80630FCF710FC20B1FFE701208DF89E
:104BD0001700E6E004980068C16841F40071C16004
:104BE00084E00498806A48F68511C0F6000181626D
:104BF0000498806A48F64121C0F60001C162049819
:104C0000806A48F6B521C0F6000101630498026885
:104C1000806A02993832BDF80630FCF7E5FB20B116
:104C2000FFE701208DF81700BBE004980068C16819
:104C300041F48061C16059E00498C06A48F685116A
:104C4000C0F6000181620498C06A48F64121C0F6AE
:104C50000001C1620498C06A48F6B521C0F600019F
:104C6000016304980268C06A02993C32BDF80630BC
:104C7000FCF7BAFB20B1FFE701208DF8170090E0A8
:104C800004980068C16841F40061C1602EE0049896
:104C9000006B48F68511C0F6000181620498006B34
:104CA00048F64121C0F60001C1620498006B48F645
:104CB000B521C0F60001016304980268006B0299F7
:104CC0004032BDF80630FCF78FFB20B1FFE7012032
:104CD0008DF8170065E004980068C16841F48051C0
:104CE000C16003E001208DF80500FFE79DF8050095
:104CF000002851D1FFE7049800680399012203F0CE
:104D000025FE0498006842F60041C4F20101884281
:104D100007D1FFE704980068416C41F40041416409
:104D2000FFE70498006842F60041C4F2010188429E
:104D300018D0FFE704980068B0F1804F12D0FFE769
:104D40000498006840F20041C4F20001884209D092
:104D5000FFE70498006840F60001C4F200018842B1
:104D600012D1FFE704980068806800F00700009007
:104D70000098062807D0FFE704980068016841F012
:104D800001010160FFE706E004980068016841F056
:104D900001010160FFE7FFE79DF805008DF81700AE
:104DA000FFE706B080BD000080B582B042F69840B3
:104DB000C2F2000001900020009001980068009964
:104DC000002203F0C3FD0198006842F60041C4F2DE
:104DD000010188421BD1FFE7FFE701980068006AE4
:104DE00041F21111084210D1FFE701980068006AF2
:104DF00040F24441084207D1FFE701980068416C46
:104E000021F400414164FFE7FFE7FFE7FFE7FFE729
:104E100001980068006A41F21111084210D1FFE7C1
:104E200001980068006A40F24441084207D1FFE758
:104E300001980068016821F001010160FFE7FFE7C8
:104E4000FFE7009828B9FFE70198012180F83E109C
:104E500018E00098042805D1FFE70198012180F8A7
:104E60003F100EE00098082805D1FFE701980121C6
:104E700080F8401004E00198012180F84110FFE71C
:104E8000FFE7FFE702B080BD80B582B001900198D6
:104E900042F6E041C2F20001884240F0D780FFE7CD
:104EA00002F084FD02F0BCFD0220FCF799FC002812
:104EB00040F08380FFE740F23870C2F20000B0F9A2
:104EC0000000B0F5967F1EDAFFE740F23870C2F2BC
:104ED0000000B0F9000010F5967F14DDFFE740F206
:104EE0003C70C2F20000B0F90000B0F5967F0ADA1B
:104EF000FFE740F23C70C2F20000B0F9000010F58C
:104F0000967F59DCFFE740F23870C2F20000B0F93A
:104F1000000041F28831884204DBFFE77F208DF8F2
:104F2000030019E040F23870C2F20000B0F900004E
:104F30004EF67841CFF6FF71884204DCFFE781200E
:104F40008DF8030007E040F23870C2F200000078EC
:104F50008DF80300FFE7FFE740F23C70C2F200006B
:104F6000B0F9000041F28831884204DBFFE77F207E
:104F70008DF8020019E040F23C70C2F20000B0F976
:104F800000004EF67841CFF6FF71884204DCFFE75F
:104F900081208DF8020007E040F23C70C2F2000070
:104FA00000788DF80200FFE7FFE79DF903009DF907
:104FB00002100BF02DFBFFE7FFE740F23E70C2F25C
:104FC00000000078012840D1FFE740F23870C2F2BB
:104FD0000000008840F23F71C2F200010A7802EB43
:104FE000420240F24073C2F2000323F8120040F282
:104FF0003A70C2F2000000880A7802EB420203EB2A
:105000004202508040F23C70C2F2000000880A78F0
:1050100002EB420203EB4202908008780130C2B2F8
:105020000870962A10D1FFE70BF058F840F23E7056
:10503000C2F200000021017040F23F70C2F2000095
:1050400001700BF0CBF8FFE7FFE7FFE702B080BD90
:1050500081B0009001B0704782B00190ADF80210AD
:1050600002B0704781B0009001B0704780B592B037
:105070001190119800680068109011980068C0683D
:105080000F901198006840690E9000200D900C90D0
:10509000109800F00F000D900D9888B9FFE79DF86B
:1050A0004000800600280AD5FFE79DF83C008006F6
:1050B000002804D5FFE7119803F0C4FFE9E1FFE7FA
:1050C0000D98002800F0C280FFE79DF83800C00767
:1050D00038B9FFE7BDF83C0010F4907F00F0B680CF
:1050E000FFE79DF84000C00758B1FFE79DF83D007D
:1050F000C00730B1FFE71198416C41F001014164F4
:10510000FFE79DF84000400700280BD5FFE79DF81A
:105110003800C00730B1FFE71198416C41F002013F
:105120004164FFE79DF84000800700280BD5FFE7AA
:105130009DF83800C00730B1FFE71198416C41F08D
:1051400004014164FFE79DF840000007002811D5E5
:10515000FFE79DF83C008006002805D4FFE79DF896
:105160003800C00730B1FFE71198416C41F00801E9
:105170004164FFE71198406C002866D0FFE79DF876
:105180004000800600280AD5FFE79DF83C00800615
:10519000002804D5FFE7119803F054FFFFE71198AA
:1051A00000684069C0F380100C901198406C0007B3
:1051B000002804D4FFE70C9800283ED0FFE71198A0
:1051C00003F0E4FE119800684069400600282FD5DE
:1051D000FFE7FFE7FFE71198006850E8050F20F0B0
:1051E00040000B90FFE70B981199096841E8050210
:1051F000002AF0D1FFE7FFE71198C06B98B1FFE7F5
:105200001198C06B48F66D71C0F6000141631198AA
:10521000C06BFBF7E5FE28B1FFE71198C06B416B4F
:105220008847FFE703E01198FFF71CFFFFE703E063
:105230001198FFF717FFFFE706E01198FFF712FF3D
:10524000119800214164FFE7FFE722E11198006B0C
:10525000012840F0FE80FFE79DF84000C0060028CE
:1052600040F1F780FFE79DF83C00C006002840F1C0
:10527000F080FFE7FFE700200A90119800680068BF
:105280000A901198006840680A900A98FFE7119800
:10529000006840694006002840F18180FFE71198CE
:1052A000C06B00684068ADF82600BDF826000028F5
:1052B00074D0FFE7BDF826001199898D88426DDA18
:1052C000FFE7BDF826001199C8851198C06B806969
:1052D000202858D0FFE7FFE7FFE71198006850E863
:1052E000030F20F480700890FFE70898119909686F
:1052F00041E80302002AF0D1FFE7FFE7FFE7FFE7FD
:105300001198006850E8050F20F001000790FFE7B2
:1053100007981199096841E80502002AF0D1FFE7D2
:10532000FFE7FFE7FFE71198006850E8050F20F05E
:1053300040000690FFE706981199096841E80502C8
:10534000002AF0D1FFE7FFE71198202180F84210F2
:10535000119800210163FFE7FFE71198006850E80A
:10536000030F20F010000590FFE7059811990968D8
:1053700041E80302002AF0D1FFE7FFE71198C06B74
:10538000FBF7F0FDFFE71198022141631198818D31
:10539000C28D891A89B2FFF75FFEFFE779E01198A5
:1053A000818DC08D081AADF812001198C08D0028AB
:1053B0004ED0FFE7BDF81200002849D0FFE7FFE715
:1053C000FFE71198006850E8030F20F490700390F5
:1053D000FFE703981199096841E80302002AF0D118
:1053E000FFE7FFE7FFE7FFE71198006850E8050FC8
:1053F00020F001000290FFE702981199096841E846
:105400000502002AF0D1FFE7FFE71198202180F87C
:105410004210119800210163FFE7FFE7119800682F
:1054200050E8030F20F010000190FFE70198119958
:10543000096841E80302002AF0D1FFE7FFE711986D
:10544000022141631198BDF81210FFF705FEFFE736
:105450001FE09DF84000000600280AD5FFE79DF8F0
:105460003C000006002804D5FFE7119803F02CFF4C
:105470000FE09DF84000400600280AD5FFE79DF8A0
:105480003C004006002804D5FFE7119803F0C8FD52
:10549000FFE712B080BD000080B582B00090009898
:1054A00020B9FFE701208DF8070040E000988069EF
:1054B00008B1FFE700E0FFE7009890F8410040B92D
:1054C000FFE70098002180F84010009800F034F8C1
:1054D000FFE70098242180F8411000980068C16817
:1054E00021F40051C160009803F060FE009800684C
:1054F000016921F49041016100980068416921F03F
:105500002A01416100980068C16841F40051C160FE
:105510000098002141640098202280F841200098E2
:1055200080F84220009841638DF80710FFE79DF84E
:10553000070002B080BD000070B58CB00B90002059
:105540000A900990089007900B98006843F60001B4
:10555000C4F20101884261D1FFE7FFE741F2180080
:10556000C4F20200016841F480410160006800F467
:10557000804006900698FFE7FFE741F21800C4F26A
:105580000200016841F004010160006800F00400BD
:1055900005900598FFE74FF40070079002200890EF
:1055A00003200A9040F60004C4F2010407AD20462F
:1055B0002946FBF79BFF4FF4806007900026089672
:1055C000099620462946FBF791FF42F64460C2F255
:1055D00000004421C4F20201016010214160866094
:1055E0008021C160066146618661C661FBF7A4FE49
:1055F00010B1FFE7FBF772FCFFE70B9842F644613E
:10560000C2F2000181630B984862FFE72520002168
:10561000FDF790F92520FDF783F9B2E00B980068BB
:1056200044F20041C4F2000188425FD1FFE7FFE786
:1056300041F21C00C4F20200016841F40031016033
:10564000006800F4003004900498FFE7FFE741F29F
:105650001800C4F20200016841F004010160006812
:1056600000F0040003900398FFE704200790022055
:10567000089003200A9040F60004C4F2010407AD2C
:1056800020462946FBF732FF08200790002608969F
:10569000099620462946FBF729FF42F68860C2F2A8
:1056A00000008021C4F20201016010214160866087
:1056B0008021C160066146618661C661FBF73CFEE0
:1056C00010B1FFE7FBF70AFCFFE70B9842F6886191
:1056D000C2F2000181630B984862FFE72620002197
:1056E000FDF728F92620FDF71BF949E00B98006823
:1056F00044F60001C4F20001884240D1FFE7FFE711
:1057000041F21C00C4F20200016841F480210160F2
:10571000006800F4802002900298FFE7FFE741F262
:105720001800C4F20200016841F00801016000683D
:1057300000F0080001900198FFE74FF480600790A7
:105740000220089003200A9040F60044C4F20104AD
:1057500007AD20462946FBF7C9FE4FF400600790CD
:1057600000200890099020462946FBF7BFFE27201D
:105770000021FDF7DFF82720FDF7D2F8FFE7FFE76C
:10578000FFE70CB070BD000010B584B0029040F28D
:105790005950C2F2000001900120ADF802000298B9
:1057A00090F84200202817D1FFE7019820B1FFE7C9
:1057B000BDF8020020B9FFE701208DF80F000FE0CF
:1057C00002980024046302980199BDF8022003F0B6
:1057D0004BFD8DF80F4003E002208DF80F00FFE72E
:1057E00004B010BD80B582B00190019842F6B4516A
:1057F000C2F20001884208D0FFE7019842F66C51DE
:10580000C2F20001884208D1FFE740F25950C2F2CB
:105810000000007806F00AFCFFE702B080BD00003F
:1058200080B588B006900591ADF812200393002052
:105830000090069890F8410020287AD1FFE705985B
:1058400020B1FFE7BDF8120020B9FFE701208DF875
:105850001F0072E00698002141640698212180F81B
:105860004110FBF7F1FF0090BDF812000699888403
:10587000BDF812000699C88406988068B0F5805F6C
:1058800009D1FFE70698006928B9FFE700200290D8
:105890000598019004E00598029000200190FFE730
:1058A000FFE70698C08C60B3FFE70698009A039B59
:1058B000802103F051FD40B1FFE70698202180F8D8
:1058C000411003208DF81F0037E0029858B9FFE718
:1058D000019800886FF35F20069909684860019875
:1058E0000230019008E00298007806990968486043
:1058F000029801300290FFE70698C18C0139C184FB
:10590000CFE70698009A039B402103F025FD40B1A4
:10591000FFE70698202180F8411003208DF81F0032
:105920000BE00698202180F8411000208DF81F0020
:1059300003E002208DF81F00FFE708B080BD0000E3
:1059400081B0009001B07047FFE7FEE780B542F6F6
:105950005C30C2F20000FBF789FF80BD80B542F6E3
:105960005C30C2F20000FCF745F880BD81B00090C9
:105970000098C06AB0F52A0F04D1FFE70098012112
:10598000C1620BE00098C06AB0F12A4F04D1FFE772
:1059900000980821C16200E0FFE7FFE701B070470F
:1059A00080B584B00390002002900398406A019073
:1059B000019890F83D008DF8030040F26050C2F26B
:1059C0000000006848F21F51C5F2EB11A0FB010175
:1059D000C80844F6D351C1F26201A0FB0101880955
:1059E000232148430290FFE7029830B9FFE701986E
:1059F000016C41F0200101640DE002980138029031
:105A0000FFE701980068006800F40070B0F5007FBF
:105A1000EAD0FFE7FFE70198406B28B1FFE7019864
:105A2000406B00218162FFE70198806B28B1FFE79E
:105A30000198806B00218162FFE70198006801688E
:105A400021F4806101600198002141850198406B3B
:105A500028B1FFE70198406B00214163FFE70198FF
:105A6000806B28B1FFE70198806B00214163FFE75D
:105A700001980068016821F001010160019890F827
:105A80003D0060280ED1FFE70198202180F83D10ED
:105A90000198002180F83E10019801640198FBF7FD
:105AA000D9FE27E09DF8030000F02800282814D133
:105AB000FFE701980068016841F001010160019869
:105AC0000068016841F48061016001980021016370
:105AD0000198282180F83D1008E00198202180F8E5
