:020000040800F2
:10000000302A002001010008214B00083539000882
:100010001D4B000845070008B55600080000000009
:10002000000000000000000000000000C94B0008B4
:100030007907000800000000894B0008954C000873
:100040001B0100081B0100081B0100081B01000820
:100050001B0100081B0100081B0100081B01000810
:100060001B0100081B0100081B0100081B01000800
:10007000490700081B010008590700081B01000878
:100080001B010008690700081B0100081B0100088C
:100090001B0100081B0100081B0100081B010008D0
:1000A0001B0100081B0100081B0100081B010008C0
:1000B0001B0100081B010008094D00081B01000876
:1000C0001B0100081B0100081B0100081B010008A0
:1000D0001B0100081B0100081B010008A5560008B1
:1000E0001B0100081B0100081B010008DFF80CD0F1
:1000F00000F02AFA00480047D1810008302A002089
:100100000648804706480047FEE7FEE7FEE7FEE7B1
:10011000FEE7FEE7FEE7FEE7FEE7FEE7054D000827
:10012000ED00000830B50B460146002020220124D6
:1001300009E021FA02F59D4205D303FA02F5491BB5
:1001400004FA02F52844151EA2F10102F1DC30BDCB
:100150002DE9F05F0546002092469B4688460646FC
:10016000814640241BE0284641464746224600F08F
:100170000CFA53465A46C01A914110D311461846FC
:10018000224600F0F3F92D1A67EB01084F4622468C
:100190000120002100F0EAF917EB00094E41201E72
:1001A000A4F10104DFDC484631462A464346BDE857
:1001B000F09F40EA01039B0703D009E008C9121F22
:1001C00008C0042AFAD203E011F8013B00F8013B11
:1001D000521EF9D270472DE9FE4F804681EA030096
:1001E000C00F0C46009021F0004123F00045B8EB11
:1001F0000200A94105D24046214690461C460B46C6
:10020000024623F00040104347D0270DC7F30A00F1
:10021000C3F30A510290401A019040286BDAC3F3ED
:10022000130040F4801B0098924620B10023D2EBCB
:10023000030A63EB0B0B01985946C0F1400250468C
:1002400000F094F906460D4650465946019A00F0D2
:10025000ACF910EB08006141002487EA115284EAEE
:10026000E7731A4340D0009A62B3019A012A4FEA19
:10027000075215DC001B61EB02014FF0004202EA5D
:100280000752CDE90042001C41F5801132462B4651
:1002900000F0ACF903B0BDE8F08F40462146F9E725
:1002A000001B61EB0201001C41F5801300185B414B
:1002B0002018A2F5001747EB030140EAD570B619E4
:1002C0006D4111E06D084FEA360645EAC0754FEA08
:1002D0000752001B61EB0201001C41F58011490827
:1002E0004FEA30000019514132462B4603B0BDE8B9
:1002F000F04F00F06CB90098012240000023D0EBD1
:10030000020263EBE073009821464FEAE074B8EB19
:10031000000061EB0401E9E783F000435BE781F053
:10032000004158E72DE9FE4F81EA030404F0004440
:1003300021F0004100944FF0000B23F0004350EAFD
:1003400001045ED052EA03045BD0C3F30A54C1F344
:100350000A552C44A4F2F3340194A0FB0254C1F3D7
:10036000130141F48011C3F3130343F4801301FB21
:10037000024400FB034E840A970A44EA815447EA88
:100380008357A4FB076802958D0A05FB07854FEA92
:10039000932C04FB0C542705029D4FEA065847EAAC
:1003A0001637B5EB08056EEB070C870E920E47EA81
:1003B000811742EA8312A7FB0201B6EB0B0164EB43
:1003C00000042B0D43EA0C335E1844EB1C50DA4654
:1003D0005146E7FB0201C5F313044FEA0B3343EA2E
:1003E00014534FEA0432019C43EA0603A4F10C04BF
:1003F0000294009CCDE900B400F0F8F803B0BDE829
:10040000F08F00200146F9E72DE9F04D81EA030461
:1004100004F0004B21F0004514464FF0000A23F091
:10042000004150EA050220D054EA01021DD0C5F374
:100430000A570246C5F31303C1F31300C1F30A566A
:1004400040F4801543F48013A7EB0608101BD64632
:1004500008F2FD3873EB050002D308F1010801E052
:1004600092185B41B8F1000F03DA00200146BDE8A5
:10047000F08D00204FF48011064684460EE0171BD5
:1004800073EB050705D3121B63EB050306434CEA28
:10049000010C49084FEA300092185B4150EA01070D
:1004A000EDD152EA030012D082EA040083EA05018A
:1004B000084305D0101BAB4106D20122002306E001
:1004C00000224FF0004302E06FF0010253101AEBDC
:1004D00006004CEB085110EB0A0041EB0B01BDE8A4
:1004E000F04D00F074B8C1F30A52C1F3130140F2A9
:1004F000FF3341F480119A4202DA0020014670472E
:1005000040F233439A42A2F2334202DC524200F0FC
:100510003CB800F02BB8000030B5041E71F10004A7
:1005200004DB4FF00044404264EB0101141E73F100
:10053000000405DB1C464FF00043524263EB04030A
:10054000994208BF904230BD064C074D06E0E06876
:1005500040F0010394E8070098471034AC42F6D30A
:10056000FFF7C8FD60CB000880CB0008202A04DB21
:10057000203A00FA02F1002070479140C2F12003B6
:1005800020FA03F3194390407047202A04DB203AF5
:1005900021FA02F00021704721FA02F3D040C2F1A3
:1005A00020029140084319467047202A06DBCB17EA
:1005B000203A41FA02F043EAE07306E041FA02F31E
:1005C000D040C2F12002914008431946704710B54F
:1005D000141E73F1000408DA401C41F10001921866
:1005E0005B411A4301D120F0010010BD2DE9F04D0F
:1005F00092469B4611B1B1FA81F202E0B0FA80F264
:1006000020329046FFF7B2FF04460F4640EA0A0048
:1006100041EA0B0153465A46084313D0114653EAA8
:10062000010019D0C8F140025046FFF7AEFF054661
:100630000E46504659464246FFF798FF084305D0FC
:10064000012004E020463946BDE8F08D0020054336
:1006500046EAE0762C4337430A986305E40AA0EBA8
:1006600008000022FD0A44EA47540A3002D500205F
:100670000146E9E7010510196941DDE9084500195E
:100680006941BDE8F04DA2E7D2B201E000F8012BCC
:10069000491EFBD270470022F6E710B513460A4602
:1006A00004461946FFF7F0FF204610BD80EA01021C
:1006B00010B502F00043400022D04A001FD0010EC6
:1006C00001EB1261C0F35600C2F3560240F4000081
:1006D00042F40002A0FB022000047F39140400D081
:1006E000401C50EA124001D44000491EC2B20C0620
:1006F00004EBD010401C4008802A02D003E0002008
:1007000010BD20F00100002900DA0020184310BDC0
:1007100000F0004220F00040C10DC0F3160040F48C
:1007200000007F2901DA00207047962903DCC1F11F
:100730009601C84001E096398840002AF4D0404232
:1007400070470000FFE7FEE780B542F23C40C2F28E
:10075000000000F015F980BD80B542F25850C2F299
:10076000000000F00DF980BD80B542F29C50C2F24D
:10077000000000F005F980BD7047000081B0EFF384
:10078000108072B60090FFE7FEE7000080B586B0EB
:1007900068200190019808F041F80490049818B975
:1007A000FFE70020059029E004983030039003987B
:1007B0001C30029004981A210177049846F2417186
:1007C000C0F600014160049846F2E961C0F60001FC
:1007D0008160039801210176029800210176049836
:1007E000039906F0A3F8049908620498029906F0A8
:1007F0009DF80499486204980590FFE7059806B0B3
:1008000080BD000083B0019000208DF803000198A6
:1008100090F8210002280DD0FFE7019804218163A0
:10082000FFE70198002180F82010FFE701208DF8F4
:100830000B0022E001980068016821F00E010160C0
:1008400001980068016821F0010101600198C16B05
:10085000006C012202FA00F04860FFE701980121D4
:1008600080F82110FFE70198002180F82010FFE7B1
:100870009DF803008DF80B00FFE703B07047000000
:1008800080B582B0019000208DF80300019890F8A7
:100890002100022807D0FFE701980421816301208D
:1008A0008DF8030067E001980068016821F00E01EF
:1008B000016001980068016821F001010160019860
:1008C00000680821C4F20201884202D1FFE701203A
:1008D0003AE0019800681C21C4F20201884202D16A
:1008E000FFE710202FE0019800683021C4F20201D8
:1008F000884203D1FFE74FF4807023E0019800683D
:100900004421C4F20201884203D1FFE74FF4805032
:1009100017E0019800685821C4F20201884203D10F
:10092000FFE74FF480300BE0019801686C22C4F2BD
:1009300002024FF08070914208BF4FF48010FFE731
:10094000FFE7FFE7FFE7FFE70421C4F202010860C9
:100950000198012180F82110FFE70198002180F81B
:100960002010FFE70198406B20B1FFE70198416B31
:100970008847FFE7FFE79DF8030002B080BD000055
:1009800080B584B003900398C06B00680290039810
:1009900000680068019002980399096CC8404007FC
:1009A000002866D5FFE79DF804004007002860D5C1
:1009B000FFE70398006800688006002807D4FFE777
:1009C00003980068016821F004010160FFE70398C3
:1009D00000680821C4F20201884202D1FFE7042026
:1009E0003AE0039800681C21C4F20201884202D157
:1009F000FFE740202FE0039800683021C4F2020195
:100A0000884203D1FFE74FF4806023E00398006839
:100A10004421C4F20201884203D1FFE74FF4804031
:100A200017E0039800685821C4F20201884203D1FC
:100A3000FFE74FF480200BE0039801686C22C4F2BA
:100A400002024FF08060914208BF4FF48000FFE740
:100A5000FFE7FFE7FFE7FFE70421C4F202010860B8
:100A60000398C06A20B1FFE70398C16A8847FFE78F
:100A7000A8E002980399096CC8408007002870D547
:100A8000FFE79DF80400800700286AD5FFE7039878
:100A900000680068800600280BD4FFE70398006810
:100AA000016821F00A0101600398012180F82110FA
:100AB000FFE7039800680821C4F20201884202D1CE
:100AC000FFE702203AE0039800681C21C4F202010B
:100AD000884202D1FFE720202FE0039800683021F0
:100AE000C4F20201884203D1FFE74FF4007023E013
:100AF000039800684421C4F20201884203D1FFE751
:100B00004FF4005017E0039800685821C4F2020126
:100B1000884203D1FFE74FF400300BE003980168EF
:100B20006C22C4F202024FF00070914208BF4FF4F1
:100B30000010FFE7FFE7FFE7FFE7FFE70421C4F24C
:100B400002010860FFE70398002180F82010FFE70A
:100B50000398806A20B1FFE70398816A8847FFE71E
:100B60002FE002980399096CC8400007002827D598
:100B7000FFE79DF804000007002821D5FFE7039850
:100B80000068016821F00E0101600398C16B006CE0
:100B9000012202FA00F0486003988263039880F80B
:100BA0002120FFE70398002180F82010FFE7039839
:100BB000006B20B1FFE70398016B8847FFE7FFE771
:100BC000FFE7FFE704B080BD83B0019000200090F4
:100BD000019820B9FFE701208DF80B0047E001984C
:100BE00001684FF6F872CBF6FD7211444CF6CD4217
:100BF000CCF6CC42A1FB02126FF0030101EA920194
:100C0000016401980021C4F20201C163019802212C
:100C100080F821100198006800680090009843F661
:100C2000F071884300900198D0F804C08268C368CE
:100C3000016942EA0C021A43114342691143826975
:100C40001143C06908430099084300900098019936
:100C5000096808600198002181630198012280F8E9
:100C60002120019880F820108DF80B10FFE79DF8E7
:100C70000B0003B07047000080B584B0039000F013
:100C8000A9F90290039801900198013020B1FFE783
:100C9000019801300190FFE7FFE700F09BF902990E
:100CA000401A0199884201D2FFE7F6E704B080BDFF
:100CB0008AB009900891002007900390FFE70898F8
:100CC00000680799C840002800F06A81FFE707988C
:100CD000012101FA00F00690089800680699084082
:100CE000059005980699884240F05681FFE70898DC
:100CF0004068002846D0FFE7012830D0FFE70228EF
:100D000036D0FFE7032857D0FFE711282BD0FFE7A5
:100D1000122832D0FFE70021C1F21101884231D000
:100D2000FFE70021C1F2120188422BD0FFE700212A
:100D3000C1F22101884225D0FFE70021C1F2220142
:100D400088421FD0FFE70021C1F23101884219D04B
:100D5000FFE70021C1F23201884213D02FE008984A
:100D6000C06803902CE00898C0680430039027E026
:100D70000898C0680830039022E00898C0680C30DA
:100D800003901DE00898806818B9FFE704200390DD
:100D900011E008988068012806D1FFE70820039039
:100DA00006980999086105E00820039006980999BA
:100DB0004861FFE7FFE703E00020039000E0FFE762
:100DC0000598FF2802D8FFE7099802E00998043047
:100DD000FFE702900598FF2803D8FFE707988000F7
:100DE00005E007986FF01F0101EB8000FFE701901D
:100DF0000298006801990F228A409043039A02FAF0
:100E000001F10843029908600898C079C0060028DB
:100E100040F1C180FFE7FFE741F21800C4F2020091
:100E2000016841F001010160006800F001000090DC
:100E30000098FFE7079820F003000821C4F20101A1
:100E400040580490079800F0030080000F2101FA39
:100E500000F0049921EA00000490099840F600018E
:100E6000C4F20101884202D1FFE700201FE0099887
:100E700040F60041C4F20101884202D1FFE701209F
:100E800014E0099841F20001C4F20101884202D144
:100E9000FFE7022009E0099941F20042C4F2010291
:100EA0000420914208BF0320FFE7FFE7FFE707990F
:100EB00001F00301890088400499084304900498D4
:100EC000079921F003010822C4F201028850089812
:100ED0008079C006002809D5FFE7059840F208414F
:100EE000C4F201010A681043086009E0059840F265
:100EF0000841C4F201010A6822EA00000860FFE725
:100F0000089880798006002809D5FFE7059840F207
:100F10000C41C4F201010A681043086009E0059819
:100F200040F20C41C4F201010A6822EA00000860A4
:100F3000FFE7089880798007002809D5FFE7059822
:100F400040F20441C4F201010A681043086009E05C
:100F5000059840F20441C4F201010A6822EA000047
:100F60000860FFE708988079C00748B1FFE7059857
:100F700040F20041C4F201010A681043086009E030
:100F8000059840F20041C4F201010A6822EA00001B
:100F90000860FFE7FFE7FFE70798013007908EE65C
:100FA0000AB0704782B00190ADF802108DF80120B0
:100FB0009DF8010028B1FFE7BDF802000199086122
:100FC00005E0BDF80200000401990861FFE702B0E6
:100FD0007047000042F2E050C2F200000068704723
:100FE00080B584B042F27020C2F2000002900298F4
:100FF00020B9FFE701208DF80F002AE1029890F850
:101000003D0040B9FFE70298002180F83C100298AB
:1010100000F09CFCFFE70298242180F83D10029824
:101020000068016821F00101016002980068016810
:1010300041F40041016002980068016821F4004118
:10104000016000F0B1FE00900298406848F2A06193
:10105000C0F2010188420AD8FFE7009948F28042B5
:10106000C0F21E020020914238BF012009E0009921
:1010700040F60012C0F23D020020914238BF01202C
:10108000FFE7012804D1FFE701208DF80F00E0E021
:1010900000984DF68361C4F21B31A0FB0101880C5E
:1010A000019002980068406820F03F0001990843D1
:1010B00002990968486002980068006A20F03F00C1
:1010C0000299496848F2A062C0F20102914203D835
:1010D000FFE7019901310DE001994FF496725143F8
:1010E00044F6D352C1F26202A1FB0212012101EBCC
:1010F0009211FFE7084302990968086202980068A4
:10110000C0694CF6FF7188430299496848F2A062B1
:10111000C0F2010291421BD8FFE700990139029AFF
:1011200052685200B1FBF2F101316FF31F31032914
:1011300002D8FFE704210AE000990139029A5268B7
:101140005200B1FBF2F101316FF31F31FFE742E0D2
:101150000299896861B9FFE700990139029A5268DA
:1011600002EB4202B1FBF2F101316FF31F310CE0EF
:1011700000990139029A526819235A43B1FBF2F1DE
:101180000131042262F31F31FFE7090511B9FFE7BE
:1011900001211FE00299896861B9FFE700990139CF
:1011A000029A526802EB4202B1FBF2F101316FF395
:1011B0001F310CE000990139029A526819235A43F1
:1011C000B1FBF2F10131042262F31F31FFE741F478
:1011D0000041FFE7FFE7084302990968C8610298E8
:1011E0000068006820F0C00002990A68CB69096AAB
:1011F00019430843106002980068806848F2FF3184
:10120000884302990A68CB680969194308439060CA
:1012100002980068C06820F0FF0002990A684B69D4
:10122000896919430843D06002980068016841F059
:10123000010101600298002101640298202280F8D7
:101240003D2002980163029880F83E108DF80F103F
:10125000FFE79DF80F0004B080BD000080B594B09A
:1012600042F27023C2F200030E93D123ADF8363060
:10127000ADF834000120ADF832000B91ADF82A2012
:1012800040F6FF70099000200890FFF7A3FE07903A
:101290000E9890F83D00202840F04882FFE70E9815
:1012A000079900910221C0F210010122192302F0D6
:1012B0004FFD20B1FFE702208DF83F003AE2FFE743
:1012C0000E9890F83C00012804D1FFE702208DF829
:1012D0003F002FE20E98012180F83C10FFE7FFE766
:1012E0000E9800680068C00738B9FFE70E980068DC
:1012F000016841F001010160FFE70E980068016894
:1013000021F4006101600E98222180F83D100E98B2
:10131000402180F83E100E98002101640B980E9930
:101320004862BDF82A000E9948850E98408D0E99A6
:1013300008850E980021CFF6FF71C1620E98BDF8A6
:101340003610BDF83420BDF83230DDF824C0DDF8A9
:101350001CE0CDF804E0CDF800C002F01FFB20B186
:10136000FFE701208DF83F00E4E10E98008DA0B961
:10137000FFE7FFE7002006900E980068406906909E
:101380000E980068806906900698FFE70E9800683E
:10139000016841F4007101605DE00E98008D012844
:1013A0001FD1FFE70E980068016821F48061016099
:1013B000EFF3108072B61090FFE7002005900E98B2
:1013C0000068406905900E9800688069059005984E
:1013D000FFE70E980068016841F40071016062B691
:1013E00038E00E98008D02281FD1FFE70E980068A4
:1013F000016841F400610160EFF3108072B6119052
:10140000FFE7002004900E980068406904900E9851
:101410000068806904900498FFE70E9800680168EE
:1014200021F48061016062B613E00E9800680168E3
:1014300041F480610160FFE7002003900E9800688E
:10144000406903900E980068806903900398FFE755
:10145000FFE7FFE7FFE7FFE70E98008D002800F0A9
:101460005381FFE70E98008D032800F20581FFE706
:101470000E98008D01281ED1FFE70E980999079A52
:1014800002F08CFD20B1FFE701208DF83F0051E113
:101490000E98006800690E99496A08700E98416AB2
:1014A000013141620E98018D013901850E98418DFF
:1014B00001394185DFE00E98008D022840D1FFE719
:1014C0000E98099B079900910421C0F201010022A6
:1014D00002F03EFC20B1FFE701208DF83F0029E13A
:1014E000EFF3108072B612900E980068016841F414
:1014F000007101600E98006800690E99496A0870D1
:101500000E98416A013141620E98018D01390185C1
:101510000E98418D0139418562B60E9800680069C8
:101520000E99496A08700E98416A013141620E981D
:10153000018D013901850E98418D0139418599E070
:101540000E98099B079900910421C0F20101002225
:1015500002F0FEFB20B1FFE701208DF83F00E9E03B
:101560000E980068016821F480610160EFF310803B
:1015700072B613900E98006800690E99496A087057
:101580000E98416A013141620E98018D0139018541
:101590000E98418D0139418540F20800C2F20000E9
:1015A000006848F21F51C5F2EB11A0FB0101C80809
:1015B00044F6D351C1F26201A0FB01018809232145
:1015C00048430890FFE70898013808900898D0B978
:1015D000FFE70E98002101630E98202280F83D203D
:1015E0000E9880F83E100E98016C41F020010164C5
:1015F00062B6FFE70E98002180F83C10FFE701205B
:101600008DF83F0096E0FFE70E980068406900F013
:1016100004000021B1EB900FD5D0FFE70E980068D1
:10162000016841F4007101600E98006800690E992C
:10163000496A08700E98416A013141620E98018D25
:10164000013901850E98418D0139418562B60E98A8
:10165000006800690E99496A08700E98416A013164
:1016600041620E98018D013901850E98418D013935
:101670004185FFE7FFE746E00E980999079A02F0D7
:101680008DFC20B1FFE701208DF83F0052E00E985D
:10169000006800690E99496A08700E98416A013124
:1016A00041620E98018D013901850E98418D0139F5
:1016B00041850E980068406900F004000121B1EBFB
:1016C000900F1FD1FFE70E98008D032807D1FFE789
:1016D0000E980068016821F480610160FFE70E98B0
:1016E000006800690E99496A08700E98416A0131D4
:1016F00041620E98018D013901850E98418D0139A5
:101700004185FFE7FFE7A7E60E98202180F83D100E
:101710000E98002180F83E10FFE70E98002180F817
:101720003C10FFE700208DF83F0003E002208DF819
:101730003F00FFE714B080BD80B58AB042F270224E
:10174000C2F200020892D022ADF81E20ADF81C00B3
:101750000120ADF81A000591ADF8120040F6FF70B7
:101760000390FFF737FC0290089890F83D0020287E
:1017700040F0E580FFE70898029900910221C0F24D
:1017800010010122192302F0E3FA20B1FFE7022041
:101790008DF82700D7E0FFE7089890F83C00012873
:1017A00004D1FFE702208DF82700CCE00898012142
:1017B00080F83C10FFE7FFE7089800680068C00762
:1017C00038B9FFE708980068016841F0010101603D
:1017D000FFE708980068016821F40061016008983B
:1017E000212180F83D100898402180F83E1008988B
:1017F00000210164059808994862BDF81200089913
:1018000048850898408D0899088508980021CFF6EA
:10181000FF71C1620898BDF81E10BDF81C20BDF80C
:101820001A30DDF80CC0DDF808E0CDF804E0CDF8A2
:1018300000C002F09DF920B1FFE701208DF82700DC
:1018400081E0FFE70898008D002849D0FFE708985D
:101850000399029A02F010FC80B1FFE70898006C2F
:10186000042807D1FFE708980068016841F4007177
:101870000160FFE701208DF8270064E00898016807
:10188000406A007808610898416A0131416208980D
:10189000018D013901850898418D013941850898EC
:1018A0000068406900F004000121B1EB900F16D1EF
:1018B000FFE70898008D90B1FFE708980168406A3B
:1018C000007808610898416A013141620898018DE9
:1018D000013901850898418D01394185FFE7B1E75C
:1018E00008980399029A02F0DDF980B1FFE70898A1
:1018F000006C042807D1FFE708980068016841F4EC
:1019000000710160FFE701208DF827001BE00898B7
:101910000068016841F4007101600898202180F896
:101920003D100898002180F83E10FFE7089800213C
:1019300080F83C10FFE700208DF8270003E002202C
:101940008DF82700FFE70AB080BD000080B588B0A1
:101950000790002006900590049003900798006877
:1019600045F20041C4F2000188423ED1FFE7FFE7A3
:1019700041F21800C4F20200016841F00801016060
:10198000006800F0080002900298FFE74FF44070F2
:101990000390122004900320069040F60040C4F209
:1019A000010003A9FFF784F9FFE70420C4F2010056
:1019B00001680191019941F0E0610191019941F0C3
:1019C0000201019101990160FFE7FFE741F21C006C
:1019D000C4F20200016841F400110160006800F4E3
:1019E000001000900098FFE7FFE708B080BD0000FE
:1019F00042F2E050C2F2000001680131016070471C
:101A000080B542F20000C4F20200016841F010010A
:101A1000016000F08DF80F2000F004F800F034F8B9
:101A200080BD000080B582B0009040F20800C2F294
:101A30000000006844F6D351C1F26201A0FB01012D
:101A4000880900F037FE20B1FFE701208DF807007C
:101A500017E000980F280CD8FFE700994FF0FF30EF
:101A600000F04EF8009840F20401C2F20001086054
:101A700003E001208DF8070003E000208DF8070047
:101A8000FFE702B080BD000083B0FFE741F218001D
:101A9000C4F20200016841F001010160006800F039
:101AA000010002900298FFE7FFE741F21C00C4F238
:101AB0000200016841F080510160006800F0805030
:101AC00001900198FFE7FFE70420C4F201000168DC
:101AD0000091009921F0E0610091009941F00071BE
:101AE000009100990160FFE703B0704780B582B0B4
:101AF0008DF807009DF9070003F04EFE02B080BD8F
:101B000010B584B08DF80F00029100200190009074
:101B100003F05CFE00909DF90F4000980299019A35
:101B200003F000F80146204603F058FE04B010BD53
:101B300080B582B003200190019803F071FE02B0DD
:101B400080BD000080B584B0029002200190029810
:101B500020B9FFE701208DF80F001BE1019842F248
:101B60000001C4F20201096801F00701884216D998
:101B7000FFE742F20000C4F20200016821F0070111
:101B8000019A11430160006800F007000199884242
:101B900004D0FFE701208DF80F00FBE0FFE702987B
:101BA0000078800700282AD5FFE7029800784007D0
:101BB000002809D5FFE741F20400C4F202000168E1
:101BC00041F4E0610160FFE7029800780007002817
:101BD00009D5FFE741F20400C4F20200016841F4B4
:101BE00060510160FFE741F20400C4F202000168A5
:101BF00021F0F001029A926811430160FFE7029818
:101C00000078C007002860D0FFE7029840680128EC
:101C10000ED1FFE741F20000C4F202000068800329
:101C2000002804D4FFE701208DF80F00B2E021E086
:101C30000298406802280ED1FFE741F20000C4F28A
:101C4000020000688001002804D4FFE701208DF81D
:101C50000F009FE00DE041F20000C4F202000068B6
:101C60008007002804D4FFE701208DF80F0091E0E1
:101C7000FFE7FFE741F20400C4F20200016821F02F
:101C80000301029A526811430160FFF7A3F9009023
:101C9000FFE741F20400C4F20200006800F00C000B
:101CA00002994968B0EB810F0ED0FFE7FFF792F978
:101CB0000099401A41F28931884204D3FFE703209A
:101CC0008DF80F0066E0E4E7FFE7019842F20001BB
:101CD000C4F20201096801F00701884216D2FFE749
:101CE00042F20000C4F20200016821F00701019AEB
:101CF00011430160006800F007000199884204D098
:101D0000FFE701208DF80F0044E0FFE7029800781C
:101D1000400700280CD5FFE741F20400C4F202009E
:101D2000016821F4E061029AD26811430160FFE783
:101D300002980078000700280DD5FFE741F2040063
:101D4000C4F20200016821F46051029A126941EA6A
:101D5000C2010160FFE700F04BF841F20401C4F258
:101D600002010968C9B209094CF2DE52C0F600024C
:101D7000515CC84040F20801C2F20001086040F224
:101D80000400C2F200000068FFF74CFE00208DF84E
:101D90000F00FFE79DF80F0004B080BD40F208007F
:101DA000C2F200000068704780B5FFF7F7FF41F20C
:101DB0000401C4F202010968C1F302214CF2EE529F
:101DC000C0F60002515CC84080BD000080B5FFF73E
:101DD000E5FF41F20401C4F202010968C1F3C22126
:101DE0004CF2EE52C0F60002515CC84080BD0000CB
:101DF00085B000200490039002900190009041F281
:101E00000400C4F2020000680490049800F00C0082
:101E1000E8B3FFE7042803D0FFE7082806D037E03F
:101E200041F20020C0F27A00009037E00498C0F33D
:101E300083404CF2CE51C0F60001085C01909DF841
:101E40001200C007C0B1FFE741F20400C4F2020073
:101E50000068C0F340404BF6E071C0F60001085C3A
:101E60000390019841F20021C0F27A01484303999E
:101E7000B0FBF1F0029007E0019840F60011C0F2CB
:101E80003D0148430290FFE70298009006E0FFE71B
:101E900041F20020C0F27A000090FFE7009805B000
:101EA0007047000080B586B00490049820B9FFE721
:101EB00001208DF817002DE304980078C007002852
:101EC00000F0AE80FFE741F20400C4F202000068B7
:101ED00000F00C00042813D0FFE741F20400C4F224
:101EE0000200006800F00C0008281BD1FFE741F257
:101EF0000400C4F202000068C003002812D5FFE706
:101F000041F20000C4F2020000688003002808D5F6
:101F1000FFE70498406820B9FFE701208DF817001B
:101F2000F8E27CE0FFE704984068B0F5803F09D113
:101F3000FFE741F20000C4F20200016841F4803181
:101F4000016032E00498406868B9FFE741F20000A0
:101F5000C4F20200016821F480310160016821F4BB
:101F60008021016020E004984068B0F5A02F0DD1D9
:101F7000FFE741F20000C4F20200016841F4802151
:101F80000160016841F4803101600CE041F2000021
:101F9000C4F20200016821F480310160016821F47B
:101FA00080210160FFE7FFE7FFE7FFE70498406853
:101FB000D0B1FFE7FFF70EF80390FFE741F2000012
:101FC000C4F202000068800300280CD4FFE7FFF78A
:101FD00001F80399401A652804D3FFE703208DF820
:101FE000170097E2EAE719E0FEF7F4FF0390FFE736
:101FF00041F20000C4F202000068800300280CD502
:10200000FFE7FEF7E7FF0399401A652804D3FFE7CF
:1020100003208DF817007DE2EAE7FFE7FFE7FFE71F
:10202000049800788007002840F18D80FFE741F296
:102030000400C4F20200006810F00C0F13D0FFE798
:1020400041F20400C4F20200006800F00C0008280D
:1020500029D1FFE741F20400C4F202000068C00386
:10206000002820D4FFE741F20000C4F2020000681B
:102070008007002809D5FFE704980069012804D0EB
:10208000FFE701208DF8170044E241F20000C4F29E
:102090000200016821F0F801049A526941EAC20184
:1020A0000160FFE74EE00498006958B3FFE70020A5
:1020B000C4F2422001210160FEF78CFF0390FFE78C
:1020C00041F20000C4F202000068800700280CD42E
:1020D000FFE7FEF77FFF0399401A032804D3FFE7C9
:1020E00003208DF8170015E2EAE741F20000C4F280
:1020F0000200016821F0F801049A526941EAC20124
:1021000001601EE00020C4F2422000210160FEF7C1
:1021100061FF0390FFE741F20000C4F20200006893
:10212000800700280CD5FFE7FEF754FF0399401AFB
:10213000032804D3FFE703208DF81700EAE1EAE75C
:10214000FFE7FFE7FFE7049800780007002847D57E
:10215000FFE70498806910B3FFE740F28040C4F2C3
:10216000422001210160FEF735FF0390FFE741F2B5
:102170002400C4F202000068800700280CD4FFE7A6
:10218000FEF728FF0399401A032804D3FFE7032032
:102190008DF81700BEE1EAE702F0F8FC1FE040F21C
:1021A0008040C4F2422000210160FEF713FF03903B
:1021B000FFE741F22400C4F2020000688007002813
:1021C0000CD5FFE7FEF706FF0399401A032804D356
:1021D000FFE703208DF817009CE1EAE7FFE7FFE740
:1021E000049800784007002840F1D880FFE70020DD
:1021F0008DF8070041F21C00C4F202000068C00024
:10220000002813D4FFE7FFE741F21C00C4F20200EC
:10221000016841F080510160006800F0805000903A
:102220000098FFE701208DF80700FFE747F2000064
:10223000C4F200000068C005002822D4FFE747F27E
:102240000000C4F20000016841F480710160FEF7F3
:10225000C1FE0390FFE747F20000C4F200000068EF
:10226000C00500280CD4FFE7FEF7B4FE0399401A1E
:10227000652804D3FFE703208DF817004AE1EAE759
:10228000FFE7FFE70498C068012809D1FFE741F2A2
:102290002000C4F20200016841F00101016031E058
:1022A0000498C06868B9FFE741F22000C4F2020058
:1022B000016821F001010160016821F00401016061
:1022C0001FE00498C06805280DD1FFE741F2200007
:1022D000C4F20200016841F004010160016841F0AC
:1022E000010101600CE041F22000C4F2020001682B
:1022F00021F001010160016821F004010160FFE7A4
:10230000FFE7FFE7FFE70498C068E0B1FFE7FEF7EB
:1023100061FE0390FFE741F22000C4F20200006872
:10232000800700280ED4FFE7FEF754FE0399401AF9
:1023300041F28931884204D3FFE703208DF817006A
:10234000E8E0E8E71BE0FEF745FE0390FFE741F217
:102350002000C4F202000068800700280ED5FFE7C5
:10236000FEF738FE0399401A41F28931884204D3BE
:10237000FFE703208DF81700CCE0E8E7FFE79DF8C2
:102380000700012809D1FFE741F21C00C4F2020056
:10239000016821F080510160FFE7FFE70498C06900
:1023A000002800F0B380FFE741F20400C4F202000D
:1023B000006800F00C00082800F08280FFE7049815
:1023C000C06902285CD1FFE76020C4F242200021EE
:1023D0000160FEF7FFFD0390FFE741F20000C4F249
:1023E00002000068800100280CD5FFE7FEF7F2FD2F
:1023F0000399401A032804D3FFE703208DF8170040
:1024000088E0EAE70498006AB0F5803F0CD1FFE766
:1024100041F20400C4F20200016821F40031049A80
:10242000926811430160FFE741F20400C4F2020028
:10243000016821F47411049A136A526A1A43114311
:1024400001606020C4F2422001210160FEF7C2FD5C
:102450000390FFE741F20000C4F20200006880012F
:1024600000280CD4FFE7FEF7B5FD0399401A0328B6
:1024700004D3FFE703208DF817004BE0EAE71EE0E6
:102480006020C4F2422000210160FEF7A3FD03900A
:10249000FFE741F20000C4F202000068800100285A
:1024A0000CD5FFE7FEF796FD0399401A032804D3E5
:1024B000FFE703208DF817002CE0EAE7FFE724E0B0
:1024C0000498C069012804D1FFE701208DF81700A6
:1024D00020E041F20400C4F2020000680290029879
:1024E00000F480300499096A884208D1FFE7029815
:1024F00000F470100499496A884204D0FFE7012073
:102500008DF8170006E0FFE7FFE7FFE700208DF8F2
:102510001700FFE79DF8170006B080BD80B582B0B8
:1025200042F2C420C2F200000090009820B9FFE7F8
:1025300001208DF807006DE00098406A60B9FFE760
:1025400000984068B0F5827F01D1FFE703E0009872
:102550000021C161FFE705E00098002101610098BA
:102560004161FFE7009800218162009890F85100D6
:1025700040B9FFE70098002180F85010009800F063
:102580004DF8FFE70098022180F85110009800688C
:10259000016821F0400101600098D0F800C0426855
:1025A0008368C16802F4827203F404431A4401F49C
:1025B00000611144026902F002021144426902F012
:1025C00001021144826902F400721144C26902F0EE
:1025D00038021144026A02F080021143806A00F45A
:1025E00000500843CCF800000098418B01F0040132
:1025F0000068416000980068C16921F40061C16110
:102600000098002141650098012280F851208DF842
:102610000710FFE79DF8070002B080BDB0B588B095
:10262000079000200690059004900390079800689A
:1026300043F60001C4F20001884239D1FFE7FFE709
:1026400041F21C00C4F20200016841F480410160C3
:10265000006800F4804002900298FFE7FFE741F233
:102660001800C4F20200016841F00801016000682E
:1026700000F0080001900198FFE74FF4204003901C
:10268000022004900320069040F60044C4F20104A6
:1026900003AD20462946FEF70BFB4FF48040039024
:1026A00000200490059020462946FEF701FBFFE735
:1026B00008B0B0BD80B582B00190019802F0C0FAB8
:1026C00002B080BD81B0009001B0704781B0009031
:1026D00001B0704784B042F21C31C2F20001029195
:1026E000019000200090FFE7029890F83C0001283C
:1026F00004D1FFE702208DF80F0044E00298012189
:1027000080F83C10FFE7FFE7009820F0FF000199F8
:10271000C96808430090009820F4407001998968C6
:1027200008430090009820F48060019949680843AC
:102730000090009820F40060019909680843009017
:10274000009820F48050019909690843009000988E
:1027500020F400500199496908430090009820F442
:1027600080400199C969084300900098029909685E
:102770004864FFE70298002180F83C10FFE7002042
:102780008DF80F00FFE79DF80F0004B070470000C0
:1027900085B003900291FFE7039890F83C00012870
:1027A00004D1FFE702208DF813005BE003980121BC
:1027B00080F83C10FFE7FFE70398022180F83D1006
:1027C0000398006840680190039800688068009052
:1027D000019820F070000190029800680199084368
:1027E000019001980399096848600398006842F6CF
:1027F0000041C4F20101884218D0FFE70398006845
:10280000B0F1804F12D0FFE70398006840F200411A
:10281000C4F20001884209D0FFE70398006840F63F
:102820000001C4F2000188420ED1FFE7009820F0B9
:10283000800000900298406800990843009000983A
:10284000039909688860FFE70398012180F83D102B
:10285000FFE70398002180F83C10FFE700208DF887
:102860001300FFE79DF8130005B0704780B582B0F4
:102870000090009820B9FFE701208DF807003FE0A5
:10288000009890F83D0040B9FFE70098002180F8DB
:102890003C10009800F038F8FFE70098022180F81B
:1028A0003D10009951F8040B02F036FA009801210E
:1028B00080F84610FFE70098012180F83E1000984C
:1028C00080F83F10009880F84010009880F8411080
:1028D000FFE7FFE70098012180F84210009880F898
:1028E0004310009880F84410009880F84510FFE7E6
:1028F0000098012180F83D1000208DF80700FFE7C7
:102900009DF8070002B080BD80B586B0059005989F
:10291000006842F60041C4F20101884236D1FFE767
:10292000FFE741F21800C4F20200016841F40061BF
:102930000160006800F4006004900498FFE742F230
:102940003C40C2F200001C21C4F2020101601021CF
:102950004160002181608022C2604FF400720261F8
:102960004FF4006242618161C161FEF72DF910B13F
:10297000FFE7FDF703FFFFE7059842F23C41C2F293
:102980000001416205984862FFE751E00598006840
:10299000B0F1804F10D1FFE7FFE741F21C00C4F215
:1029A0000200016841F001010160006800F00100CF
:1029B00003900398FFE73AE00598006840F2004171
:1029C000C4F20001884210D1FFE7FFE741F21C008A
:1029D000C4F20200016841F002010160006800F0E9
:1029E000020002900298FFE720E00598006840F698
:1029F0000001C4F20001884217D1FFE7FFE741F26E
:102A00001C00C4F20200016841F00401016000688A
:102A100000F0040001900198FFE71E200021FFF75D
:102A20006FF81E20FFF762F8FFE7FFE7FFE7FFE719
:102A300006B080BD80B586B00490039100208DF86B
:102A40000B00FFE7049890F83C00012804D1FFE751
:102A500002208DF81700A1E00498012180F83C10B5
:102A6000FFE7FFE70498022180F83D100498006812
:102A700080680190019820F077000190019820F47F
:102A80007F40019001980499096888600398006864
:102A9000002869D0FFE7102866D0FFE7202863D020
:102AA000FFE7302860D0FFE7402850D0FFE75028EC
:102AB00033D0FFE760283DD0FFE7702809D0FFE75B
:102AC000B0F5805F04D0FFE7B0F5005F16D052E0AC
:102AD00055E004980068039B5A689968DB6802F027
:102AE0009FF90498006880680190019840F0770091
:102AF0000190019804990968886040E00498006892
:102B0000039B5A689968DB6802F08AF904980068A8
:102B1000816841F48041816031E004980068039A43
:102B20005168D26802F038FB04980068502102F026
:102B300091F924E004980068039A5168D26802F081
:102B400053FB04980068602102F084F917E00498B0
:102B50000068039A5168D26802F01EFB049800686E
:102B6000402102F077F90AE00498006803990968A7
:102B700002F070F903E001208DF80B00FFE70498E4
:102B8000012180F83D10FFE70498002180F83C10F7
:102B9000FFE79DF80B008DF81700FFE79DF8170081
:102BA00006B080BD81B0009001B0704780B584B0A0
:102BB000039003980068C068029003980068006959
:102BC00001909DF804008007002824D5FFE79DF8B8
:102BD0000800800700281DD5FFE7039800686FF004
:102BE000020101610398012101770398006880695F
:102BF000800720B1FFE70398FFF7D4FF06E00398B2
:102C000000F04EF9039800F041FAFFE70398002125
:102C10000177FFE7FFE79DF804004007002825D56E
:102C2000FFE79DF80800400700281ED5FFE703983E
:102C300000686FF004010161039802210177039895
:102C40000068806910F4407F04D0FFE70398FFF725
:102C5000A9FF06E0039800F023F9039800F016FAA4
:102C6000FFE7039800210177FFE7FFE79DF80400E5
:102C70000007002824D5FFE79DF80800000700287A
:102C80001DD5FFE7039800686FF008010161039804
:102C90000421017703980068C069800720B1FFE72D
:102CA0000398FFF77FFF06E0039800F0F9F8039818
:102CB00000F0ECF9FFE7039800210177FFE7FFE759
:102CC0009DF80400C006002825D5FFE79DF8080000
:102CD000C00600281ED5FFE7039800686FF01001BA
:102CE000016103980821017703980068C06910F416
:102CF000407F04D0FFE70398FFF754FF06E00398F6
:102D000000F0CEF8039800F0C1F9FFE70398002126
:102D10000177FFE7FFE79DF80400C00778B1FFE700
:102D20009DF80800C00748B1FFE7039800686FF0FE
:102D300001010161039800F0ADF9FFE7FFE79DF89D
:102D400004000006002810D5FFE79DF808000006E3
:102D5000002809D5FFE7039800686FF08001016142
:102D60000398FFF7AFFCFFE7FFE79DF8040040067C
:102D7000002810D5FFE79DF808004006002809D577
:102D8000FFE7039800686FF040010161039800F0CD
:102D900091F9FFE7FFE79DF804008006002810D5B1
:102DA000FFE79DF808008006002809D5FFE7039893
:102DB00000686FF0200101610398FFF787FCFFE7CF
:102DC000FFE704B080BD000080B588B00790002008
:102DD00006900590049003900798006842F6004121
:102DE000C4F2010188421DD1FFE7FFE741F218005C
:102DF000C4F20200016841F004010160006800F0C3
:102E0000040002900298FFE74FF4807003900220C4
:102E10000490069040F60000C4F2010003A9FDF7FB
:102E200047FF3AE00798006840F20041C4F2000111
:102E3000884231D1FFE7FFE741F21800C4F20200F7
:102E4000016841F008010160006800F0080001908D
:102E50000198FFE71020039002200490069040F6AE
:102E60000040C4F2010003A9FDF722FFFFE70420A0
:102E7000C4F2010001680091009921F440610091C1
:102E8000009941F0E0610091009941F400610091E6
:102E900000990160FFE7FFE7FFE708B080BD000091
:102EA00081B0009001B0704780B586B00490039166
:102EB000002002908DF80700FFE7049890F83C008E
:102EC000012804D1FFE702208DF8170087E004985D
:102ED000012180F83C10FFE7FFE702980C2800F280
:102EE0006F80DFE800F0076D6D6D206D6D6D3A6DE0
:102EF0006D6D530004980068039901F0C1FF0498B8
:102F00000068816941F00801816104980068816965
:102F100021F00401816103980069049909688A69B4
:102F20001043886150E004980068039902F010F89B
:102F300004980068816941F4006181610498006827
:102F4000816921F4806181610398006904990968AD
:102F50008A6942EA0020886136E004980068039993
:102F600002F062F804980068C16941F00801C1618B
:102F700004980068C16921F00401C16103980069E7
:102F800004990968CA691043C8611DE00498006883
:102F9000039902F0B5F804980068C16941F4006132
:102FA000C16104980068C16921F48061C16103981E
:102FB000006904990968CA6942EA0020C86103E00F
:102FC00001208DF80700FFE7FFE70498002180F853
:102FD0003C10FFE79DF807008DF81700FFE79DF80C
:102FE000170006B080BD000080B582B00090009848
:102FF00020B9FFE701208DF807003FE0009890F826
:103000003D0040B9FFE70098002180F83C1000988F
:1030100000F038F8FFE70098022180F83D10009991
:1030200051F8040B01F078FE0098012180F8461059
:10303000FFE70098012180F83E10009880F83F10CB
:10304000009880F84010009880F84110FFE7FFE7F3
:103050000098012180F84210009880F843100098F1
:1030600080F84410009880F84510FFE7009801218F
:1030700080F83D1000208DF80700FFE79DF807005D
:1030800002B080BD81B0009001B0704781B0009067
:1030900001B0704780B582B00190019842F2F431DE
:1030A000C2F20001884203D1FFE701F0F9F8FFE71F
:1030B00002B080BD81B0009001B0704782B0019035
:1030C000ADF8021002B0704781B0009001B07047B7
:1030D00080B592B011901198006800681090119816
:1030E0000068C0680F901198006840690E90002039
:1030F0000D900C90109800F00F000D900D9888B96D
:10310000FFE79DF84000800600280AD5FFE79DF8FC
:103110003C008006002804D5FFE7119802F0FAF879
:10312000E9E1FFE70D98002800F0C280FFE79DF875
:103130003800C00738B9FFE7BDF83C0010F4907FB5
:1031400000F0B680FFE79DF84000C00758B1FFE7E8
:103150009DF83D00C00730B1FFE71198416C41F088
:1031600001014164FFE79DF84000400700280BD5AE
:10317000FFE79DF83800C00730B1FFE71198416CB8
:1031800041F002014164FFE79DF8400080070028FC
:103190000BD5FFE79DF83800C00730B1FFE7119865
:1031A000416C41F004014164FFE79DF840000007D5
:1031B000002811D5FFE79DF83C008006002805D4C3
:1031C000FFE79DF83800C00730B1FFE71198416C68
:1031D00041F008014164FFE71198406C002866D077
:1031E000FFE79DF84000800600280AD5FFE79DF81C
:1031F0003C008006002804D5FFE7119802F08AF809
:10320000FFE7119800684069C0F380100C90119896
:10321000406C0007002804D4FFE70C9800283ED03B
:10322000FFE7119802F01AF811980068406940060B
:1032300000282FD5FFE7FFE7FFE71198006850E867
:10324000050F20F040000B90FFE70B9811990968DB
:1032500041E80502002AF0D1FFE7FFE71198C06BB3
:1032600098B1FFE71198C06B45F23D21C0F600010F
:1032700041631198C06BFDF703FB28B1FFE711987C
:10328000C06B416B8847FFE703E01198FFF71CFF15
:10329000FFE703E01198FFF717FFFFE706E011983B
:1032A000FFF712FF119800214164FFE7FFE722E1D9
:1032B0001198006B012840F0FE80FFE79DF8400068
:1032C000C006002840F1F780FFE79DF83C00C006EB
:1032D000002840F1F080FFE7FFE700200A901198F6
:1032E000006800680A901198006840680A900A987F
:1032F000FFE71198006840694006002840F181808E
:10330000FFE71198C06B00684068ADF82600BDF873
:103310002600002874D0FFE7BDF826001199898D9A
:1033200088426DDAFFE7BDF826001199C88511982B
:10333000C06B8069202858D0FFE7FFE7FFE71198AE
:10334000006850E8030F20F480700890FFE70898A9
:103350001199096841E80302002AF0D1FFE7FFE76D
:10336000FFE7FFE71198006850E8050F20F0010023
:103370000790FFE707981199096841E80502002ABC
:10338000F0D1FFE7FFE7FFE7FFE71198006850E89B
:10339000050F20F040000690FFE706981199096894
:1033A00041E80502002AF0D1FFE7FFE7119820214C
:1033B00080F84210119800210163FFE7FFE71198A0
:1033C000006850E8030F20F010000590FFE7059813
:1033D0001199096841E80302002AF0D1FFE7FFE7ED
:1033E0001198C06BFDF70EFAFFE7119802214163B7
:1033F0001198818DC28D891A89B2FFF75FFEFFE7B0
:1034000079E01198818DC08D081AADF812001198DD
:10341000C08D00284ED0FFE7BDF81200002849D02B
:10342000FFE7FFE7FFE71198006850E8030F20F47B
:1034300090700390FFE703981199096841E803022F
:10344000002AF0D1FFE7FFE7FFE7FFE711980068E8
:1034500050E8050F20F001000290FFE70298119953
:10346000096841E80502002AF0D1FFE7FFE711985B
:10347000202180F84210119800210163FFE7FFE747
:103480001198006850E8030F20F010000190FFE74A
:1034900001981199096841E80302002AF0D1FFE779
:1034A000FFE71198022141631198BDF81210FFF750
:1034B00005FEFFE71FE09DF84000000600280AD542
:1034C000FFE79DF83C000006002804D5FFE71198AF
:1034D00002F032F80FE09DF84000400600280AD5BF
:1034E000FFE79DF83C004006002804D5FFE711984F
:1034F00001F0FEFEFFE712B080BD000080B582B093
:103500000090009820B9FFE701208DF8070040E007
:103510000098806908B1FFE700E0FFE7009890F8A5
:10352000410040B9FFE70098002180F84010009862
:1035300000F034F8FFE70098242180F8411000984B
:103540000068C16821F40051C160009801F096FF45
:1035500000980068016921F49041016100980068B9
:10356000416921F02A01416100980068C16841F475
:103570000051C1600098002141640098202280F829
:103580004120009880F84220009841638DF8071090
:10359000FFE79DF8070002B080BD000070B58CB059
:1035A0000B9000200A900990089007900B980068F3
:1035B00043F60001C4F2010188425AD1FFE7FFE758
:1035C00041F21800C4F20200016841F48041016038
:1035D000006800F4804006900698FFE7FFE741F29C
:1035E0001800C4F20200016841F0040101600068A3
:1035F00000F0040005900598FFE74FF40070079075
:103600000220089003200A9040F60004C4F201044E
:1036100007AD20462946FDF74BFB4FF4806007902D
:1036200000260896099620462946FDF741FB42F2FE
:103630005850C2F200004421C4F20201016010217E
:10364000416086608021C160066146618661C66115
:10365000FDF7BAFA10B1FFE7FDF790F8FFE70B9816
:1036600042F25851C2F2000181630B984862FFE7B1
:10367000ABE00B98006844F20041C4F200018842BC
:1036800058D1FFE7FFE741F21C00C4F202000168D5
:1036900041F400310160006800F4003004900498A7
:1036A000FFE7FFE741F21800C4F20200016841F0B1
:1036B00004010160006800F0040003900398FFE734
:1036C000042007900220089003200A9040F600048E
:1036D000C4F2010407AD20462946FDF7E9FA0820A7
:1036E000079000260896099620462946FDF7E0FA3D
:1036F00042F29C50C2F200008021C4F2020101603B
:103700001021416086608021C1600661466186614A
:10371000C661FDF759FA10B1FFE7FDF72FF8FFE793
:103720000B9842F29C51C2F2000181630B984862EF
:10373000FFE749E00B98006844F60001C4F200017D
:10374000884240D1FFE7FFE741F21C00C4F20200CB
:10375000016841F480210160006800F4802002903B
:103760000298FFE7FFE741F21800C4F20200016887
:1037700041F008010160006800F008000190019824
:10378000FFE74FF4806007900220089003200A9022
:1037900040F60044C4F2010407AD20462946FDF777
:1037A00087FA4FF4006007900020089009902046A7
:1037B0002946FDF77DFA27200021FEF7A1F92720F1
:1037C000FEF794F9FFE7FFE7FFE70CB070BD0000DC
:1037D00081B00090009842F2C841C2F200018842D4
:1037E00001D1FFE7FFE7009842F28041C2F20001F9
:1037F000884202D1FFE7FFE7FFE701B07047000012
:1038000080B588B042F28041C2F200010691059075
:103810000120ADF812004FF6FF70039000200090D9
:10382000069890F8410020287AD1FFE7059820B14A
:10383000FFE7BDF8120020B9FFE701208DF81F0057
:1038400072E00698002141640698212180F8411019
:10385000FDF7C0FB0090BDF8120006998884BDF802
:1038600012000699C88406988068B0F5805F09D177
:10387000FFE70698006928B9FFE700200290059845
:10388000019004E00598029000200190FFE7FFE717
:103890000698C08C60B3FFE70698009A039B8021CE
:1038A00001F092FE40B1FFE70698202180F8411018
:1038B00003208DF81F0037E0029858B9FFE7019800
:1038C00000886FF35F20069909684860019802300C
:1038D000019008E00298007806990968486002980B
:1038E00001300290FFE70698C18C0139C184CFE70F
:1038F0000698009A039B402101F066FE40B1FFE765
:103900000698202180F8411003208DF81F000BE05D
:103910000698202180F8411000208DF81F0003E058
:1039200002208DF81F00FFE708B080BD81B0009035
:1039300001B07047FFE7FEE782B000900098006892
:10394000406900F480600121B1EB902F1ED1FFE7A8
:10395000009800686FF48061416100980021016364
:103960000098202280F83D20009880F83E100098B2
:10397000016C41F004010164FFE70098002180F828
:103980003C10FFE701208DF8070003E000208DF8D0
:103990000700FFE79DF8070002B0704780B586B0CA
:1039A000DDF824C0DDF820C00490ADF80E10ADF8AD
:1039B0000C20ADF80A3004980068016841F4806179
:1039C000016004980068016841F480710160049806
:1039D000089B099900914FF00111002200F0B8F9FD
:1039E00080B1FFE7049800680068C005002805D58D
:1039F000FFE704984FF400710164FFE703208DF89E
:103A00001700B0E0BDF80E0000F0FE000499096850
:103A1000086104980899099A00F018FA20B1FFE7A4
:103A200001208DF817009EE0FFE700200190049828
:103A300000684069019004980068806901900198CD
:103A4000FFE704980899099A00F016FB80B1FFE798
:103A50000498006C042807D1FFE704980068016807
:103A600041F400710160FFE701208DF817007AE052
:103A7000BDF80A00012806D1FFE79DF80C00049963
:103A80000968086121E09DF80D0004990968086142
:103A900004980899099A00F0EFFA80B1FFE70498BA
:103AA000006C042807D1FFE704980068016841F41E
:103AB00000710160FFE701208DF8170053E09DF8C9
:103AC0000C00049909680861FFE704980899099AAD
:103AD00000F0D2FA80B1FFE70498006C042807D107
:103AE000FFE704980068016841F400710160FFE796
:103AF00001208DF8170036E004980068016841F451
:103B0000807101600498089B099900914FF00111A0
:103B1000002200F01DF980B1FFE7049800680068FA
:103B2000C005002805D5FFE704984FF40071016433
:103B3000FFE703208DF8170015E09DF80E0040F018
:103B4000010004990968086104980899099A00F02D
:103B50007DF920B1FFE701208DF8170003E0002078
:103B60008DF81700FFE79DF8170006B080BD000034
:103B700080B586B0DDF824C0DDF820C00490ADF833
:103B80000E10ADF80C20ADF80A30049800680168FA
:103B900041F4807101600498089B099900914FF0ED
:103BA0000111002200F0D4F880B1FFE7049800680A
:103BB0000068C005002805D5FFE704984FF40071A0
:103BC0000164FFE703208DF8170066E0BDF80E00E2
:103BD00000F0FE0004990968086104980899099AA0
:103BE00000F034F920B1FFE701208DF8170054E010
:103BF000FFE7002001900498006840690190049854
:103C00000068806901900198FFE704980899099A73
:103C100000F032FA80B1FFE70498006C042807D165
:103C2000FFE704980068016841F400710160FFE754
:103C300001208DF8170030E0BDF80A00012806D1F8
:103C4000FFE79DF80C0004990968086121E09DF8E0
:103C50000D0004990968086104980899099A00F010
:103C60000BFA80B1FFE70498006C042807D1FFE746
:103C700004980068016841F400710160FFE70120C9
:103C80008DF8170009E09DF80C0004990968086197
:103C9000FFE700208DF81700FFE79DF8170006B03A
:103CA00080BD000080B584B0029001910092FFE7D2
:103CB00002980068406900F004000021B1EB900F09
:103CC0003ED1FFE70298FFF737FE20B1FFE7012062
:103CD0008DF80F0038E00198013080B3FFE7FDF761
:103CE00079F90099401A0199884203D8FFE70198B1
:103CF00020BBFFE702980068406900F00400002143
:103D0000B1EB900F19D1FFE70298002101630298EF
:103D1000202280F83D20029880F83E100298016C25
:103D200041F020010164FFE70298002180F83C1077
:103D3000FFE701208DF80F0006E0FFE7FFE7B7E798
:103D400000208DF80F00FFE79DF80F0004B080BD44
:103D500080B586B0DDF820C0049003918DF80B206B
:103D60000193FFE79DF80E0001280BD1FFE70498AF
:103D700000684069BDF80C100840401AB0FA80F0A5
:103D800040090AE0049800688069BDF80C100840FA
:103D9000401AB0FA80F04009FFE79DF80B10884206
:103DA0004CD1FFE701980130002846D0FFE7FDF72E
:103DB00011F90899401A0199884203D8FFE7019840
:103DC000D0BBFFE79DF80E0001280BD1FFE7049858
:103DD00000684069BDF80C100840401AB0FA80F045
:103DE00040090AE0049800688069BDF80C1008409A
:103DF000401AB0FA80F04009FFE79DF80B108842A6
:103E000019D1FFE70498002101630498202280F86B
:103E10003D20049880F83E100498016C41F0200188
:103E20000164FFE70498002180F83C10FFE70120BF
:103E30008DF8170006E0FFE7FFE793E700208DF815
:103E40001700FFE79DF8170006B080BD80B586B06B
:103E500004900220C0F20100039002910192FFE75A
:103E60009DF80E0001280BD1FFE704980068406917
:103E7000BDF80C100840401AB0FA80F040090AE082
:103E8000049800688069BDF80C100840401AB0FA28
:103E900080F04009FFE7002877D1FFE70498006829
:103EA000406900F480600121B1EB902F24D1FFE73D
:103EB00004980068016841F400710160049800688A
:103EC0006FF480614161049800210163049820220D
:103ED00080F83D20049880F83E100498016C41F071
:103EE00004010164FFE70498002180F83C10FFE71B
:103EF00001208DF817004CE002980130002843D0D3
:103F0000FFE7FDF767F80199401A0299884203D844
:103F1000FFE70298B8BBFFE79DF80E0001280BD120
:103F2000FFE7049800684069BDF80C100840401A8B
:103F3000B0FA80F040090AE0049800688069BDF892
:103F40000C100840401AB0FA80F04009FFE7C8B9E9
:103F5000FFE70498002101630498202280F83D20A7
:103F6000049880F83E100498016C41F0200101642F
:103F7000FFE70498002180F83C10FFE701208DF84E
:103F8000170006E0FFE7FFE76AE700208DF817005B
:103F9000FFE79DF8170006B080BD000080B584B033
:103FA000029001910092FFE702980068406900F0DA
:103FB00040000021B1EB901F56D1FFE70298006846
:103FC000406900F010000121B1EB101F1CD1FFE788
:103FD000029800686FF010014161029800210163AE
:103FE0000298202280F83D20029880F83E10029826
:103FF000016C0164FFE70298002180F83C10FFE7A4
:1040000001208DF80F0033E0FCF7E4FF0099401A1F
:104010000199884203D8FFE7019820BBFFE7029887
:104020000068406900F040000021B1EB901F19D1F9
:10403000FFE70298002101630298202280F83D20CA
:10404000029880F83E100298016C41F02001016452
:10405000FFE70298002180F83C10FFE701208DF86F
:104060000F0005E0FFE79FE700208DF80F00FFE756
:104070009DF80F0004B080BD80B584B0029001911E
:104080000092FFE7029800684069C0B20021B1EBDE
:10409000D01F3DD1FFE70298FFF74EFC20B1FFE7AC
:1040A00001208DF80F0037E00198013078B3FFE769
:1040B000FCF790FF0099401A0199884203D8FFE766
:1040C000019818BBFFE7029800684069C0B2002160
:1040D000B1EBD01F19D1FFE70298002101630298CC
:1040E000202280F83D20029880F83E100298016C52
:1040F00041F020010164FFE70298002180F83C10A4
:10410000FFE701208DF80F0006E0FFE7FFE7B9E7C2
:1041100000208DF80F00FFE79DF80F0004B080BD70
:1041200080B582B08DF807009DF8070042F2F45187
:10413000C2F2000101EB0010009000980068804777
:10414000002863D0FFE700980079012804DCFFE72E
:1041500000980221017158E000980079032805DCDD
:10416000FFE700980179013101714DE00098807AF4
:1041700060B9FFE70098012181729DF8070000EB0C
:1041800040000130C0B200F06FF8FFE700980089EE
:10419000012838DBFFE70098C1880089814214DAE2
:1041A000FFE70098C1880131C18088B20099098970
:1041B000884209D1FFE79DF8070000EB400003307B
:1041C000C0B200F051F8FFE71CE00098C07A012867
:1041D00017DBFFE70098017B01310173C8B200993A
:1041E000C97A88420CDBFFE70098002101739DF833
:1041F000070000EB40000130C0B200F035F8FFE7E7
:10420000FFE7FFE7FFE7FFE7FFE72AE00098007915
:10421000032804DBFFE70098022101711BE00098EE
:10422000007928B1FFE7009801790139017111E0A7
:104230000098807A01280CD1FFE700980021817254
:104240009DF8070000EB40000230C0B200F00CF80F
:10425000FFE7FFE7FFE700980021C18000980173A6
:10426000FFE702B080BD000081B08DF803009DF82B
:10427000030042F22461C2F20001CA7A8854C87A6B
:104280000130C872C0B20A2807DBFFE742F224609F
:10429000C2F200000021C172FFE701B070470000C8
:1042A00080B582B000208DF80700FFE79DF8070079
:1042B00002280BDCFFE79DF80700FFF731FFFFE75F
:1042C0009DF8070001308DF80700EFE702B080BDD0
:1042D00080B586B040F2E010C2F20000059040F2D6
:1042E000E210C2F20000049040F2E410C2F20000BA
:1042F00003900DF1060000F0ABF800208DF80500EA
:104300009DF80500C8B9FFE79DF806009DF8071065
:1043100041EA0020059908809DF808009DF80910E1
:1043200041EA0020049908809DF80A009DF80B10CE
:1043300041EA002003990880FFE706B080BD000035
:1043400010B582B0FCF74CFE4CF63530C0F60000DC
:1043500005F072F86B20802100F022F96B2000211B
:1043600000F01EF94CF64130C0F6000005F064F88C
:1043700000F092F800F082F800F0E0F84CF62E30F1
:10438000C0F6000005F058F83820002100F008F9C8
:104390004CF61034C0F60004204605F04DF86A20B3
:1043A000002100F0FDF8204605F046F8232000210A
:1043B00000F0F6F8204605F03FF83720802100F0A5
:1043C000EFF8204605F038F800F02CF88DF80600DC
:1043D0009DF806104CF2F650C0F6000005F02CF8DF
:1043E0009DF8060068280BD1FFE76B20012100F043
:1043F000D7F86C20002100F0D3F800F09FF803E01C
:1044000001208DF807000BE02320012100F0C8F8FF
:104410003820012100F0C4F800208DF80700FFE7E4
:1044200002B010BD80B582B075208DF80700002065
:104430008DF806009DF807000DF106010122FCF73A
:104440000DFF6420FCF718FC9DF8060002B080BD4B
:1044500080B582B043218DF8071006218DF8061033
:1044600000909DF8070000999DF80620FCF7F6FEE5
:104470006420FCF701FC02B080BD000080B582B072
:1044800000208DF807009DF80700C000C1B21C2075
:1044900000F086F802B080BD80B582B001208DF8B2
:1044A00007009DF80700C000C1B21B2000F078F89B
:1044B00002B080BD80B582B0ADF8060000208DF856
:1044C0000500BDF80600BC2804DBFFE701208DF8DD
:1044D00005002BE0BDF80600622804DBFFE70220A0
:1044E0008DF8050021E0BDF806002A2804DBFFE76F
:1044F00003208DF8050017E0BDF80600142804DB42
:10450000FFE704208DF805000DE0BDF806000A283D
:1045100004DBFFE705208DF8050003E006208DF899
:104520000500FFE7FFE7FFE7FFE7FFE79DF805105E
:104530001A2000F035F802B080BD000080B582B0CE
:104540006420ADF80600BDF80600B0F57A7F05DD01
:10455000FFE74FF47A70ADF80600FFE7BDF80600FC
:10456000032804DCFFE70420ADF80600FFE7BDF8F0
:1045700006004FF47A71B1FBF0F001388DF80500B8
:104580009DF80510192000F00BF800208DF80500AB
:10459000BDF806004008FFF78DFF02B080BD0000A7
:1045A00010B582B08DF807008DF8061000208DF848
:1045B00005009DF806008DF805004CF61234C0F693
:1045C0000004204604F038FF9DF807000DF10501B6
:1045D000FDF7B2F8204604F02FFF6420FCF74CFBF7
:1045E00002B010BD80B582B0FFE741F21400C4F202
:1045F0000200016841F001010160006800F0010063
:1046000001900198FFE70C200021FDF779FA0C20BA
:10461000FDF76CFA0E200021FDF772FA0E20FDF76F
:1046200065FA11200021FDF76BFA1120FDF75EFA03
:1046300002B080BD2DE9F04788B0002007900690B9
:1046400005900490FFE741F21800C4F202000168EF
:1046500041F020010160006800F020000390039801
:10466000FFE7FFE741F21800C4F20200016841F0E1
:1046700004010160006800F0040002900298FFE766
:10468000FFE741F21800C4F20200016841F008019E
:104690000160006800F0080001900198FFE740F613
:1046A0000005C4F201054FF0020800272846022148
:1046B0000022FCF777FC40F6004AC4F2010A4FF4EE
:1046C0008059012450464FF480510122FCF76AFCC6
:1046D00004940020C1F211000590069704AE28460C
:1046E0003146FCF7E5FACDF8108005940697CDF831
:1046F0001C8028463146FCF7DBFA0320049005971E
:10470000069750463146FCF7D3FACDF81090059441
:104710000697CDF81C8050463146FCF7C9FA08B020
:10472000BDE8F08780B542F27020C2F2000045F289
:104730000041C4F20001016041F68021C0F206018F
:10474000416000218160C1604FF48042026141619B
:104750008161C1610162FCF743FC10B1FFE7FCF726
:104760000DF880BD80B542F2C420C2F2000043F6CD
:104770000001C4F2000101604FF482714160002128
:104780008160C160016141614FF400728261C16169
:104790000162416281620A21C162FDF7BFFE10B170
:1047A000FFE7FBF7EBFF80BD80B596B000211591C8
:1047B000149113911291119110910F910E910D91ED
:1047C0000C910B910A91099108910791069105911D
:1047D000049103910291019142F21C30C2F2000057
:1047E00042F60042C4F20102026041608160592237
:1047F000C2600161416180218161FEF737F810B12B
:10480000FFE7FBF7BBFF4FF48050129042F21C30E1
:10481000C2F2000012A9FEF70DF910B1FFE7FBF795
:10482000ADFF42F21C30C2F20000FEF7DDFB10B11A
:10483000FFE7FBF7A3FF00201090119042F21C301D
:10484000C2F2000010A9FDF7A3FF10B1FFE7FBF7CC
:1048500095FF6020099000200A900B900C900D901D
:104860000E900F9042F21C30C2F2000009A9FEF730
:104870001BFB10B1FFE7FBF781FF002001900290C6
:104880000390049005904FF400510691089001A800
:10489000FDF720FF10B1FFE7FBF770FF42F21C307D
:1048A000C2F20000FEF790FA16B080BD80B586B067
:1048B000002105910491039102910191009142F22E
:1048C0006430C2F200004FF0804202604722426032
:1048D00081604FF6FF72C260016180218161FDF746
:1048E000C5FF10B1FFE7FBF749FF4FF4805002907E
:1048F00042F26430C2F2000002A9FEF79BF810B148
:10490000FFE7FBF73BFF00200090019042F264308C
:10491000C2F200006946FDF73BFF10B1FFE7FBF76D
:104920002DFF06B080BD000080B58EB000210D9136
:104930000C910B910A9109910891079106910591AB
:10494000049103910291019142F2AC30C2F2000055
:1049500040F20042C4F2000202604160816040F215
:104960006672C26001618161FDF780FF10B1FFE7EF
:10497000FBF704FF4FF480500A9042F2AC30C2F2D1
:1049800000000AA9FEF756F810B1FFE7FBF7F6FEA4
:1049900042F2AC30C2F20000FEF726FB10B1FFE796
:1049A000FBF7ECFE00200890099042F2AC30C2F216
:1049B000000008A9FDF7ECFE10B1FFE7FBF7DEFEF3
:1049C000602001900020029003900420059042F2A4
:1049D000AC30C2F2000001A9FEF766FA10B1FFE7A1
:1049E000FBF7CCFE42F2AC30C2F20000FEF7ECF96D
:1049F0000EB080BD80B586B0002105910491039171
:104A000002910191009142F2F430C2F2000040F6AE
:104A10000002C4F20002026040F2CF2242608160D4
:104A200040F2E732C260016180218161FDF71EFF23
:104A300010B1FFE7FBF7A2FE4FF48050029042F264
:104A4000F430C2F2000002A9FDF7F4FF10B1FFE755
:104A5000FBF794FE00200090019042F2F430C2F285
:104A600000006946FDF794FE10B1FFE7FBF786FEF4
:104A700006B080BD80B542F28040C2F2000043F62D
:104A80000001C4F2010101604FF4E13141600021F5
:104A90008160C16001610C2242618161C161FEF7E8
:104AA0002DFD10B1FFE7FBF769FE80BD80B542F236
:104AB000C840C2F2000044F20041C4F200010160AB
:104AC0004FF4E131416000218160C16001610C223D
:104AD00042618161C161FEF711FD10B1FFE7FBF793
:104AE0004DFE80BD80B542F21050C2F2000044F687
:104AF0000001C4F2000101604FF4E1314160002186
:104B00008160C16001610C2242618161C161FEF777
:104B1000F5FC10B1FFE7FBF731FE80BDFFE7FEE7D4
:104B2000FFE7FEE786B0059004910392059800F038
:104B3000070002900298C0F10700052802D3FFE7A2
:104B4000042003E00298C0F10700FFE701900298FB
:104B50000430062802D8FFE7002002E0029803385C
:104B6000FFE7009004980199012202FA01F101394E
:104B7000084000998840039B02FA01F1013919406D
:104B8000084306B0704700007047000082B0012063
:104B90000190019840F20801C2F200010968C908B9
:104BA00044F6D352C1F26202A1FB021291094843BA
:104BB0000090FFE700BFFFE70098411E009100282A
:104BC000F8D1FFE702B070477047000080B586B0AB
:104BD00068200190019803F021FE0490049818B910
:104BE000FFE70020059028E00498303003900398F8
:104BF0001C300290049812210177049849F2C911DF
:104C0000C0F600014160049849F27D11C0F6000130
:104C10008160039801210176029801760498039936
:104C200001F084FE049908620498029901F07EFE66
:104C30000499486204980590FFE7059806B080BD86
:104C400080B582B0009000980138B0F1807F03D326
:104C5000FFE70120019019E0009801384EF214019D
:104C6000CEF2000108604FF0FF300F2100F0B6FDDA
:104C70004EF21800CEF20000002101604EF210004A
:104C8000CEF20000072202600191FFE7019802B016
:104C900080BD000080B5FCF7ABFE80BD10B590B0C4
:104CA00006AC20462821FBF7F6FC00200590049076
:104CB000039002900190012106914FF480320792F7
:104CC00008900A9102200D900E924FF4E0100F9080
:104CD0002046FDF7E7F810B1FFE7FBF74FFD0F2087
:104CE000019002200290002003904FF48061049113
:104CF000059001A8FCF726FF10B1FFE7FBF73EFD8A
:104D000010B010BD7047000080B542F2F430C2F21E
:104D10000000FDF74BFF80BD83B002900191029827
:104D200000680090029842F60041C4F201018842F6
:104D300015D0FFE70298B0F1804F10D0FFE702983E
:104D400040F20041C4F20001884208D0FFE7029817
:104D500040F60001C4F2000188420AD1FFE7009842
:104D600020F070000090019840680099084300907E
:104D7000FFE7029842F60041C4F20101884215D0D3
:104D8000FFE70298B0F1804F10D0FFE7029840F2A1
:104D90000041C4F20001884208D0FFE7029840F6C3
:104DA0000001C4F2000188420AD1FFE7009820F414
:104DB000407000900198C068009908430090FFE798
:104DC000009820F0800001994969084300900098FC
:104DD00002990860019880680299C8620198006889
:104DE00002998862029842F60041C4F201018842A9
:104DF00005D1FFE70198006902990863FFE702986F
:104E00000121416102980069C00730B1FFE70298B3
:104E1000016921F001010161FFE703B07047000063
:104E200085B00490039102920193049880680090E9
:104E3000009820F47F40009003980299019A41EA7B
:104E40000221084300990843009000980499886063
:104E500005B0704783B0029001910298806800907D
:104E6000009820F07000009001980099084340F0ED
:104E70000700009000980299886003B07047000016
:104E800085B0049003910498006A01900498016A27
:104E900021F0010101620498406800900498806943
:104EA0000290029820F070000290029820F0030017
:104EB000029003980068029908430290019820F03C
:104EC00002000190039880680199084301900498BA
:104ED00042F60041C4F2010188420ED1FFE7019879
:104EE00020F0080001900398C068019908430190E0
:104EF000019820F004000190FFE7049842F6004179
:104F0000C4F20101884213D1FFE7009820F48070B9
:104F10000090009820F40070009003984069009978
:104F20000843009003988069009908430090FFE7C8
:104F30000098049948600298049988610398406831
:104F40000499486301980499086205B0704700000D
:104F500085B0049003910498006A01900498016A56
:104F600021F0100101620498406800900498806963
:104F70000290029820F4E0400290029820F44070E1
:104F8000029003980068029941EA0020029001987B
:104F900020F02000019003988068019941EA0010F8
:104FA0000190049842F60041C4F2010188420FD1F9
:104FB000FFE7019820F0800001900398C0680199F4
:104FC00041EA00100190019820F040000190FFE7B5
:104FD000049842F60041C4F20101884215D1FFE76E
:104FE000009820F480600090009820F40060009009
:104FF00003984069009941EA800000900398806915
:10500000009941EA80000090FFE700980499486009
:10501000029804998861039840680499886301980C
:105020000499086205B0704785B004900391049814
:10503000006A01900498016A21F480710162049869
:10504000406800900498C0690290029820F07000B7
:105050000290029820F003000290039800680299E1
:1050600008430290019820F4007001900398806832
:10507000019941EA00200190049842F60041C4F2EF
:10508000010188420FD1FFE7019820F400600190F0
:105090000398C068019941EA00200190019820F42A
:1050A00080600190FFE7049842F60041C4F20101DC
:1050B000884215D1FFE7009820F4805000900098B6
:1050C00020F40050009003984069009941EA0010D4
:1050D000009003988069009941EA00100090FFE772
:1050E00000980499486002980499C8610398406840
:1050F0000499C86301980499086205B070470000DC
:1051000085B0049003910498006A01900498016AA4
:1051100021F4805101620498406800900498C069AD
:105120000290029820F4E0400290029820F440702F
:10513000029003980068029941EA002002900198C9
:1051400020F40050019003988068019941EA0030F2
:105150000190049842F60041C4F2010188420BD14B
:10516000FFE7009820F48040009003984069009980
:1051700041EA80100090FFE7009804994860029887
:105180000499C861039840680499086401980499D7
:10519000086205B07047000085B004900391029248
:1051A0000498006A00900498016A21F001010162EC
:1051B000049880690190019820F0F0000190029815
:1051C000019941EA00100190009820F00A00009037
:1051D0000398009908430090019804998861009809
:1051E0000499086205B0704785B00490039102925B
:1051F0000498006A00900498016A21F0100101628D
:10520000049880690190019820F470400190029800
:10521000019941EA00300190009820F0A000009030
:105220000398009941EA0010009001980499886160
:1052300000980499086205B07047000080B582B0FC
:1052400001900198406A009000980021C185009863
:10525000C1840098FDF738FF02B080BD84B0039090
:10526000FFE7FFE70398006850E8030F20F4907011
:105270000290FFE702980399096841E80302002AB7
:10528000F0D1FFE7FFE7FFE7FFE70398006850E88A
:10529000050F20F001000190FFE7019803990968CC
:1052A00041E80502002AF0D1FFE7FFE70398006B11
:1052B000012814D1FFE7FFE7FFE70398006850E8F3
:1052C000030F20F010000090FFE700980399096891
:1052D00041E80302002AF0D1FFE7FFE7FFE7039868
:1052E000202180F8421003980021016304B0704728
:1052F00080B582B0019001980068C16821F040013A
:10530000C1600198202180F841100198FEF70EFB42
:1053100002B080BD80B586B00490049890F8420039
:10532000222840F0A480FFE704988068B0F5805FF1
:1053300015D1FFE70498006988B9FFE700200390C2
:105340000498806A02900498006840686FF35F20B8
:10535000029908800498816A0231816225E00498EC
:10536000806A03900020029004988068B0F5805F06
:1053700008D0FFE70498806850B9FFE704980069F7
:1053800030B9FFE70498006840680399087007E0A7
:1053900004980068406800F07F0003990870FFE7F8
:1053A0000498816A01318162FFE70498C18D013957
:1053B000C1850804002856D1FFE704980068C16839
:1053C00021F02001C16004980068C16821F4807157
:1053D000C16004980068416921F0010141610498AD
:1053E000202180F842100498002141630498006B4A
:1053F000012830D1FFE7049800210163FFE7FFE7B0
:105400000498006850E8030F20F010000190FFE7B7
:1054100001980499096841E80302002AF0D1FFE7E6
:10542000FFE7049800680068C00600280ED5FFE773
:10543000FFE700200090049800680068009004983E
:105440000068406800900098FFE7FFE70498818DAE
:10545000FDF734FE03E00498FEF7BAF9FFE70020F9
:105460008DF8170007E000208DF8170003E00220F8
:105470008DF81700FFE706B080BD000080B584B04E
:10548000039003980068006920F4405003990A686B
:10549000C968084310610398816802694069114333
:1054A0000843029003980068C06841F20C61884389
:1054B0000299084303990968C86003980068406925
:1054C00020F4407003990A68896908435061039881
:1054D000006843F60001C4F20101884204D1FFE7ED
:1054E000FCF774FC019003E0FCF75EFC0190FFE721
:1054F00001981921484303990A6849688900B0FB5B
:10550000F1F048F21F5CC5F2EB1CA0FB0C3149091D
:10551000642301FB1300322303EB0010A0FB0C03F8
:10552000F02000EA531000EB0110C3F343110844CC
:10553000906004B080BD000083B00190019890F8A5
:10554000410021283AD1FFE701988068B0F5805FDB
:1055500013D1FFE70198006978B9FFE70198006A65
:105560000090009800886FF35F20019909684860F7
:105570000198016A0231016208E00198016A4A1C3F
:1055800002620878019909684860FFE70198C18CB8
:105590000139C184080468B9FFE701980068C1684F
:1055A00021F08001C16001980068C16841F04001AC
:1055B000C160FFE700208DF80B0003E002208DF8AA
:1055C0000B00FFE703B0704780B588B006900591E7
:1055D00000208DF8130003920293FFE706980068FD
:1055E000006805990840401AB0FA80F040099DF81B
:1055F000131088424DD1FFE702980130002847D0B0
:10560000FFE7FBF7E7FC0399401A0299884203D8A9
:10561000FFE7029820B9FFE703208DF81F003CE068
:1056200006980068C0684007002830D5FFE7059855
:1056300080282CD0FFE70598402828D0FFE706985F
:105640000068006800F008000121B1EBD00F1DD107
:10565000FFE7FFE7002001900698006800680190CE
:1056600006980068406801900198FFE70698FFF7E8
:10567000F5FD069808214164FFE70698002180F8AF
:105680004010FFE701208DF81F0006E0FFE7FFE76D
:10569000A4E700208DF81F00FFE79DF81F0008B069
:1056A00080BD000080B542F21050C2F20000FDF74C
:1056B0000FFD80BDFFE7FEE785B003900820029054
:1056C00002980138012101FA00F04042019002984D
:1056D000013801FA00F001380090039801998842DE
:1056E00003DAFFE7019804900AE0039800998842E2
:1056F00003DDFFE70098049002E003980490FFE7C1
:10570000049805B07047000085B003901020029007
:1057100002980138012101FA00F0404201900298FC
:10572000013801FA00F0013800900398019988428D
:1057300003DAFFE7019804900AE003980099884291
:1057400003DDFFE70098049002E003980490FFE770
:10575000049805B07047000084B0029005200190C5
:105760000198012101FA00F0013800900298B0F18F
:10577000FF3F03DCFFE7002003900AE00298009956
:10578000884203DDFFE70098039002E0029803904F
:10579000FFE7039804B0704781B08DF803009DF9CE
:1057A000030000280FD4FFE79DF9030000F01F015C
:1057B000012202FA01F140094EF20012CEF200027B
:1057C00042F82010FFE701B0704700004EF60C5081
:1057D000CEF200000068C0F30220704782B08DF85E
:1057E000070000919DF9070000280AD4FFE7009800
:1057F00000019DF907104EF20042CEF200028854DB
:105800000BE0009800019DF8071001F00F014EF623
:105810001452CEF200028854FFE702B07047000035
:1058200083B00290029800F0070000904EF60C50F2
:10583000CEF200000168019101994FF6FF0211407C
:1058400001910199009A41EA02210022C0F2FA5224
:10585000114301910199016003B0704782B08DF846
:10586000070000919DF80700411E032904D3FFE7BC
:105870000438042801D303E003E007200090FFE789
:10588000FFE7009802B0704780B584B049F69A10DF
:10589000C3F699600290102002F0C0FF01900198B9
:1058A00018B9FFE70020039014E0019846F6E511CF
:1058B000C0F60001016001980221017202984FF0C8
:1058C0008641FAF7F3FEFAF723FF0199087301986E
:1058D0000390FFE7039804B080BD000080B584B05A
:1058E0000290002001900090FFE7009807280FD851
:1058F000FFE70298009901EB410100EB8100007A7B
:1059000008B9FFE705E0FFE7009801300090ECE7F9
:10591000FFE70098082809D1FFE74CF24560C0F680
:10592000000003F089FD0020039009E0029800992F
:1059300001EB410100EB8100019001980390FFE72A
:10594000039804B080BD000080B584B00290029836
:1059500018B9FFE70020039021E002980190019818
:10596000006818B9FFE70198039018E0FFE7019875
:10597000406820B1FFE7019840680190F7E70820F0
:1059800002F04CFF019948600198406818B9FFE7A0
:105990000020039003E0019840680390FFE703981C
:1059A00004B080BD80B582B00090009818B9FFE7C0
:1059B0000020019023E00098006818B9FFE70098E4
:1059C00001901CE0FFE70098806820B1FFE7009895
:1059D00080680090F7E71C2002F020FF00998860A3
:1059E0000098806818B9FFE70020019007E0009850
:1059F000816840694861009880680190FFE70198DC
:105A000002B080BD84B0039002910020009001900C
:105A1000FFE70198072823D8FFE70398019901EBD6
:105A2000410100EB8100406A08B9FFE719E00298E4
:105A3000009908440399019A02EB420201EB8201AA
:105A400008620398019901EB410100EB8100406A73
:105A5000009908440090FFE7019801300190D8E7D1
:105A6000FFE704B07047000080B586B040F2931C99
:105A7000CDF814C000218DF81310059941F2597228
:105A8000CDF2B712A1FB0212510B0391059948F216
:105A90001F52C5F2EB12A1FB02135909A1FB021020
:105AA000400964214843C0EB531002900598A0FBC5
:105AB00002235A0902FB11000190059860450DD0A0
:105AC000FFE70399029A019B4CF20860C0F60000C0
:105AD00003F0B2FC01208DF8130009E00399029A4B
